{
  "contractName": "MaticWETH",
  "abi": [
    {
      "constant": true,
      "inputs": [],
      "name": "name",
      "outputs": [
        {
          "name": "",
          "type": "string"
        }
      ],
      "payable": false,
      "stateMutability": "view",
      "type": "function"
    },
    {
      "constant": false,
      "inputs": [
        {
          "name": "spender",
          "type": "address"
        },
        {
          "name": "value",
          "type": "uint256"
        }
      ],
      "name": "approve",
      "outputs": [
        {
          "name": "",
          "type": "bool"
        }
      ],
      "payable": false,
      "stateMutability": "nonpayable",
      "type": "function"
    },
    {
      "constant": true,
      "inputs": [],
      "name": "totalSupply",
      "outputs": [
        {
          "name": "",
          "type": "uint256"
        }
      ],
      "payable": false,
      "stateMutability": "view",
      "type": "function"
    },
    {
      "constant": false,
      "inputs": [
        {
          "name": "sender",
          "type": "address"
        },
        {
          "name": "recipient",
          "type": "address"
        },
        {
          "name": "amount",
          "type": "uint256"
        }
      ],
      "name": "transferFrom",
      "outputs": [
        {
          "name": "",
          "type": "bool"
        }
      ],
      "payable": false,
      "stateMutability": "nonpayable",
      "type": "function"
    },
    {
      "constant": true,
      "inputs": [],
      "name": "decimals",
      "outputs": [
        {
          "name": "",
          "type": "uint8"
        }
      ],
      "payable": false,
      "stateMutability": "view",
      "type": "function"
    },
    {
      "constant": false,
      "inputs": [
        {
          "name": "spender",
          "type": "address"
        },
        {
          "name": "addedValue",
          "type": "uint256"
        }
      ],
      "name": "increaseAllowance",
      "outputs": [
        {
          "name": "",
          "type": "bool"
        }
      ],
      "payable": false,
      "stateMutability": "nonpayable",
      "type": "function"
    },
    {
      "constant": true,
      "inputs": [
        {
          "name": "account",
          "type": "address"
        }
      ],
      "name": "balanceOf",
      "outputs": [
        {
          "name": "",
          "type": "uint256"
        }
      ],
      "payable": false,
      "stateMutability": "view",
      "type": "function"
    },
    {
      "constant": true,
      "inputs": [],
      "name": "symbol",
      "outputs": [
        {
          "name": "",
          "type": "string"
        }
      ],
      "payable": false,
      "stateMutability": "view",
      "type": "function"
    },
    {
      "constant": false,
      "inputs": [
        {
          "name": "spender",
          "type": "address"
        },
        {
          "name": "subtractedValue",
          "type": "uint256"
        }
      ],
      "name": "decreaseAllowance",
      "outputs": [
        {
          "name": "",
          "type": "bool"
        }
      ],
      "payable": false,
      "stateMutability": "nonpayable",
      "type": "function"
    },
    {
      "constant": false,
      "inputs": [
        {
          "name": "recipient",
          "type": "address"
        },
        {
          "name": "amount",
          "type": "uint256"
        }
      ],
      "name": "transfer",
      "outputs": [
        {
          "name": "",
          "type": "bool"
        }
      ],
      "payable": false,
      "stateMutability": "nonpayable",
      "type": "function"
    },
    {
      "constant": true,
      "inputs": [
        {
          "name": "owner",
          "type": "address"
        },
        {
          "name": "spender",
          "type": "address"
        }
      ],
      "name": "allowance",
      "outputs": [
        {
          "name": "",
          "type": "uint256"
        }
      ],
      "payable": false,
      "stateMutability": "view",
      "type": "function"
    },
    {
      "anonymous": false,
      "inputs": [
        {
          "indexed": true,
          "name": "dst",
          "type": "address"
        },
        {
          "indexed": false,
          "name": "wad",
          "type": "uint256"
        }
      ],
      "name": "Deposit",
      "type": "event"
    },
    {
      "anonymous": false,
      "inputs": [
        {
          "indexed": true,
          "name": "src",
          "type": "address"
        },
        {
          "indexed": false,
          "name": "wad",
          "type": "uint256"
        }
      ],
      "name": "Withdrawal",
      "type": "event"
    },
    {
      "anonymous": false,
      "inputs": [
        {
          "indexed": true,
          "name": "from",
          "type": "address"
        },
        {
          "indexed": true,
          "name": "to",
          "type": "address"
        },
        {
          "indexed": false,
          "name": "value",
          "type": "uint256"
        }
      ],
      "name": "Transfer",
      "type": "event"
    },
    {
      "anonymous": false,
      "inputs": [
        {
          "indexed": true,
          "name": "owner",
          "type": "address"
        },
        {
          "indexed": true,
          "name": "spender",
          "type": "address"
        },
        {
          "indexed": false,
          "name": "value",
          "type": "uint256"
        }
      ],
      "name": "Approval",
      "type": "event"
    },
    {
      "constant": false,
      "inputs": [],
      "name": "deposit",
      "outputs": [],
      "payable": true,
      "stateMutability": "payable",
      "type": "function"
    },
    {
      "constant": false,
      "inputs": [
        {
          "name": "wad",
          "type": "uint256"
        },
        {
          "name": "user",
          "type": "address"
        }
      ],
      "name": "withdraw",
      "outputs": [],
      "payable": false,
      "stateMutability": "nonpayable",
      "type": "function"
    },
    {
      "constant": false,
      "inputs": [
        {
          "name": "wad",
          "type": "uint256"
        }
      ],
      "name": "withdraw",
      "outputs": [],
      "payable": false,
      "stateMutability": "nonpayable",
      "type": "function"
    }
  ],
  "bytecode": "0x60806040526040518060400160405280600d81526020017f57726170706564204574686572000000000000000000000000000000000000008152506003908051906020019062000051929190620000d0565b506040518060400160405280600481526020017f5745544800000000000000000000000000000000000000000000000000000000815250600490805190602001906200009f929190620000d0565b506012600560006101000a81548160ff021916908360ff160217905550348015620000c957600080fd5b506200017f565b828054600181600116156101000203166002900490600052602060002090601f016020900481019282601f106200011357805160ff191683800117855562000144565b8280016001018555821562000144579182015b828111156200014357825182559160200191906001019062000126565b5b50905062000153919062000157565b5090565b6200017c91905b80821115620001785760008160009055506001016200015e565b5090565b90565b611915806200018f6000396000f3fe6080604052600436106100dc5760003560e01c8063395093511161007f578063a457c2d711610059578063a457c2d7146102d3578063a9059cbb14610310578063d0e30db01461034d578063dd62ed3e14610357576100dc565b8063395093511461022e57806370a082311461026b57806395d89b41146102a8576100dc565b806318160ddd116100bb57806318160ddd1461017257806323b872dd1461019d5780632e1a7d4d146101da578063313ce56714610203576100dc565b8062f714ce146100e157806306fdde031461010a578063095ea7b314610135575b600080fd5b3480156100ed57600080fd5b50610108600480360361010391908101906112fc565b610394565b005b34801561011657600080fd5b5061011f61044c565b60405161012c9190611677565b60405180910390f35b34801561014157600080fd5b5061015c60048036036101579190810190611297565b6104ea565b604051610169919061165c565b60405180910390f35b34801561017e57600080fd5b50610187610501565b6040516101949190611799565b60405180910390f35b3480156101a957600080fd5b506101c460048036036101bf9190810190611248565b61050b565b6040516101d1919061165c565b60405180910390f35b3480156101e657600080fd5b5061020160048036036101fc91908101906112d3565b6105bc565b005b34801561020f57600080fd5b50610218610673565b60405161022591906117b4565b60405180910390f35b34801561023a57600080fd5b5061025560048036036102509190810190611297565b610686565b604051610262919061165c565b60405180910390f35b34801561027757600080fd5b50610292600480360361028d91908101906111e3565b61072b565b60405161029f9190611799565b60405180910390f35b3480156102b457600080fd5b506102bd610773565b6040516102ca9190611677565b60405180910390f35b3480156102df57600080fd5b506102fa60048036036102f59190810190611297565b610811565b604051610307919061165c565b60405180910390f35b34801561031c57600080fd5b5061033760048036036103329190810190611297565b6108b6565b604051610344919061165c565b60405180910390f35b6103556108cd565b005b34801561036357600080fd5b5061037e6004803603610379919081019061120c565b610927565b60405161038b9190611799565b60405180910390f35b8161039e3361072b565b10156103a957600080fd5b8073ffffffffffffffffffffffffffffffffffffffff166108fc839081150290604051600060405180830381858888f193505050501580156103ef573d6000803e3d6000fd5b506103fa33836109ae565b8073ffffffffffffffffffffffffffffffffffffffff167f7fcf532c15f0a6db0bd6d0e038bea71d30d808c7d98cb3bf7268a95bf5081b65836040516104409190611799565b60405180910390a25050565b60038054600181600116156101000203166002900480601f0160208091040260200160405190810160405280929190818152602001828054600181600116156101000203166002900480156104e25780601f106104b7576101008083540402835291602001916104e2565b820191906000526020600020905b8154815290600101906020018083116104c557829003601f168201915b505050505081565b60006104f7338484610b36565b6001905092915050565b6000600254905090565b6000610518848484610d01565b6105b184336105ac85600160008a73ffffffffffffffffffffffffffffffffffffffff1673ffffffffffffffffffffffffffffffffffffffff16815260200190815260200160002060003373ffffffffffffffffffffffffffffffffffffffff1673ffffffffffffffffffffffffffffffffffffffff16815260200190815260200160002054610f7190919063ffffffff16565b610b36565b600190509392505050565b806105c63361072b565b10156105d157600080fd5b6105db33826109ae565b3373ffffffffffffffffffffffffffffffffffffffff166108fc829081150290604051600060405180830381858888f19350505050158015610621573d6000803e3d6000fd5b503373ffffffffffffffffffffffffffffffffffffffff167f7fcf532c15f0a6db0bd6d0e038bea71d30d808c7d98cb3bf7268a95bf5081b65826040516106689190611799565b60405180910390a250565b600560009054906101000a900460ff1681565b6000610721338461071c85600160003373ffffffffffffffffffffffffffffffffffffffff1673ffffffffffffffffffffffffffffffffffffffff16815260200190815260200160002060008973ffffffffffffffffffffffffffffffffffffffff1673ffffffffffffffffffffffffffffffffffffffff16815260200190815260200160002054610fc790919063ffffffff16565b610b36565b6001905092915050565b60008060008373ffffffffffffffffffffffffffffffffffffffff1673ffffffffffffffffffffffffffffffffffffffff168152602001908152602001600020549050919050565b60048054600181600116156101000203166002900480601f0160208091040260200160405190810160405280929190818152602001828054600181600116156101000203166002900480156108095780601f106107de57610100808354040283529160200191610809565b820191906000526020600020905b8154815290600101906020018083116107ec57829003601f168201915b505050505081565b60006108ac33846108a785600160003373ffffffffffffffffffffffffffffffffffffffff1673ffffffffffffffffffffffffffffffffffffffff16815260200190815260200160002060008973ffffffffffffffffffffffffffffffffffffffff1673ffffffffffffffffffffffffffffffffffffffff16815260200190815260200160002054610f7190919063ffffffff16565b610b36565b6001905092915050565b60006108c3338484610d01565b6001905092915050565b6108d7333461101c565b3373ffffffffffffffffffffffffffffffffffffffff167fe1fffcc4923d04b559f4d29a8bfc6cda04eb5b0d3c460751c2402c5c5cc9109c3460405161091d9190611799565b60405180910390a2565b6000600160008473ffffffffffffffffffffffffffffffffffffffff1673ffffffffffffffffffffffffffffffffffffffff16815260200190815260200160002060008373ffffffffffffffffffffffffffffffffffffffff1673ffffffffffffffffffffffffffffffffffffffff16815260200190815260200160002054905092915050565b600073ffffffffffffffffffffffffffffffffffffffff168273ffffffffffffffffffffffffffffffffffffffff161415610a1e576040517f08c379a0000000000000000000000000000000000000000000000000000000008152600401610a1590611719565b60405180910390fd5b610a3381600254610f7190919063ffffffff16565b600281905550610a8a816000808573ffffffffffffffffffffffffffffffffffffffff1673ffffffffffffffffffffffffffffffffffffffff16815260200190815260200160002054610f7190919063ffffffff16565b6000808473ffffffffffffffffffffffffffffffffffffffff1673ffffffffffffffffffffffffffffffffffffffff16815260200190815260200160002081905550600073ffffffffffffffffffffffffffffffffffffffff168273ffffffffffffffffffffffffffffffffffffffff167fddf252ad1be2c89b69c2b068fc378daa952ba7f163c4a11628f55a4df523b3ef83604051610b2a9190611799565b60405180910390a35050565b600073ffffffffffffffffffffffffffffffffffffffff168373ffffffffffffffffffffffffffffffffffffffff161415610ba6576040517f08c379a0000000000000000000000000000000000000000000000000000000008152600401610b9d90611759565b60405180910390fd5b600073ffffffffffffffffffffffffffffffffffffffff168273ffffffffffffffffffffffffffffffffffffffff161415610c16576040517f08c379a0000000000000000000000000000000000000000000000000000000008152600401610c0d906116b9565b60405180910390fd5b80600160008573ffffffffffffffffffffffffffffffffffffffff1673ffffffffffffffffffffffffffffffffffffffff16815260200190815260200160002060008473ffffffffffffffffffffffffffffffffffffffff1673ffffffffffffffffffffffffffffffffffffffff168152602001908152602001600020819055508173ffffffffffffffffffffffffffffffffffffffff168373ffffffffffffffffffffffffffffffffffffffff167f8c5be1e5ebec7d5bd14f71427d1e84f3dd0314c0f7b2291e5b200ac8c7c3b92583604051610cf49190611799565b60405180910390a3505050565b600073ffffffffffffffffffffffffffffffffffffffff168373ffffffffffffffffffffffffffffffffffffffff161415610d71576040517f08c379a0000000000000000000000000000000000000000000000000000000008152600401610d6890611739565b60405180910390fd5b600073ffffffffffffffffffffffffffffffffffffffff168273ffffffffffffffffffffffffffffffffffffffff161415610de1576040517f08c379a0000000000000000000000000000000000000000000000000000000008152600401610dd890611699565b60405180910390fd5b610e32816000808673ffffffffffffffffffffffffffffffffffffffff1673ffffffffffffffffffffffffffffffffffffffff16815260200190815260200160002054610f7190919063ffffffff16565b6000808573ffffffffffffffffffffffffffffffffffffffff1673ffffffffffffffffffffffffffffffffffffffff16815260200190815260200160002081905550610ec5816000808573ffffffffffffffffffffffffffffffffffffffff1673ffffffffffffffffffffffffffffffffffffffff16815260200190815260200160002054610fc790919063ffffffff16565b6000808473ffffffffffffffffffffffffffffffffffffffff1673ffffffffffffffffffffffffffffffffffffffff168152602001908152602001600020819055508173ffffffffffffffffffffffffffffffffffffffff168373ffffffffffffffffffffffffffffffffffffffff167fddf252ad1be2c89b69c2b068fc378daa952ba7f163c4a11628f55a4df523b3ef83604051610f649190611799565b60405180910390a3505050565b600082821115610fb6576040517f08c379a0000000000000000000000000000000000000000000000000000000008152600401610fad906116f9565b60405180910390fd5b600082840390508091505092915050565b600080828401905083811015611012576040517f08c379a0000000000000000000000000000000000000000000000000000000008152600401611009906116d9565b60405180910390fd5b8091505092915050565b600073ffffffffffffffffffffffffffffffffffffffff168273ffffffffffffffffffffffffffffffffffffffff16141561108c576040517f08c379a000000000000000000000000000000000000000000000000000000000815260040161108390611779565b60405180910390fd5b6110a181600254610fc790919063ffffffff16565b6002819055506110f8816000808573ffffffffffffffffffffffffffffffffffffffff1673ffffffffffffffffffffffffffffffffffffffff16815260200190815260200160002054610fc790919063ffffffff16565b6000808473ffffffffffffffffffffffffffffffffffffffff1673ffffffffffffffffffffffffffffffffffffffff168152602001908152602001600020819055508173ffffffffffffffffffffffffffffffffffffffff16600073ffffffffffffffffffffffffffffffffffffffff167fddf252ad1be2c89b69c2b068fc378daa952ba7f163c4a11628f55a4df523b3ef836040516111989190611799565b60405180910390a35050565b6000813590506111b381611896565b92915050565b6000813590506111c8816118ad565b92915050565b6000813590506111dd816118c4565b92915050565b6000602082840312156111f557600080fd5b6000611203848285016111a4565b91505092915050565b6000806040838503121561121f57600080fd5b600061122d858286016111a4565b925050602061123e858286016111a4565b9150509250929050565b60008060006060848603121561125d57600080fd5b600061126b868287016111a4565b935050602061127c868287016111a4565b925050604061128d868287016111ce565b9150509250925092565b600080604083850312156112aa57600080fd5b60006112b8858286016111a4565b92505060206112c9858286016111ce565b9150509250929050565b6000602082840312156112e557600080fd5b60006112f3848285016111ce565b91505092915050565b6000806040838503121561130f57600080fd5b600061131d858286016111ce565b925050602061132e858286016111b9565b9150509250929050565b6113418161180f565b82525050565b6000611352826117cf565b61135c81856117da565b935061136c818560208601611852565b61137581611885565b840191505092915050565b600061138d6023836117da565b91507f45524332303a207472616e7366657220746f20746865207a65726f206164647260008301527f65737300000000000000000000000000000000000000000000000000000000006020830152604082019050919050565b60006113f36022836117da565b91507f45524332303a20617070726f766520746f20746865207a65726f20616464726560008301527f73730000000000000000000000000000000000000000000000000000000000006020830152604082019050919050565b6000611459601b836117da565b91507f536166654d6174683a206164646974696f6e206f766572666c6f7700000000006000830152602082019050919050565b6000611499601e836117da565b91507f536166654d6174683a207375627472616374696f6e206f766572666c6f7700006000830152602082019050919050565b60006114d96021836117da565b91507f45524332303a206275726e2066726f6d20746865207a65726f2061646472657360008301527f73000000000000000000000000000000000000000000000000000000000000006020830152604082019050919050565b600061153f6025836117da565b91507f45524332303a207472616e736665722066726f6d20746865207a65726f20616460008301527f64726573730000000000000000000000000000000000000000000000000000006020830152604082019050919050565b60006115a56024836117da565b91507f45524332303a20617070726f76652066726f6d20746865207a65726f2061646460008301527f72657373000000000000000000000000000000000000000000000000000000006020830152604082019050919050565b600061160b601f836117da565b91507f45524332303a206d696e7420746f20746865207a65726f2061646472657373006000830152602082019050919050565b6116478161183b565b82525050565b61165681611845565b82525050565b60006020820190506116716000830184611338565b92915050565b600060208201905081810360008301526116918184611347565b905092915050565b600060208201905081810360008301526116b281611380565b9050919050565b600060208201905081810360008301526116d2816113e6565b9050919050565b600060208201905081810360008301526116f28161144c565b9050919050565b600060208201905081810360008301526117128161148c565b9050919050565b60006020820190508181036000830152611732816114cc565b9050919050565b6000602082019050818103600083015261175281611532565b9050919050565b6000602082019050818103600083015261177281611598565b9050919050565b60006020820190508181036000830152611792816115fe565b9050919050565b60006020820190506117ae600083018461163e565b92915050565b60006020820190506117c9600083018461164d565b92915050565b600081519050919050565b600082825260208201905092915050565b60006117f68261181b565b9050919050565b60006118088261181b565b9050919050565b60008115159050919050565b600073ffffffffffffffffffffffffffffffffffffffff82169050919050565b6000819050919050565b600060ff82169050919050565b60005b83811015611870578082015181840152602081019050611855565b8381111561187f576000848401525b50505050565b6000601f19601f8301169050919050565b61189f816117eb565b81146118aa57600080fd5b50565b6118b6816117fd565b81146118c157600080fd5b50565b6118cd8161183b565b81146118d857600080fd5b5056fea265627a7a72305820c283485d504864caeae33788aa7ce6fc495085d0da725c36ed1c6f7f0ca484306c6578706572696d656e74616cf50037",
  "source": "pragma solidity >=0.4.21 <0.6.0;\n\n/**\n * @dev Wrappers over Solidity's arithmetic operations with added overflow\n * checks.\n *\n * Arithmetic operations in Solidity wrap on overflow. This can easily result\n * in bugs, because programmers usually assume that an overflow raises an\n * error, which is the standard behavior in high level programming languages.\n * `SafeMath` restores this intuition by reverting the transaction when an\n * operation overflows.\n *\n * Using this library instead of the unchecked operations eliminates an entire\n * class of bugs, so it's recommended to use it always.\n */\nlibrary SafeMath {\n    /**\n     * @dev Returns the addition of two unsigned integers, reverting on\n     * overflow.\n     *\n     * Counterpart to Solidity's `+` operator.\n     *\n     * Requirements:\n     * - Addition cannot overflow.\n     */\n    function add(uint256 a, uint256 b) internal pure returns (uint256) {\n        uint256 c = a + b;\n        require(c >= a, \"SafeMath: addition overflow\");\n\n        return c;\n    }\n\n    /**\n     * @dev Returns the subtraction of two unsigned integers, reverting on\n     * overflow (when the result is negative).\n     *\n     * Counterpart to Solidity's `-` operator.\n     *\n     * Requirements:\n     * - Subtraction cannot overflow.\n     */\n    function sub(uint256 a, uint256 b) internal pure returns (uint256) {\n        require(b <= a, \"SafeMath: subtraction overflow\");\n        uint256 c = a - b;\n\n        return c;\n    }\n\n    /**\n     * @dev Returns the multiplication of two unsigned integers, reverting on\n     * overflow.\n     *\n     * Counterpart to Solidity's `*` operator.\n     *\n     * Requirements:\n     * - Multiplication cannot overflow.\n     */\n    function mul(uint256 a, uint256 b) internal pure returns (uint256) {\n        // Gas optimization: this is cheaper than requiring 'a' not being zero, but the\n        // benefit is lost if 'b' is also tested.\n        // See: https://github.com/OpenZeppelin/openzeppelin-solidity/pull/522\n        if (a == 0) {\n            return 0;\n        }\n\n        uint256 c = a * b;\n        require(c / a == b, \"SafeMath: multiplication overflow\");\n\n        return c;\n    }\n\n    /**\n     * @dev Returns the integer division of two unsigned integers. Reverts on\n     * division by zero. The result is rounded towards zero.\n     *\n     * Counterpart to Solidity's `/` operator. Note: this function uses a\n     * `revert` opcode (which leaves remaining gas untouched) while Solidity\n     * uses an invalid opcode to revert (consuming all remaining gas).\n     *\n     * Requirements:\n     * - The divisor cannot be zero.\n     */\n    function div(uint256 a, uint256 b) internal pure returns (uint256) {\n        // Solidity only automatically asserts when dividing by 0\n        require(b > 0, \"SafeMath: division by zero\");\n        uint256 c = a / b;\n        // assert(a == b * c + a % b); // There is no case in which this doesn't hold\n\n        return c;\n    }\n\n    /**\n     * @dev Returns the remainder of dividing two unsigned integers. (unsigned integer modulo),\n     * Reverts when dividing by zero.\n     *\n     * Counterpart to Solidity's `%` operator. This function uses a `revert`\n     * opcode (which leaves remaining gas untouched) while Solidity uses an\n     * invalid opcode to revert (consuming all remaining gas).\n     *\n     * Requirements:\n     * - The divisor cannot be zero.\n     */\n    function mod(uint256 a, uint256 b) internal pure returns (uint256) {\n        require(b != 0, \"SafeMath: modulo by zero\");\n        return a % b;\n    }\n}\n\n/**\n * @dev Interface of the ERC20 standard as defined in the EIP. Does not include\n * the optional functions; to access them see `ERC20Detailed`.\n */\ninterface IERC20 {\n    /**\n     * @dev Returns the amount of tokens in existence.\n     */\n    function totalSupply() external view returns (uint256);\n\n    /**\n     * @dev Returns the amount of tokens owned by `account`.\n     */\n    function balanceOf(address account) external view returns (uint256);\n\n    /**\n     * @dev Moves `amount` tokens from the caller's account to `recipient`.\n     *\n     * Returns a boolean value indicating whether the operation succeeded.\n     *\n     * Emits a `Transfer` event.\n     */\n    function transfer(address recipient, uint256 amount) external returns (bool);\n\n    /**\n     * @dev Returns the remaining number of tokens that `spender` will be\n     * allowed to spend on behalf of `owner` through `transferFrom`. This is\n     * zero by default.\n     *\n     * This value changes when `approve` or `transferFrom` are called.\n     */\n    function allowance(address owner, address spender) external view returns (uint256);\n\n    /**\n     * @dev Sets `amount` as the allowance of `spender` over the caller's tokens.\n     *\n     * Returns a boolean value indicating whether the operation succeeded.\n     *\n     * > Beware that changing an allowance with this method brings the risk\n     * that someone may use both the old and the new allowance by unfortunate\n     * transaction ordering. One possible solution to mitigate this race\n     * condition is to first reduce the spender's allowance to 0 and set the\n     * desired value afterwards:\n     * https://github.com/ethereum/EIPs/issues/20#issuecomment-263524729\n     *\n     * Emits an `Approval` event.\n     */\n    function approve(address spender, uint256 amount) external returns (bool);\n\n    /**\n     * @dev Moves `amount` tokens from `sender` to `recipient` using the\n     * allowance mechanism. `amount` is then deducted from the caller's\n     * allowance.\n     *\n     * Returns a boolean value indicating whether the operation succeeded.\n     *\n     * Emits a `Transfer` event.\n     */\n    function transferFrom(address sender, address recipient, uint256 amount) external returns (bool);\n\n    /**\n     * @dev Emitted when `value` tokens are moved from one account (`from`) to\n     * another (`to`).\n     *\n     * Note that `value` may be zero.\n     */\n    event Transfer(address indexed from, address indexed to, uint256 value);\n\n    /**\n     * @dev Emitted when the allowance of a `spender` for an `owner` is set by\n     * a call to `approve`. `value` is the new allowance.\n     */\n    event Approval(address indexed owner, address indexed spender, uint256 value);\n}\n\n/**\n * @dev Implementation of the `IERC20` interface.\n *\n * This implementation is agnostic to the way tokens are created. This means\n * that a supply mechanism has to be added in a derived contract using `_mint`.\n * For a generic mechanism see `ERC20Mintable`.\n *\n * *For a detailed writeup see our guide [How to implement supply\n * mechanisms](https://forum.zeppelin.solutions/t/how-to-implement-erc20-supply-mechanisms/226).*\n *\n * We have followed general OpenZeppelin guidelines: functions revert instead\n * of returning `false` on failure. This behavior is nonetheless conventional\n * and does not conflict with the expectations of ERC20 applications.\n *\n * Additionally, an `Approval` event is emitted on calls to `transferFrom`.\n * This allows applications to reconstruct the allowance for all accounts just\n * by listening to said events. Other implementations of the EIP may not emit\n * these events, as it isn't required by the specification.\n *\n * Finally, the non-standard `decreaseAllowance` and `increaseAllowance`\n * functions have been added to mitigate the well-known issues around setting\n * allowances. See `IERC20.approve`.\n */\ncontract ERC20 is IERC20 {\n    using SafeMath for uint256;\n\n    mapping (address => uint256) private _balances;\n\n    mapping (address => mapping (address => uint256)) private _allowances;\n\n    uint256 private _totalSupply;\n\n    /**\n     * @dev See `IERC20.totalSupply`.\n     */\n    function totalSupply() public view returns (uint256) {\n        return _totalSupply;\n    }\n\n    /**\n     * @dev See `IERC20.balanceOf`.\n     */\n    function balanceOf(address account) public view returns (uint256) {\n        return _balances[account];\n    }\n\n    /**\n     * @dev See `IERC20.transfer`.\n     *\n     * Requirements:\n     *\n     * - `recipient` cannot be the zero address.\n     * - the caller must have a balance of at least `amount`.\n     */\n    function transfer(address recipient, uint256 amount) public returns (bool) {\n        _transfer(msg.sender, recipient, amount);\n        return true;\n    }\n\n    /**\n     * @dev See `IERC20.allowance`.\n     */\n    function allowance(address owner, address spender) public view returns (uint256) {\n        return _allowances[owner][spender];\n    }\n\n    /**\n     * @dev See `IERC20.approve`.\n     *\n     * Requirements:\n     *\n     * - `spender` cannot be the zero address.\n     */\n    function approve(address spender, uint256 value) public returns (bool) {\n        _approve(msg.sender, spender, value);\n        return true;\n    }\n\n    /**\n     * @dev See `IERC20.transferFrom`.\n     *\n     * Emits an `Approval` event indicating the updated allowance. This is not\n     * required by the EIP. See the note at the beginning of `ERC20`;\n     *\n     * Requirements:\n     * - `sender` and `recipient` cannot be the zero address.\n     * - `sender` must have a balance of at least `value`.\n     * - the caller must have allowance for `sender`'s tokens of at least\n     * `amount`.\n     */\n    function transferFrom(address sender, address recipient, uint256 amount) public returns (bool) {\n        _transfer(sender, recipient, amount);\n        _approve(sender, msg.sender, _allowances[sender][msg.sender].sub(amount));\n        return true;\n    }\n\n    /**\n     * @dev Atomically increases the allowance granted to `spender` by the caller.\n     *\n     * This is an alternative to `approve` that can be used as a mitigation for\n     * problems described in `IERC20.approve`.\n     *\n     * Emits an `Approval` event indicating the updated allowance.\n     *\n     * Requirements:\n     *\n     * - `spender` cannot be the zero address.\n     */\n    function increaseAllowance(address spender, uint256 addedValue) public returns (bool) {\n        _approve(msg.sender, spender, _allowances[msg.sender][spender].add(addedValue));\n        return true;\n    }\n\n    /**\n     * @dev Atomically decreases the allowance granted to `spender` by the caller.\n     *\n     * This is an alternative to `approve` that can be used as a mitigation for\n     * problems described in `IERC20.approve`.\n     *\n     * Emits an `Approval` event indicating the updated allowance.\n     *\n     * Requirements:\n     *\n     * - `spender` cannot be the zero address.\n     * - `spender` must have allowance for the caller of at least\n     * `subtractedValue`.\n     */\n    function decreaseAllowance(address spender, uint256 subtractedValue) public returns (bool) {\n        _approve(msg.sender, spender, _allowances[msg.sender][spender].sub(subtractedValue));\n        return true;\n    }\n\n    /**\n     * @dev Moves tokens `amount` from `sender` to `recipient`.\n     *\n     * This is internal function is equivalent to `transfer`, and can be used to\n     * e.g. implement automatic token fees, slashing mechanisms, etc.\n     *\n     * Emits a `Transfer` event.\n     *\n     * Requirements:\n     *\n     * - `sender` cannot be the zero address.\n     * - `recipient` cannot be the zero address.\n     * - `sender` must have a balance of at least `amount`.\n     */\n    function _transfer(address sender, address recipient, uint256 amount) internal {\n        require(sender != address(0), \"ERC20: transfer from the zero address\");\n        require(recipient != address(0), \"ERC20: transfer to the zero address\");\n\n        _balances[sender] = _balances[sender].sub(amount);\n        _balances[recipient] = _balances[recipient].add(amount);\n        emit Transfer(sender, recipient, amount);\n    }\n\n    /** @dev Creates `amount` tokens and assigns them to `account`, increasing\n     * the total supply.\n     *\n     * Emits a `Transfer` event with `from` set to the zero address.\n     *\n     * Requirements\n     *\n     * - `to` cannot be the zero address.\n     */\n    function _mint(address account, uint256 amount) internal {\n        require(account != address(0), \"ERC20: mint to the zero address\");\n\n        _totalSupply = _totalSupply.add(amount);\n        _balances[account] = _balances[account].add(amount);\n        emit Transfer(address(0), account, amount);\n    }\n\n     /**\n     * @dev Destoys `amount` tokens from `account`, reducing the\n     * total supply.\n     *\n     * Emits a `Transfer` event with `to` set to the zero address.\n     *\n     * Requirements\n     *\n     * - `account` cannot be the zero address.\n     * - `account` must have at least `amount` tokens.\n     */\n    function _burn(address account, uint256 value) internal {\n        require(account != address(0), \"ERC20: burn from the zero address\");\n\n        _totalSupply = _totalSupply.sub(value);\n        _balances[account] = _balances[account].sub(value);\n        emit Transfer(account, address(0), value);\n    }\n\n    /**\n     * @dev Sets `amount` as the allowance of `spender` over the `owner`s tokens.\n     *\n     * This is internal function is equivalent to `approve`, and can be used to\n     * e.g. set automatic allowances for certain subsystems, etc.\n     *\n     * Emits an `Approval` event.\n     *\n     * Requirements:\n     *\n     * - `owner` cannot be the zero address.\n     * - `spender` cannot be the zero address.\n     */\n    function _approve(address owner, address spender, uint256 value) internal {\n        require(owner != address(0), \"ERC20: approve from the zero address\");\n        require(spender != address(0), \"ERC20: approve to the zero address\");\n\n        _allowances[owner][spender] = value;\n        emit Approval(owner, spender, value);\n    }\n\n    /**\n     * @dev Destoys `amount` tokens from `account`.`amount` is then deducted\n     * from the caller's allowance.\n     *\n     * See `_burn` and `_approve`.\n     */\n    function _burnFrom(address account, uint256 amount) internal {\n        _burn(account, amount);\n        _approve(account, msg.sender, _allowances[account][msg.sender].sub(amount));\n    }\n}\n\ncontract WETH is ERC20 {\n  event Deposit(address indexed dst, uint256 wad);\n  event Withdrawal(address indexed src, uint256 wad);\n\n  function deposit() public payable;\n\n  function withdraw(uint256 wad) public;\n\n  function withdraw(uint256 wad, address payable user) public;\n}\n\ncontract MaticWETH is WETH {\n  string public name = \"Wrapped Ether\";\n  string public symbol = \"WETH\";\n  uint8  public decimals = 18;\n\n  function deposit() public payable {\n    _mint(msg.sender, msg.value);\n    emit Deposit(msg.sender, msg.value);\n  }\n\n  function withdraw(uint wad) public {\n    require(balanceOf(msg.sender) >= wad);\n    _burn(msg.sender, wad);\n    msg.sender.transfer(wad);\n    emit Withdrawal(msg.sender, wad);\n  }\n\n  function withdraw(uint wad, address payable user) public {\n    require(balanceOf(msg.sender) >= wad);\n    user.transfer(wad);\n    _burn(msg.sender, wad);\n    emit Withdrawal(user, wad);\n  }\n}\n\npragma experimental ABIEncoderV2;\n\n\n\n\n/// @title SocialBet contract\n/// @author Andy Mpondo Black\n/// @notice This contract is used for SocialBet decentralized sports betting platform\n/// @dev This contract interact with WETH ERC-20 token contract\ncontract SocialBet {\n\n    using SafeMath for uint;\n\n    /***************************************************************************\n     *                      Variables, Constants & Enums                       *\n     ***************************************************************************/\n\n    /// @notice Owner of SocialBet smart contract\n    address payable public owner;\n\n    /// @notice token contract for transfers\n    MaticWETH public Token;\n\n    /// @notice Administrators mapping\n    mapping(address => bool) public admins;\n\n    /// @notice Events mapping\n    mapping(uint => Event) public events;\n    /// @notice Offers mapping\n    mapping(uint => Offer) public offers;\n    /// @notice Bets mapping\n    mapping(uint => Bet) public bets;\n    /// @notice Positions mapping\n    mapping(uint => Position) public positions;\n\n    /// @notice Number of events, used to set id of created events\n    uint public m_nbEvents;\n    /// @notice Number of offers, used to set id of created offers\n    uint public m_nbOffers;\n    /// @notice Number of bets, used to set id of created bets\n    uint public m_nbBets;\n    /// @notice Number of positions, used to set id of created positions\n    uint public m_nbPositions;\n\n    /// @notice Minimum ammount to maintain an Offer open to sell\n    uint public m_minAmount = 10000000000000000;\n\n    enum State {OPEN, CLOSE, CANCELED}\n\n    enum Outcome {NULL, CANCELED, HOME, AWAY, DRAW, OVER, UNDER, YES, NO}\n\n    enum BetType {HOMEAWAYDRAW, MONEYLINE, OVERUNDER, POINTSPREAD, BOTHTEAMSCORE, FIRSTTEAMTOSCORE}\n\n    /***************************************************************************\n     *                                 Events                                  *\n     ***************************************************************************/\n\n    /**\n     * Event for new event creation\n     * @param id Id of the created event\n     * @param ipfsAddress Ipfs hash of the created event\n     * @param markets Markets of the created event\n     */\n     event LogNewEvent(uint id, bytes32 ipfsAddress, uint[] markets);\n\n    /**\n     * Event for new markets adding\n     * @param id Id of the event\n     * @param markets Markets added to the event\n     */\n     event LogNewMarkets(uint id, uint[] markets);\n\n    /**\n     * Event for finalized event\n     * @param id Id of the event\n     */\n     event LogResultEvent(uint id);\n\n    /**\n     * Event for canceled event\n     * @param id Id of the event\n     */\n     event LogCancelEvent(uint id);\n\n    /**\n     * Event for new offer creation\n     * @param id Id of the created offer\n     * @param eventId Id of the event\n     * @param marketIndex Index of the market\n     * @param owner Address of the owner\n     * @param amount Amount of the offer\n     * @param price Price of the offer\n     * @param outcome Outcome of the offer\n     * @param timestampExpiration Timestamp of expiration of the offer\n     */\n     event LogNewOffer(uint id, uint indexed eventId, uint indexed marketIndex, address indexed owner, uint amount, uint price, uint outcome, uint timestampExpiration);\n\n    /**\n     * Event for updated offer\n     * @param id Id of the updated offer\n     * @param amount Amount of the offer\n     * @param price Price of the offer\n     */\n     event LogUpdateOffer(uint indexed id, uint amount, uint price);\n\n    /**\n     * Event for new bet creation\n     * @param id Id of the created bet\n     * @param eventId Id of the event\n     * @param marketIndex Index of the market\n     * @param backPosition Id of the back position of the bet\n     * @param layPosition Id of the lay position of the bet\n     * @param amount Amount of the bet\n     * @param outcome Outcome of the bet\n     */\n     event LogNewBet(uint id, uint indexed eventId, uint indexed marketIndex, uint backPosition, uint layPosition, uint amount, uint outcome);\n\n    /**\n     * Event for closed bet\n     * @param id Id of the closed bet\n     */\n     event LogBetClosed(uint id);\n\n    /**\n     * Event for new position creation\n     * @param id Id of the created position\n     * @param betId Id of the bet\n     * @param owner Owner of the position\n     * @param amount Amount of the position\n     */\n     event LogNewPosition(uint id, uint indexed betId, address indexed owner, uint amount);\n\n    /***************************************************************************\n     *                               Structures                                *\n     ***************************************************************************/\n\n     struct Event {\n        uint _id;\n        bytes32 _ipfsAddress;\n        mapping(uint => Market) _markets;\n        State _state;\n    }\n\n    struct Market {\n        BetType _type;\n        bytes10 _data;\n        Outcome _outcome;\n        bool \t_active;\n    }\n\n    struct Offer {\n        uint _id;\n        uint _eventId;\n        uint _marketIndex;\n        address _owner;\n        uint _amount;\n        uint _price;\n        Outcome _outcome;\n        uint _timestampExpiration;\n    }\n\n    struct Bet {\n        uint _id;\n        uint _eventId;\n        uint _marketIndex;\n        uint _backPosition;\n        uint _layPosition;\n        uint _amount;\n        Outcome _outcome;\n        State _state;\n    }\n\n    struct Position {\n        uint _id;\n        uint _betId;\n        address _owner;\n        uint _amount;\n    }\n\n    /***************************************************************************\n     *                                Modifiers                                *\n     ***************************************************************************/\n\n    /// @notice Check that the caller is the owner of the smart contract\n    modifier isOwner() {\n        require(owner == msg.sender, 'Sender it not owner');\n        _;\n    }\n\n    /// @notice Check that the caller have admin rights\n    modifier isAdmin() {\n        require(admins[msg.sender], 'Sender is not an admin');\n        _;\n    }\n\n    /// @notice Check that the event exists and is still open\n    modifier eventAvailable(uint _eventId) {\n        require(_eventId > 0, 'Event id should be greater than 0');\n        require(_eventId <= m_nbEvents, 'Event id does not exist yet');\n        require(uint(events[_eventId]._state) == uint(State.OPEN), 'Event is not open');\n        _;\n    }\n\n    /// @notice Check that the market exists in the selected event\n    modifier marketAvailable(uint _eventId, uint _marketIndex) {\n        require(events[_eventId]._markets[_marketIndex]._active, 'Market is not available');\n        _;\n    }\n\n    /// @notice Check that the offer exists and is still open\n    modifier offerAvailable(uint _offerId) {\n        require(_offerId > 0, 'Offer id should be greater than 0');\n        require(_offerId <= m_nbOffers, 'Offer id does not exist yet');\n        require(offers[_offerId]._timestampExpiration > now, 'Offer is expired');\n        require(uint(events[offers[_offerId]._eventId]._state) == uint(State.OPEN), 'Event is not open');\n        require(offers[_offerId]._amount >= m_minAmount, 'Offer amount is below minimum');\n        require(offers[_offerId]._price >= m_minAmount, 'Offer price is below minimum');\n        require(Token.balanceOf(offers[_offerId]._owner) >= m_minAmount, 'Offer owner balance is below minimum');\n        require(Token.allowance(offers[_offerId]._owner, address(this)) >= m_minAmount, 'Offer owner allowance is below minimum');\n        _;\n    }\n\n    /// @notice Check that the selected outcome is valid for the type of the selected event\n    modifier outcomeValid(uint _eventId, uint _marketIndex, uint _outcome) {\n        if (BetType(_marketIndex) == BetType.HOMEAWAYDRAW) {\n            require(_outcome <= uint(Outcome.DRAW), 'Selected outcome is not valid for HOMEAWAYDRAW market');\n            require(_outcome >= uint(Outcome.HOME), 'Selected outcome is not valid for HOMEAWAYDRAW market');\n        }\n        if (BetType(_marketIndex) == BetType.MONEYLINE) {\n            require(_outcome <= uint(Outcome.AWAY), 'Selected outcome is not valid for MONEYLINE market');\n            require(_outcome >= uint(Outcome.HOME), 'Selected outcome is not valid for MONEYLINE market');\n        }\n        if (BetType(_marketIndex) == BetType.OVERUNDER) {\n            require(_outcome <= uint(Outcome.UNDER), 'Selected outcome is not valid for OVERUNDER market');\n            require(_outcome >= uint(Outcome.OVER), 'Selected outcome is not valid for OVERUNDER market');\n        }\n        if (BetType(_marketIndex) == BetType.POINTSPREAD) {\n            require(_outcome <= uint(Outcome.AWAY), 'Selected outcome is not valid for POINTSPREAD market');\n            require(_outcome >= uint(Outcome.HOME), 'Selected outcome is not valid for POINTSPREAD market');\n        }\n        if (BetType(_marketIndex) == BetType.BOTHTEAMSCORE) {\n            require(_outcome <= uint(Outcome.NO), 'Selected outcome is not valid for BOTHTEAMSCORE market');\n            require(_outcome >= uint(Outcome.YES), 'Selected outcome is not valid for BOTHTEAMSCORE market');\n        }\n        if (BetType(_marketIndex) == BetType.FIRSTTEAMTOSCORE) {\n            require(_outcome <= uint(Outcome.AWAY), 'Selected outcome is not valid for FIRSTTEAMTOSCORE market');\n            require(_outcome >= uint(Outcome.HOME), 'Selected outcome is not valid for FIRSTTEAMTOSCORE market');\n        }\n        _;\n    }\n\n    /***************************************************************************\n     *                               Constructor                               *\n     ***************************************************************************/\n\n    /** \n\t* @notice Constructor, take _tokenAddress\n    * @param _tokenAddress Address of the token used\n    */\n    constructor(address _tokenAddress) public {\n        owner = msg.sender;\n        Token = MaticWETH(_tokenAddress);\n        addAdmin(msg.sender);\n    }\n\n    /***************************************************************************\n     *                             Owner functions                             *\n     ***************************************************************************/\n\n    /**\n\t* @notice Set address as an admin\n\t* @param _addr The address to set as an admin\n\t*/\n    function addAdmin(address _addr) public isOwner {\n        admins[_addr] = true;\n    }\n\n    /**\n    * @notice Remove address from admins\n    * @param _addr The address to unset from admins\n    */\n    function removeAdmin(address _addr) external isOwner {\n        require(_addr != owner, 'Owner can not be removed from admins');\n        admins[_addr] = false;\n    }\n\n    /***************************************************************************\n     *                             Admin functions                             *\n     ***************************************************************************/\n\n    /**\n    * @notice Add new event to smart contract. The details of the event are found in the ipfs address\n    * @param _ipfsAddress Ipfs address containing informations about the Event\n    * @param _markets Markets available for the Event\n    * @param _data Additionnal data about the Markets\n    */\n    function addEvent(\n        bytes32 _ipfsAddress,\n        uint[] calldata _markets,\n        bytes10[] calldata _data\n        ) external isAdmin {\n        uint _id = _addEvent(_ipfsAddress, _markets, _data);\n\n        emit LogNewEvent(_id, _ipfsAddress, _markets);\n    }\n\n    /**\n    * @notice Add new markets to existing event\n    * @param _eventId Id of the Event\n    * @param _markets Markets available for the Event\n    * @param _data Additionnal data about the Markets\n    */\n    function addMarkets(\n        uint _eventId,\n        uint[] calldata _markets,\n        bytes10[] calldata _data\n        ) external isAdmin eventAvailable(_eventId) {\n        _addMarkets(_eventId, _markets, _data);\n\n        emit LogNewMarkets(_eventId, _markets);\n    }\n\n    /**\n    * @notice Set results to an event markets\n    * @param _eventId Id of the Event\n    * @param _markets Markets to set results to\n    * @param _outcomes Outcomes of the Markets\n    */\n    function setEventResult(uint _eventId, uint[] calldata _markets, uint[] calldata _outcomes)\n    external\n    isAdmin\n    eventAvailable(_eventId)\n    {\n        _setEventResult(_eventId, _markets, _outcomes);\n\n        emit LogResultEvent(_eventId);\n    }\n\n    /**\n    * @notice Cancel an event\n    * @param _eventId Id of the Event\n    */\n    function cancelEvent(uint _eventId) \n    external \n    isAdmin\n    eventAvailable(_eventId)\n    {\n        _cancelEvent(_eventId);\n\n        emit LogCancelEvent(_eventId);\n    }\n\n    /***************************************************************************\n     *                            External functions                           *\n     ***************************************************************************/\n\n    /**\n    * @notice Open a new offer\n    * @param _eventId Id of the Event\n    * @param _marketIndex Index of the Market\n    * @param _amount Amount the bookmaker is putting on the Offer\n    * @param _price Price the bookmaker is selling the Offer for\n    * @param _outcome Outcome of the market the bookmaker is opening the Offer on\n    * @param _timestampExpiration timestamp the Offer expires on\n    */\n    function openOffer(\n        uint _eventId,\n        uint _marketIndex,\n        uint _amount,\n        uint _price,\n        uint _outcome,\n        uint _timestampExpiration\n        )\n    external\n    eventAvailable(_eventId)\n    marketAvailable(_eventId, _marketIndex)\n    outcomeValid(_eventId, _marketIndex, _outcome)\n    {\n        require(_price >= m_minAmount, 'Price is below minimum');\n        require(_amount >= m_minAmount, 'Amount is below minimum');\n        require(_timestampExpiration >= now, 'Expiration timestamp is in the past');\n\n        m_nbOffers = m_nbOffers.add(1);\n\n        Offer memory newOffer = Offer(\n            m_nbOffers,\n            _eventId,\n            _marketIndex,\n            msg.sender,\n            _amount,\n            _price,\n            Outcome(_outcome),\n            _timestampExpiration\n            );\n\n        offers[newOffer._id] = newOffer;\n\n        emit LogNewOffer(\n            newOffer._id,\n            newOffer._eventId,\n            newOffer._marketIndex,\n            newOffer._owner,\n            newOffer._amount,\n            newOffer._price,\n            uint(newOffer._outcome),\n            newOffer._timestampExpiration\n            );\n    }\n\n    /**\n    * @notice Close an offer\n    * @param _offerId Id of the Offer\n    */\n    function closeOffer(uint _offerId) external {\n        require(_offerId > 0, 'Offer id should be greater than 0');\n        require(_offerId <= m_nbOffers, 'Offer id does not exist yet');\n        require(offers[_offerId]._owner == msg.sender, 'Offer owner is not sender');\n        require(offers[_offerId]._amount > 0, 'Offer is already closed');\n\n        _closeOffer(_offerId);\n    }\n\n    /**\n    * @notice Buy an offer\n    * @param _offerId Id of the Offer\n    * @param _amount Amount you're buying the Offer with\n    */\n    function buyOffer(uint _offerId, uint _amount)\n    public\n    offerAvailable(_offerId)\n    {\n        require(_amount >= m_minAmount, 'Amount is below minimum');\n        require(Token.balanceOf(msg.sender) >= _amount, 'Amount exceeds sender balance');\n        require(Token.allowance(msg.sender, address(this)) >= _amount, 'Amount exceeds sender allowance');\n\n        Offer memory _offer = offers[_offerId];\n\n        uint _amountBuyer = _amount;\n\n        if ( _offer._price < _amount ) {\n        \t_amountBuyer = _offer._price;\n        }\n\n        uint _amountOfferToBet = _offer._amount.mul(_amountBuyer).div(_offer._price);\n\n        uint _balanceOwner = Token.balanceOf(_offer._owner);\n        uint _allowanceOwner = Token.allowance(_offer._owner, address(this));\n\n        uint _amountAvailableOwner = _balanceOwner > _allowanceOwner ? _allowanceOwner : _balanceOwner;\n\n        if( _amountAvailableOwner < _amountOfferToBet ) {\n        \t_amountOfferToBet = _amountAvailableOwner;\n        \t_amountBuyer = _amountOfferToBet.mul(_offer._price).div(_offer._amount);\n        }\n        \n        uint _restAmountOffer = _offer._amount.sub(_amountOfferToBet);\n        uint _restPriceOffer = _restAmountOffer.mul(_offer._price).div(_offer._amount);\n\n        Token.transferFrom(msg.sender, address(this), _amountBuyer);\n        Token.transferFrom(_offer._owner, address(this), _amountOfferToBet);\n\n        m_nbBets = m_nbBets.add(1);\n\n        Bet memory _newBet;\n        _newBet._id = m_nbBets;\n        _newBet._eventId = _offer._eventId;\n        _newBet._marketIndex = _offer._marketIndex;\n        _newBet._outcome = _offer._outcome;\n        _newBet._state = State.OPEN;\n\n        Position memory backPosition = _createPosition(\n            _newBet._id,\n            msg.sender,\n            _amountBuyer\n            );\n        Position memory layPosition = _createPosition(\n            _newBet._id,\n            _offer._owner,\n            _amountOfferToBet\n            );\n\n        _newBet._backPosition = backPosition._id;\n        _newBet._layPosition = layPosition._id;\n        _newBet._amount = backPosition._amount + layPosition._amount;\n\n        bets[m_nbBets] = _newBet;\n\n        emit LogNewBet(\n            _newBet._id,\n            _newBet._eventId,\n            _newBet._marketIndex,\n            _newBet._backPosition,\n            _newBet._layPosition,\n            _newBet._amount,\n            uint(_newBet._outcome)\n            );\n\n        offers[_offer._id]._amount = _restAmountOffer;\n        offers[_offer._id]._price = _restPriceOffer;\n\n        if (_restAmountOffer < m_minAmount || _restPriceOffer < m_minAmount) {\n            _closeOffer(_offer._id);\n        }\n        else {\n            emit LogUpdateOffer(_offerId, _restAmountOffer, _restPriceOffer);\n        }\n    }\n\n    /**\n    * @notice Buy multiple offers\n    * @param _offerIds Offers to buy\n    * @param _amount Amount you're buying the Offers with\n    */\n    function buyOfferBulk(\n        uint[] calldata _offerIds,\n        uint _amount\n        ) external {\n        require(_amount >= m_minAmount, 'Amount is below minimum');\n        require(Token.balanceOf(msg.sender) >= _amount, 'Amount exceeds sender balance');\n        require(Token.allowance(msg.sender, address(this)) >= _amount, 'Amount exceeds sender allowance');\n\n        uint _length = _offerIds.length;\n        uint _restAmount = _amount;\n        uint _offerAmount;\n        uint _offerId;\n\n        for (uint i = 0; i < _length; i++) {\n            if (_restAmount < m_minAmount) {\n                break;\n            }\n\n            _offerId = _offerIds[i];\n\n            if (offers[_offerId]._price <= _restAmount) {\n                _offerAmount = offers[_offerId]._price;\n                } else {\n                    _offerAmount = _restAmount;\n                }\n\n                buyOffer(_offerId, _offerAmount);\n\n                _restAmount = _restAmount.sub(_offerAmount);\n            }\n        }\n\n    /**\n    * @notice Close a bet and send earnings to winner\n    * @param _betId Id of the Bet to close\n    */\n    function claimBetEarnings(uint _betId) external {\n        require(_betId > 0, 'Bet id should be greater than 0');\n        require(_betId <= m_nbBets, 'Bet id does not exist');\n        require(uint(bets[_betId]._state) == uint(State.OPEN), 'Bet is not open');\n        require(uint(events[bets[_betId]._eventId]._state) > uint(State.OPEN), 'Event is still open');\n\n        Bet memory _bet = bets[_betId];\n        Event storage _event = events[_bet._eventId];\n\n        if (uint(_event._state) == uint(State.CANCELED)) {\n            Token.transfer(positions[_bet._backPosition]._owner, positions[_bet._backPosition]._amount);\n            Token.transfer(positions[_bet._layPosition]._owner, positions[_bet._layPosition]._amount);\n        } \n        else {\n            if (_event._markets[_bet._marketIndex]._outcome == _bet._outcome) {\n                Token.transfer(positions[_bet._backPosition]._owner, _bet._amount);\n            } \n            else if (_event._markets[_bet._marketIndex]._outcome != _bet._outcome) {\n                Token.transfer(positions[_bet._layPosition]._owner, _bet._amount);\n            }\n        }\n\n        _bet._state = State.CLOSE;\n        bets[_bet._id] = _bet;\n\n        emit LogBetClosed(_bet._id);\n    }\n\n    /**\n    * @notice Returns a market\n    * @param _eventId Id of the Event\n    * @param _marketIndex Index of the Market\n    */\n    function getMarket(uint _eventId, uint _marketIndex) public view returns (Market memory) {\n        return events[_eventId]._markets[_marketIndex];\n    }\n\n    /***************************************************************************\n     *                             Private functions                           *\n     ***************************************************************************/\n\n    /**\n    * @notice Private function that create an Event and add it to the mapping\n    * @param _ipfsAddress Ipfs address containing informations about the Event\n    * @param _markets Markets available for the Event\n    * @param _data Additionnal data about the Markets\n    */\n    function _addEvent(\n        bytes32 _ipfsAddress,\n        uint[] memory _markets,\n        bytes10[] memory _data\n        ) private returns (uint _id) {\n        m_nbEvents = m_nbEvents.add(1);\n\n        Event memory newEvent;\n        newEvent._id = m_nbEvents;\n        newEvent._ipfsAddress = _ipfsAddress;\n        newEvent._state = State.OPEN;\n\n        events[newEvent._id] = newEvent;\n\n        _addMarkets(newEvent._id, _markets, _data);\n\n        _id = m_nbEvents;\n    }\n\n    /**\n    * @notice Private function that add new markets to existing event\n    * @param _eventId Id of the Event\n    * @param _markets Markets available for the Event\n    * @param _data Additionnal data about the Markets\n    */\n    function _addMarkets(\n        uint _eventId,\n        uint[] memory _markets,\n        bytes10[] memory _data\n        ) private {\n        for (uint i = 0; i < _markets.length; i++) {\n            events[_eventId]._markets[_markets[i]] = (Market(\n                BetType(_markets[i]),\n                _data[i],\n                Outcome.NULL,\n                true\n                ));\n        }\n    }\n\n    /**\n    * @notice Private function that set results to an event markets\n    * @param _eventId Id of the Event\n    * @param _markets Markets to set results to\n    * @param _outcomes Outcomes of the Markets\n    */\n    function _setEventResult(uint _eventId, uint[] memory _markets, uint[] memory _outcomes) private {\n        Event storage _event = events[_eventId];\n\n        if (uint(_event._state) == uint(State.OPEN)) {\n            for (uint i = 0; i < _markets.length; i++) {\n                _event._markets[_markets[i]]._outcome = Outcome(_outcomes[i]);\n            }\n            _event._state = State.CLOSE;\n        }\n    }\n\n    /**\n    * @notice Private function that cancel an event\n    * @param _eventId Id of the Event\n    */\n    function _cancelEvent(uint _eventId) private {\n        Event memory _event = events[_eventId];\n\n        _event._state = State.CANCELED;\n\n        events[_event._id] = _event;\n    }\n\n    /**\n    * @notice Private function that close an offer\n    * @param _offerId Id of the Offer\n    */\n    function _closeOffer(uint _offerId) private {\n        offers[_offerId]._amount = 0;\n        offers[_offerId]._price = 0;\n\n        emit LogUpdateOffer(_offerId, offers[_offerId]._amount, offers[_offerId]._price);\n    }\n\n    /**\n    * @notice Private function that create a Position and add it to the mapping \n    * @param _betId Id of the related Bet\n    * @param _owner Owner of the Position\n    * @param _amount Amount of the Position\n    */\n    function _createPosition(\n        uint _betId,\n        address _owner,\n        uint _amount\n        ) private returns (Position memory newPosition) {\n        m_nbPositions = m_nbPositions.add(1);\n\n        newPosition = Position(m_nbPositions, _betId, _owner, _amount);\n\n        positions[newPosition._id] = newPosition;\n\n        _logNewPosition(newPosition);\n    }\n\n    /**\n    * @notice Emits the logNewPosition event  \n    * @param _newPosition Position to log\n    */\n    function _logNewPosition(Position memory _newPosition) private {\n        emit LogNewPosition(\n            _newPosition._id,\n            _newPosition._betId,\n            _newPosition._owner,\n            _newPosition._amount\n            );\n    }\n}",
  "sourcePath": "/Volumes/MacintoshHD/Users/Andy/projects/0_bet/bet-ethereum/contracts/SocialBet_merged.sol",
  "compiler": {
    "name": "solc",
    "version": "0.5.8+commit.23d335f2.Emscripten.clang"
  },
  "schemaVersion": "3.0.11",
  "updatedAt": "2019-07-23T10:58:23.185Z",
  "devdoc": {
    "methods": {
      "allowance(address,address)": {
        "details": "See `IERC20.allowance`."
      },
      "approve(address,uint256)": {
        "details": "See `IERC20.approve`.     * Requirements:     * - `spender` cannot be the zero address."
      },
      "balanceOf(address)": {
        "details": "See `IERC20.balanceOf`."
      },
      "decreaseAllowance(address,uint256)": {
        "details": "Atomically decreases the allowance granted to `spender` by the caller.     * This is an alternative to `approve` that can be used as a mitigation for problems described in `IERC20.approve`.     * Emits an `Approval` event indicating the updated allowance.     * Requirements:     * - `spender` cannot be the zero address. - `spender` must have allowance for the caller of at least `subtractedValue`."
      },
      "increaseAllowance(address,uint256)": {
        "details": "Atomically increases the allowance granted to `spender` by the caller.     * This is an alternative to `approve` that can be used as a mitigation for problems described in `IERC20.approve`.     * Emits an `Approval` event indicating the updated allowance.     * Requirements:     * - `spender` cannot be the zero address."
      },
      "totalSupply()": {
        "details": "See `IERC20.totalSupply`."
      },
      "transfer(address,uint256)": {
        "details": "See `IERC20.transfer`.     * Requirements:     * - `recipient` cannot be the zero address. - the caller must have a balance of at least `amount`."
      },
      "transferFrom(address,address,uint256)": {
        "details": "See `IERC20.transferFrom`.     * Emits an `Approval` event indicating the updated allowance. This is not required by the EIP. See the note at the beginning of `ERC20`;     * Requirements: - `sender` and `recipient` cannot be the zero address. - `sender` must have a balance of at least `value`. - the caller must have allowance for `sender`'s tokens of at least `amount`."
      }
    }
  },
  "userdoc": {
    "methods": {}
  }
}