{
  "contractName": "SocialBet",
  "abi": [
    {
      "constant": true,
      "inputs": [
        {
          "name": "",
          "type": "uint256"
        }
      ],
      "name": "events",
      "outputs": [
        {
          "name": "_id",
          "type": "uint256"
        },
        {
          "name": "_ipfsAddress",
          "type": "bytes32"
        },
        {
          "name": "_state",
          "type": "uint8"
        }
      ],
      "payable": false,
      "stateMutability": "view",
      "type": "function"
    },
    {
      "constant": true,
      "inputs": [
        {
          "name": "",
          "type": "uint256"
        }
      ],
      "name": "bets",
      "outputs": [
        {
          "name": "_id",
          "type": "uint256"
        },
        {
          "name": "_eventId",
          "type": "uint256"
        },
        {
          "name": "_marketIndex",
          "type": "uint256"
        },
        {
          "name": "_backPosition",
          "type": "uint256"
        },
        {
          "name": "_layPosition",
          "type": "uint256"
        },
        {
          "name": "_amount",
          "type": "uint256"
        },
        {
          "name": "_outcome",
          "type": "uint8"
        },
        {
          "name": "_state",
          "type": "uint8"
        }
      ],
      "payable": false,
      "stateMutability": "view",
      "type": "function"
    },
    {
      "constant": true,
      "inputs": [
        {
          "name": "",
          "type": "address"
        }
      ],
      "name": "admins",
      "outputs": [
        {
          "name": "",
          "type": "bool"
        }
      ],
      "payable": false,
      "stateMutability": "view",
      "type": "function"
    },
    {
      "constant": true,
      "inputs": [],
      "name": "m_nbPositions",
      "outputs": [
        {
          "name": "",
          "type": "uint256"
        }
      ],
      "payable": false,
      "stateMutability": "view",
      "type": "function"
    },
    {
      "constant": true,
      "inputs": [
        {
          "name": "",
          "type": "uint256"
        }
      ],
      "name": "offers",
      "outputs": [
        {
          "name": "_id",
          "type": "uint256"
        },
        {
          "name": "_eventId",
          "type": "uint256"
        },
        {
          "name": "_marketIndex",
          "type": "uint256"
        },
        {
          "name": "_owner",
          "type": "address"
        },
        {
          "name": "_amount",
          "type": "uint256"
        },
        {
          "name": "_price",
          "type": "uint256"
        },
        {
          "name": "_outcome",
          "type": "uint8"
        },
        {
          "name": "_timestampExpiration",
          "type": "uint256"
        }
      ],
      "payable": false,
      "stateMutability": "view",
      "type": "function"
    },
    {
      "constant": true,
      "inputs": [],
      "name": "owner",
      "outputs": [
        {
          "name": "",
          "type": "address"
        }
      ],
      "payable": false,
      "stateMutability": "view",
      "type": "function"
    },
    {
      "constant": true,
      "inputs": [],
      "name": "m_nbBets",
      "outputs": [
        {
          "name": "",
          "type": "uint256"
        }
      ],
      "payable": false,
      "stateMutability": "view",
      "type": "function"
    },
    {
      "constant": true,
      "inputs": [
        {
          "name": "",
          "type": "uint256"
        }
      ],
      "name": "positions",
      "outputs": [
        {
          "name": "_id",
          "type": "uint256"
        },
        {
          "name": "_betId",
          "type": "uint256"
        },
        {
          "name": "_owner",
          "type": "address"
        },
        {
          "name": "_amount",
          "type": "uint256"
        }
      ],
      "payable": false,
      "stateMutability": "view",
      "type": "function"
    },
    {
      "constant": true,
      "inputs": [],
      "name": "m_minAmount",
      "outputs": [
        {
          "name": "",
          "type": "uint256"
        }
      ],
      "payable": false,
      "stateMutability": "view",
      "type": "function"
    },
    {
      "constant": true,
      "inputs": [],
      "name": "m_nbOffers",
      "outputs": [
        {
          "name": "",
          "type": "uint256"
        }
      ],
      "payable": false,
      "stateMutability": "view",
      "type": "function"
    },
    {
      "constant": true,
      "inputs": [],
      "name": "Token",
      "outputs": [
        {
          "name": "",
          "type": "address"
        }
      ],
      "payable": false,
      "stateMutability": "view",
      "type": "function"
    },
    {
      "constant": true,
      "inputs": [],
      "name": "m_nbEvents",
      "outputs": [
        {
          "name": "",
          "type": "uint256"
        }
      ],
      "payable": false,
      "stateMutability": "view",
      "type": "function"
    },
    {
      "inputs": [
        {
          "name": "_tokenAddress",
          "type": "address"
        }
      ],
      "payable": false,
      "stateMutability": "nonpayable",
      "type": "constructor"
    },
    {
      "anonymous": false,
      "inputs": [
        {
          "indexed": false,
          "name": "id",
          "type": "uint256"
        },
        {
          "indexed": false,
          "name": "ipfsAddress",
          "type": "bytes32"
        },
        {
          "indexed": false,
          "name": "markets",
          "type": "uint256[]"
        }
      ],
      "name": "LogNewEvent",
      "type": "event"
    },
    {
      "anonymous": false,
      "inputs": [
        {
          "indexed": false,
          "name": "id",
          "type": "uint256"
        },
        {
          "indexed": false,
          "name": "markets",
          "type": "uint256[]"
        }
      ],
      "name": "LogNewMarkets",
      "type": "event"
    },
    {
      "anonymous": false,
      "inputs": [
        {
          "indexed": false,
          "name": "id",
          "type": "uint256"
        }
      ],
      "name": "LogResultEvent",
      "type": "event"
    },
    {
      "anonymous": false,
      "inputs": [
        {
          "indexed": false,
          "name": "id",
          "type": "uint256"
        }
      ],
      "name": "LogCancelEvent",
      "type": "event"
    },
    {
      "anonymous": false,
      "inputs": [
        {
          "indexed": false,
          "name": "id",
          "type": "uint256"
        },
        {
          "indexed": true,
          "name": "eventId",
          "type": "uint256"
        },
        {
          "indexed": true,
          "name": "marketIndex",
          "type": "uint256"
        },
        {
          "indexed": true,
          "name": "owner",
          "type": "address"
        },
        {
          "indexed": false,
          "name": "amount",
          "type": "uint256"
        },
        {
          "indexed": false,
          "name": "price",
          "type": "uint256"
        },
        {
          "indexed": false,
          "name": "outcome",
          "type": "uint256"
        },
        {
          "indexed": false,
          "name": "timestampExpiration",
          "type": "uint256"
        }
      ],
      "name": "LogNewOffer",
      "type": "event"
    },
    {
      "anonymous": false,
      "inputs": [
        {
          "indexed": true,
          "name": "id",
          "type": "uint256"
        },
        {
          "indexed": false,
          "name": "amount",
          "type": "uint256"
        },
        {
          "indexed": false,
          "name": "price",
          "type": "uint256"
        }
      ],
      "name": "LogUpdateOffer",
      "type": "event"
    },
    {
      "anonymous": false,
      "inputs": [
        {
          "indexed": false,
          "name": "id",
          "type": "uint256"
        },
        {
          "indexed": true,
          "name": "eventId",
          "type": "uint256"
        },
        {
          "indexed": true,
          "name": "marketIndex",
          "type": "uint256"
        },
        {
          "indexed": false,
          "name": "backPosition",
          "type": "uint256"
        },
        {
          "indexed": false,
          "name": "layPosition",
          "type": "uint256"
        },
        {
          "indexed": false,
          "name": "amount",
          "type": "uint256"
        },
        {
          "indexed": false,
          "name": "outcome",
          "type": "uint256"
        }
      ],
      "name": "LogNewBet",
      "type": "event"
    },
    {
      "anonymous": false,
      "inputs": [
        {
          "indexed": false,
          "name": "id",
          "type": "uint256"
        }
      ],
      "name": "LogBetClosed",
      "type": "event"
    },
    {
      "anonymous": false,
      "inputs": [
        {
          "indexed": false,
          "name": "id",
          "type": "uint256"
        },
        {
          "indexed": true,
          "name": "betId",
          "type": "uint256"
        },
        {
          "indexed": true,
          "name": "owner",
          "type": "address"
        },
        {
          "indexed": false,
          "name": "amount",
          "type": "uint256"
        }
      ],
      "name": "LogNewPosition",
      "type": "event"
    },
    {
      "constant": false,
      "inputs": [
        {
          "name": "_addr",
          "type": "address"
        }
      ],
      "name": "addAdmin",
      "outputs": [],
      "payable": false,
      "stateMutability": "nonpayable",
      "type": "function"
    },
    {
      "constant": false,
      "inputs": [
        {
          "name": "_addr",
          "type": "address"
        }
      ],
      "name": "removeAdmin",
      "outputs": [],
      "payable": false,
      "stateMutability": "nonpayable",
      "type": "function"
    },
    {
      "constant": false,
      "inputs": [
        {
          "name": "_ipfsAddress",
          "type": "bytes32"
        },
        {
          "name": "_markets",
          "type": "uint256[]"
        },
        {
          "name": "_data",
          "type": "bytes10[]"
        }
      ],
      "name": "addEvent",
      "outputs": [],
      "payable": false,
      "stateMutability": "nonpayable",
      "type": "function"
    },
    {
      "constant": false,
      "inputs": [
        {
          "name": "_eventId",
          "type": "uint256"
        },
        {
          "name": "_markets",
          "type": "uint256[]"
        },
        {
          "name": "_data",
          "type": "bytes10[]"
        }
      ],
      "name": "addMarkets",
      "outputs": [],
      "payable": false,
      "stateMutability": "nonpayable",
      "type": "function"
    },
    {
      "constant": false,
      "inputs": [
        {
          "name": "_eventId",
          "type": "uint256"
        },
        {
          "name": "_markets",
          "type": "uint256[]"
        },
        {
          "name": "_outcomes",
          "type": "uint256[]"
        }
      ],
      "name": "setEventResult",
      "outputs": [],
      "payable": false,
      "stateMutability": "nonpayable",
      "type": "function"
    },
    {
      "constant": false,
      "inputs": [
        {
          "name": "_eventId",
          "type": "uint256"
        }
      ],
      "name": "cancelEvent",
      "outputs": [],
      "payable": false,
      "stateMutability": "nonpayable",
      "type": "function"
    },
    {
      "constant": false,
      "inputs": [
        {
          "name": "_eventId",
          "type": "uint256"
        },
        {
          "name": "_marketIndex",
          "type": "uint256"
        },
        {
          "name": "_amount",
          "type": "uint256"
        },
        {
          "name": "_price",
          "type": "uint256"
        },
        {
          "name": "_outcome",
          "type": "uint256"
        },
        {
          "name": "_timestampExpiration",
          "type": "uint256"
        }
      ],
      "name": "openOffer",
      "outputs": [],
      "payable": false,
      "stateMutability": "nonpayable",
      "type": "function"
    },
    {
      "constant": false,
      "inputs": [
        {
          "name": "_offerId",
          "type": "uint256"
        }
      ],
      "name": "closeOffer",
      "outputs": [],
      "payable": false,
      "stateMutability": "nonpayable",
      "type": "function"
    },
    {
      "constant": false,
      "inputs": [
        {
          "name": "_offerId",
          "type": "uint256"
        },
        {
          "name": "_amount",
          "type": "uint256"
        }
      ],
      "name": "buyOffer",
      "outputs": [],
      "payable": false,
      "stateMutability": "nonpayable",
      "type": "function"
    },
    {
      "constant": false,
      "inputs": [
        {
          "name": "_offerIds",
          "type": "uint256[]"
        },
        {
          "name": "_amount",
          "type": "uint256"
        }
      ],
      "name": "buyOfferBulk",
      "outputs": [],
      "payable": false,
      "stateMutability": "nonpayable",
      "type": "function"
    },
    {
      "constant": false,
      "inputs": [
        {
          "name": "_betId",
          "type": "uint256"
        }
      ],
      "name": "claimBetEarnings",
      "outputs": [],
      "payable": false,
      "stateMutability": "nonpayable",
      "type": "function"
    },
    {
      "constant": true,
      "inputs": [
        {
          "name": "_eventId",
          "type": "uint256"
        },
        {
          "name": "_marketIndex",
          "type": "uint256"
        }
      ],
      "name": "getMarket",
      "outputs": [
        {
          "components": [
            {
              "name": "_type",
              "type": "uint8"
            },
            {
              "name": "_data",
              "type": "bytes10"
            },
            {
              "name": "_outcome",
              "type": "uint8"
            },
            {
              "name": "_active",
              "type": "bool"
            }
          ],
          "name": "",
          "type": "tuple"
        }
      ],
      "payable": false,
      "stateMutability": "view",
      "type": "function"
    }
  ],
  "bytecode": "0x6080604052662386f26fc10000600b553480156200001c57600080fd5b5060405160208062005c7283398101806040526200003e9190810190620001db565b336000806101000a81548173ffffffffffffffffffffffffffffffffffffffff021916908373ffffffffffffffffffffffffffffffffffffffff16021790555080600160006101000a81548173ffffffffffffffffffffffffffffffffffffffff021916908373ffffffffffffffffffffffffffffffffffffffff160217905550620000d033620000d760201b60201c565b50620002ca565b3373ffffffffffffffffffffffffffffffffffffffff166000809054906101000a900473ffffffffffffffffffffffffffffffffffffffff1673ffffffffffffffffffffffffffffffffffffffff161462000169576040517f08c379a0000000000000000000000000000000000000000000000000000000008152600401620001609062000249565b60405180910390fd5b6001600260008373ffffffffffffffffffffffffffffffffffffffff1673ffffffffffffffffffffffffffffffffffffffff16815260200190815260200160002060006101000a81548160ff02191690831515021790555050565b600081519050620001d581620002b0565b92915050565b600060208284031215620001ee57600080fd5b6000620001fe84828501620001c4565b91505092915050565b6000620002166013836200026b565b91507f53656e646572206974206e6f74206f776e6572000000000000000000000000006000830152602082019050919050565b60006020820190508181036000830152620002648162000207565b9050919050565b600082825260208201905092915050565b6000620002898262000290565b9050919050565b600073ffffffffffffffffffffffffffffffffffffffff82169050919050565b620002bb816200027c565b8114620002c757600080fd5b50565b61599880620002da6000396000f3fe608060405234801561001057600080fd5b50600436106101585760003560e01c80638da5cb5b116100c3578063c24126761161007c578063c2412676146103d6578063d2a3dcdc146103f4578063d9b210a614610410578063e581da421461042e578063f10e8a211461044a578063f605a8471461046657610158565b80638da5cb5b1461030f5780638fcafc341461032d57806399fbab881461034b578063abcf184c1461037e578063bdbd84df1461039c578063befe00bd146103ba57610158565b8063310a6c5811610115578063310a6c58146102365780633f69babd14610252578063429b62e51461026e5780634fcdea201461029e57806370480275146102bc5780638a72ea6a146102d857610158565b8063034db1d01461015d57806305477ddf146101795780630b7914301461019557806315899420146101c75780631785f53c146101e357806322af00fa146101ff575b600080fd5b610177600480360361017291908101906140f0565b610496565b005b610193600480360361018e919081019061409e565b6106f7565b005b6101af60048036036101aa919081019061409e565b610888565b6040516101be9392919061555d565b60405180910390f35b6101e160048036036101dc9190810190613f94565b6108bf565b005b6101fd60048036036101f89190810190613f6b565b610b97565b005b6102196004803603610214919081019061409e565b610d11565b60405161022d9897969594939291906156d3565b60405180910390f35b610250600480360361024b9190810190614179565b610d73565b005b61026c6004803603610267919081019061409e565b610fd0565b005b61028860048036036102839190810190613f6b565b6111a5565b604051610295919061501f565b60405180910390f35b6102a66111c5565b6040516102b391906154d0565b60405180910390f35b6102d660048036036102d19190810190613f6b565b6111cb565b005b6102f260048036036102ed919081019061409e565b6112b5565b604051610306989796959493929190615602565b60405180910390f35b61031761132a565b6040516103249190614f1b565b60405180910390f35b61033561134f565b60405161034291906154d0565b60405180910390f35b6103656004803603610360919081019061409e565b611355565b60405161037594939291906155bd565b60405180910390f35b6103866113a5565b60405161039391906154d0565b60405180910390f35b6103a46113ab565b6040516103b191906154d0565b60405180910390f35b6103d460048036036103cf9190810190614202565b6113b1565b005b6103de61219e565b6040516103eb919061503a565b60405180910390f35b61040e6004803603610409919081019061409e565b6121c4565b005b6104186129f5565b60405161042591906154d0565b60405180910390f35b61044860048036036104439190810190614015565b6129fb565b005b610464600480360361045f919081019061423e565b612b5d565b005b610480600480360361047b9190810190614202565b613446565b60405161048d91906154b5565b60405180910390f35b600260003373ffffffffffffffffffffffffffffffffffffffff1673ffffffffffffffffffffffffffffffffffffffff16815260200190815260200160002060009054906101000a900460ff16610522576040517f08c379a000000000000000000000000000000000000000000000000000000000815260040161051990615475565b60405180910390fd5b8460008111610566576040517f08c379a000000000000000000000000000000000000000000000000000000000815260040161055d906152d5565b60405180910390fd5b6007548111156105ab576040517f08c379a00000000000000000000000000000000000000000000000000000000081526004016105a290615115565b60405180910390fd5b600060028111156105b857fe5b6003600083815260200190815260200160002060030160009054906101000a900460ff1660028111156105e757fe5b14610627576040517f08c379a000000000000000000000000000000000000000000000000000000000815260040161061e90615075565b60405180910390fd5b6106b486868680806020026020016040519081016040528093929190818152602001838360200280828437600081840152601f19601f82011690508083019250505050505050858580806020026020016040519081016040528093929190818152602001838360200280828437600081840152601f19601f82011690508083019250505050505050613546565b7f83a57d64c7140437012fbf71b05fbb1a7bc4e7ae61290fa863966646a422fe768686866040516106e7939291906154eb565b60405180910390a1505050505050565b6000811161073a576040517f08c379a0000000000000000000000000000000000000000000000000000000008152600401610731906153d5565b60405180910390fd5b60085481111561077f576040517f08c379a000000000000000000000000000000000000000000000000000000000815260040161077690615435565b60405180910390fd5b3373ffffffffffffffffffffffffffffffffffffffff166004600083815260200190815260200160002060030160009054906101000a900473ffffffffffffffffffffffffffffffffffffffff1673ffffffffffffffffffffffffffffffffffffffff1614610823576040517f08c379a000000000000000000000000000000000000000000000000000000000815260040161081a90615415565b60405180910390fd5b600060046000838152602001908152602001600020600401541161087c576040517f08c379a000000000000000000000000000000000000000000000000000000000815260040161087390615275565b60405180910390fd5b610885816136c6565b50565b60036020528060005260406000206000915090508060000154908060010154908060030160009054906101000a900460ff16905083565b600b54811015610904576040517f08c379a00000000000000000000000000000000000000000000000000000000081526004016108fb90615455565b60405180910390fd5b80600160009054906101000a900473ffffffffffffffffffffffffffffffffffffffff1673ffffffffffffffffffffffffffffffffffffffff166370a08231336040518263ffffffff1660e01b81526004016109609190614f00565b60206040518083038186803b15801561097857600080fd5b505afa15801561098c573d6000803e3d6000fd5b505050506040513d601f19601f820116820180604052506109b091908101906140c7565b10156109f1576040517f08c379a00000000000000000000000000000000000000000000000000000000081526004016109e890615175565b60405180910390fd5b80600160009054906101000a900473ffffffffffffffffffffffffffffffffffffffff1673ffffffffffffffffffffffffffffffffffffffff1663dd62ed3e33306040518363ffffffff1660e01b8152600401610a4f929190614f36565b60206040518083038186803b158015610a6757600080fd5b505afa158015610a7b573d6000803e3d6000fd5b505050506040513d601f19601f82011682018060405250610a9f91908101906140c7565b1015610ae0576040517f08c379a0000000000000000000000000000000000000000000000000000000008152600401610ad790615095565b60405180910390fd5b6000838390509050600082905060008060008090505b84811015610b8d57600b54841015610b0d57610b8d565b878782818110610b1957fe5b90506020020135915083600460008481526020019081526020016000206005015411610b5d5760046000838152602001908152602001600020600501549250610b61565b8392505b610b6b82846113b1565b610b7e838561376790919063ffffffff16565b93508080600101915050610af6565b5050505050505050565b3373ffffffffffffffffffffffffffffffffffffffff166000809054906101000a900473ffffffffffffffffffffffffffffffffffffffff1673ffffffffffffffffffffffffffffffffffffffff1614610c26576040517f08c379a0000000000000000000000000000000000000000000000000000000008152600401610c1d906150d5565b60405180910390fd5b6000809054906101000a900473ffffffffffffffffffffffffffffffffffffffff1673ffffffffffffffffffffffffffffffffffffffff168173ffffffffffffffffffffffffffffffffffffffff161415610cb6576040517f08c379a0000000000000000000000000000000000000000000000000000000008152600401610cad906151b5565b60405180910390fd5b6000600260008373ffffffffffffffffffffffffffffffffffffffff1673ffffffffffffffffffffffffffffffffffffffff16815260200190815260200160002060006101000a81548160ff02191690831515021790555050565b60056020528060005260406000206000915090508060000154908060010154908060020154908060030154908060040154908060050154908060060160009054906101000a900460ff16908060060160019054906101000a900460ff16905088565b600260003373ffffffffffffffffffffffffffffffffffffffff1673ffffffffffffffffffffffffffffffffffffffff16815260200190815260200160002060009054906101000a900460ff16610dff576040517f08c379a0000000000000000000000000000000000000000000000000000000008152600401610df690615475565b60405180910390fd5b8460008111610e43576040517f08c379a0000000000000000000000000000000000000000000000000000000008152600401610e3a906152d5565b60405180910390fd5b600754811115610e88576040517f08c379a0000000000000000000000000000000000000000000000000000000008152600401610e7f90615115565b60405180910390fd5b60006002811115610e9557fe5b6003600083815260200190815260200160002060030160009054906101000a900460ff166002811115610ec457fe5b14610f04576040517f08c379a0000000000000000000000000000000000000000000000000000000008152600401610efb90615075565b60405180910390fd5b610f9186868680806020026020016040519081016040528093929190818152602001838360200280828437600081840152601f19601f82011690508083019250505050505050858580806020026020016040519081016040528093929190818152602001838360200280828437600081840152601f19601f820116905080830192505050505050506137bd565b7f6feb41cd6e7361ff5b27cb5a71484afb9dfeda0bd8e2f8255295286ddf9ed9c186604051610fc091906154d0565b60405180910390a1505050505050565b600260003373ffffffffffffffffffffffffffffffffffffffff1673ffffffffffffffffffffffffffffffffffffffff16815260200190815260200160002060009054906101000a900460ff1661105c576040517f08c379a000000000000000000000000000000000000000000000000000000000815260040161105390615475565b60405180910390fd5b80600081116110a0576040517f08c379a0000000000000000000000000000000000000000000000000000000008152600401611097906152d5565b60405180910390fd5b6007548111156110e5576040517f08c379a00000000000000000000000000000000000000000000000000000000081526004016110dc90615115565b60405180910390fd5b600060028111156110f257fe5b6003600083815260200190815260200160002060030160009054906101000a900460ff16600281111561112157fe5b14611161576040517f08c379a000000000000000000000000000000000000000000000000000000000815260040161115890615075565b60405180910390fd5b61116a826138b8565b7f5659144559a842a58e7472643e70d4cd34ef75db0b21038dabc8d4b4f59c30508260405161119991906154d0565b60405180910390a15050565b60026020528060005260406000206000915054906101000a900460ff1681565b600a5481565b3373ffffffffffffffffffffffffffffffffffffffff166000809054906101000a900473ffffffffffffffffffffffffffffffffffffffff1673ffffffffffffffffffffffffffffffffffffffff161461125a576040517f08c379a0000000000000000000000000000000000000000000000000000000008152600401611251906150d5565b60405180910390fd5b6001600260008373ffffffffffffffffffffffffffffffffffffffff1673ffffffffffffffffffffffffffffffffffffffff16815260200190815260200160002060006101000a81548160ff02191690831515021790555050565b60046020528060005260406000206000915090508060000154908060010154908060020154908060030160009054906101000a900473ffffffffffffffffffffffffffffffffffffffff16908060040154908060050154908060060160009054906101000a900460ff16908060070154905088565b6000809054906101000a900473ffffffffffffffffffffffffffffffffffffffff1681565b60095481565b60066020528060005260406000206000915090508060000154908060010154908060020160009054906101000a900473ffffffffffffffffffffffffffffffffffffffff16908060030154905084565b600b5481565b60085481565b81600081116113f5576040517f08c379a00000000000000000000000000000000000000000000000000000000081526004016113ec906153d5565b60405180910390fd5b60085481111561143a576040517f08c379a000000000000000000000000000000000000000000000000000000000815260040161143190615435565b60405180910390fd5b42600460008381526020019081526020016000206007015411611492576040517f08c379a000000000000000000000000000000000000000000000000000000000815260040161148990615395565b60405180910390fd5b6000600281111561149f57fe5b600360006004600085815260200190815260200160002060010154815260200190815260200160002060030160009054906101000a900460ff1660028111156114e457fe5b14611524576040517f08c379a000000000000000000000000000000000000000000000000000000000815260040161151b90615075565b60405180910390fd5b600b546004600083815260200190815260200160002060040154101561157f576040517f08c379a000000000000000000000000000000000000000000000000000000000815260040161157690615255565b60405180910390fd5b600b54600460008381526020019081526020016000206005015410156115da576040517f08c379a00000000000000000000000000000000000000000000000000000000081526004016115d190615215565b60405180910390fd5b600b54600160009054906101000a900473ffffffffffffffffffffffffffffffffffffffff1673ffffffffffffffffffffffffffffffffffffffff166370a082316004600085815260200190815260200160002060030160009054906101000a900473ffffffffffffffffffffffffffffffffffffffff166040518263ffffffff1660e01b815260040161166e9190614ee5565b60206040518083038186803b15801561168657600080fd5b505afa15801561169a573d6000803e3d6000fd5b505050506040513d601f19601f820116820180604052506116be91908101906140c7565b10156116ff576040517f08c379a00000000000000000000000000000000000000000000000000000000081526004016116f690615055565b60405180910390fd5b600b54600160009054906101000a900473ffffffffffffffffffffffffffffffffffffffff1673ffffffffffffffffffffffffffffffffffffffff1663dd62ed3e6004600085815260200190815260200160002060030160009054906101000a900473ffffffffffffffffffffffffffffffffffffffff16306040518363ffffffff1660e01b8152600401611795929190614f96565b60206040518083038186803b1580156117ad57600080fd5b505afa1580156117c1573d6000803e3d6000fd5b505050506040513d601f19601f820116820180604052506117e591908101906140c7565b1015611826576040517f08c379a000000000000000000000000000000000000000000000000000000000815260040161181d906150b5565b60405180910390fd5b600b5482101561186b576040517f08c379a000000000000000000000000000000000000000000000000000000000815260040161186290615455565b60405180910390fd5b81600160009054906101000a900473ffffffffffffffffffffffffffffffffffffffff1673ffffffffffffffffffffffffffffffffffffffff166370a08231336040518263ffffffff1660e01b81526004016118c79190614f00565b60206040518083038186803b1580156118df57600080fd5b505afa1580156118f3573d6000803e3d6000fd5b505050506040513d601f19601f8201168201806040525061191791908101906140c7565b1015611958576040517f08c379a000000000000000000000000000000000000000000000000000000000815260040161194f90615175565b60405180910390fd5b81600160009054906101000a900473ffffffffffffffffffffffffffffffffffffffff1673ffffffffffffffffffffffffffffffffffffffff1663dd62ed3e33306040518363ffffffff1660e01b81526004016119b6929190614f36565b60206040518083038186803b1580156119ce57600080fd5b505afa1580156119e2573d6000803e3d6000fd5b505050506040513d601f19601f82011682018060405250611a0691908101906140c7565b1015611a47576040517f08c379a0000000000000000000000000000000000000000000000000000000008152600401611a3e90615095565b60405180910390fd5b611a4f613ce7565b60046000858152602001908152602001600020604051806101000160405290816000820154815260200160018201548152602001600282015481526020016003820160009054906101000a900473ffffffffffffffffffffffffffffffffffffffff1673ffffffffffffffffffffffffffffffffffffffff1673ffffffffffffffffffffffffffffffffffffffff16815260200160048201548152602001600582015481526020016006820160009054906101000a900460ff166008811115611b1457fe5b6008811115611b1f57fe5b815260200160078201548152505090506000839050838260a001511015611b48578160a0015190505b6000611b778360a00151611b698486608001516139a090919063ffffffff16565b613a1090919063ffffffff16565b90506000600160009054906101000a900473ffffffffffffffffffffffffffffffffffffffff1673ffffffffffffffffffffffffffffffffffffffff166370a0823185606001516040518263ffffffff1660e01b8152600401611bda9190614ee5565b60206040518083038186803b158015611bf257600080fd5b505afa158015611c06573d6000803e3d6000fd5b505050506040513d601f19601f82011682018060405250611c2a91908101906140c7565b90506000600160009054906101000a900473ffffffffffffffffffffffffffffffffffffffff1673ffffffffffffffffffffffffffffffffffffffff1663dd62ed3e8660600151306040518363ffffffff1660e01b8152600401611c8f929190614f96565b60206040518083038186803b158015611ca757600080fd5b505afa158015611cbb573d6000803e3d6000fd5b505050506040513d601f19601f82011682018060405250611cdf91908101906140c7565b90506000818311611cf05782611cf2565b815b905083811015611d2f57809350611d2c8660800151611d1e8860a00151876139a090919063ffffffff16565b613a1090919063ffffffff16565b94505b6000611d4885886080015161376790919063ffffffff16565b90506000611d798860800151611d6b8a60a00151856139a090919063ffffffff16565b613a1090919063ffffffff16565b9050600160009054906101000a900473ffffffffffffffffffffffffffffffffffffffff1673ffffffffffffffffffffffffffffffffffffffff166323b872dd33308a6040518463ffffffff1660e01b8152600401611dda93929190614f5f565b602060405180830381600087803b158015611df457600080fd5b505af1158015611e08573d6000803e3d6000fd5b505050506040513d601f19601f82011682018060405250611e2c9190810190613fec565b50600160009054906101000a900473ffffffffffffffffffffffffffffffffffffffff1673ffffffffffffffffffffffffffffffffffffffff166323b872dd896060015130896040518463ffffffff1660e01b8152600401611e9093929190614fbf565b602060405180830381600087803b158015611eaa57600080fd5b505af1158015611ebe573d6000803e3d6000fd5b505050506040513d601f19601f82011682018060405250611ee29190810190613fec565b50611ef96001600954613a6c90919063ffffffff16565b600981905550611f07613d4d565b600954816000018181525050886020015181602001818152505088604001518160400181815250508860c001518160c001906008811115611f4457fe5b90816008811115611f5157fe5b8152505060008160e001906002811115611f6757fe5b90816002811115611f7457fe5b81525050611f80613da8565b611f8f8260000151338b613ac1565b9050611f99613da8565b611fac83600001518c606001518b613ac1565b90508160000151836060018181525050806000015183608001818152505080606001518260600151018360a001818152505082600560006009548152602001908152602001600020600082015181600001556020820151816001015560408201518160020155606082015181600301556080820151816004015560a0820151816005015560c08201518160060160006101000a81548160ff0219169083600881111561205457fe5b021790555060e08201518160060160016101000a81548160ff0219169083600281111561207d57fe5b0217905550905050826040015183602001517f3ef5d5101849c8390db15bde5a53a0ef5e3a06015177f4e4f74a083a6c5e0b2b8560000151866060015187608001518860a001518960c0015160088111156120d457fe5b6040516120e5959493929190615680565b60405180910390a384600460008d6000015181526020019081526020016000206004018190555083600460008d60000151815260200190815260200160002060050181905550600b5485108061213c5750600b5484105b156121535761214e8b600001516136c6565b61218e565b8d7f5ea42548ff40d620617772fd22184dc535e409eda210646ca0d470648921e5918686604051612185929190615594565b60405180910390a25b5050505050505050505050505050565b600160009054906101000a900473ffffffffffffffffffffffffffffffffffffffff1681565b60008111612207576040517f08c379a00000000000000000000000000000000000000000000000000000000081526004016121fe90615335565b60405180910390fd5b60095481111561224c576040517f08c379a0000000000000000000000000000000000000000000000000000000008152600401612243906152b5565b60405180910390fd5b6000600281111561225957fe5b6005600083815260200190815260200160002060060160019054906101000a900460ff16600281111561228857fe5b146122c8576040517f08c379a00000000000000000000000000000000000000000000000000000000081526004016122bf90615315565b60405180910390fd5b600060028111156122d557fe5b600360006005600085815260200190815260200160002060010154815260200190815260200160002060030160009054906101000a900460ff16600281111561231a57fe5b1161235a576040517f08c379a000000000000000000000000000000000000000000000000000000000815260040161235190615355565b60405180910390fd5b612362613d4d565b60056000838152602001908152602001600020604051806101000160405290816000820154815260200160018201548152602001600282015481526020016003820154815260200160048201548152602001600582015481526020016006820160009054906101000a900460ff1660088111156123db57fe5b60088111156123e657fe5b81526020016006820160019054906101000a900460ff16600281111561240857fe5b600281111561241357fe5b81525050905060006003600083602001518152602001908152602001600020905060028081111561244057fe5b8160030160009054906101000a900460ff16600281111561245d57fe5b141561267057600160009054906101000a900473ffffffffffffffffffffffffffffffffffffffff1673ffffffffffffffffffffffffffffffffffffffff1663a9059cbb600660008560600151815260200190815260200160002060020160009054906101000a900473ffffffffffffffffffffffffffffffffffffffff166006600086606001518152602001908152602001600020600301546040518363ffffffff1660e01b8152600401612514929190614ff6565b602060405180830381600087803b15801561252e57600080fd5b505af1158015612542573d6000803e3d6000fd5b505050506040513d601f19601f820116820180604052506125669190810190613fec565b50600160009054906101000a900473ffffffffffffffffffffffffffffffffffffffff1673ffffffffffffffffffffffffffffffffffffffff1663a9059cbb600660008560800151815260200190815260200160002060020160009054906101000a900473ffffffffffffffffffffffffffffffffffffffff166006600086608001518152602001908152602001600020600301546040518363ffffffff1660e01b8152600401612618929190614ff6565b602060405180830381600087803b15801561263257600080fd5b505af1158015612646573d6000803e3d6000fd5b505050506040513d601f19601f8201168201806040525061266a9190810190613fec565b506128e9565b8160c00151600881111561268057fe5b81600201600084604001518152602001908152602001600020600001600b9054906101000a900460ff1660088111156126b557fe5b14156127ae57600160009054906101000a900473ffffffffffffffffffffffffffffffffffffffff1673ffffffffffffffffffffffffffffffffffffffff1663a9059cbb600660008560600151815260200190815260200160002060020160009054906101000a900473ffffffffffffffffffffffffffffffffffffffff168460a001516040518363ffffffff1660e01b8152600401612756929190614ff6565b602060405180830381600087803b15801561277057600080fd5b505af1158015612784573d6000803e3d6000fd5b505050506040513d601f19601f820116820180604052506127a89190810190613fec565b506128e8565b8160c0015160088111156127be57fe5b81600201600084604001518152602001908152602001600020600001600b9054906101000a900460ff1660088111156127f357fe5b146128e757600160009054906101000a900473ffffffffffffffffffffffffffffffffffffffff1673ffffffffffffffffffffffffffffffffffffffff1663a9059cbb600660008560800151815260200190815260200160002060020160009054906101000a900473ffffffffffffffffffffffffffffffffffffffff168460a001516040518363ffffffff1660e01b8152600401612893929190614ff6565b602060405180830381600087803b1580156128ad57600080fd5b505af11580156128c1573d6000803e3d6000fd5b505050506040513d601f19601f820116820180604052506128e59190810190613fec565b505b5b5b60018260e0019060028111156128fb57fe5b9081600281111561290857fe5b81525050816005600084600001518152602001908152602001600020600082015181600001556020820151816001015560408201518160020155606082015181600301556080820151816004015560a0820151816005015560c08201518160060160006101000a81548160ff0219169083600881111561298457fe5b021790555060e08201518160060160016101000a81548160ff021916908360028111156129ad57fe5b02179055509050507f3cfe31b94fb3243d019e7a065369475e0d7e1db829b5de6685043f38275007bd82600001516040516129e891906154d0565b60405180910390a1505050565b60075481565b600260003373ffffffffffffffffffffffffffffffffffffffff1673ffffffffffffffffffffffffffffffffffffffff16815260200190815260200160002060009054906101000a900460ff16612a87576040517f08c379a0000000000000000000000000000000000000000000000000000000008152600401612a7e90615475565b60405180910390fd5b6000612b1686868680806020026020016040519081016040528093929190818152602001838360200280828437600081840152601f19601f82011690508083019250505050505050858580806020026020016040519081016040528093929190818152602001838360200280828437600081840152601f19601f82011690508083019250505050505050613bb0565b90507f8b6b49aa1acd02b255d510e65edd7f8cdfea08d67550e2157c75b46c730fec2981878787604051612b4d949392919061551d565b60405180910390a1505050505050565b8560008111612ba1576040517f08c379a0000000000000000000000000000000000000000000000000000000008152600401612b98906152d5565b60405180910390fd5b600754811115612be6576040517f08c379a0000000000000000000000000000000000000000000000000000000008152600401612bdd90615115565b60405180910390fd5b60006002811115612bf357fe5b6003600083815260200190815260200160002060030160009054906101000a900460ff166002811115612c2257fe5b14612c62576040517f08c379a0000000000000000000000000000000000000000000000000000000008152600401612c5990615075565b60405180910390fd5b8686600360008381526020019081526020016000206002016000828152602001908152602001600020600001600c9054906101000a900460ff16612cdb576040517f08c379a0000000000000000000000000000000000000000000000000000000008152600401612cd290615135565b60405180910390fd5b88888660006005811115612ceb57fe5b826005811115612cf757fe5b6005811115612d0257fe5b1415612da75760046008811115612d1557fe5b811115612d57576040517f08c379a0000000000000000000000000000000000000000000000000000000008152600401612d4e906151d5565b60405180910390fd5b60026008811115612d6457fe5b811015612da6576040517f08c379a0000000000000000000000000000000000000000000000000000000008152600401612d9d906151d5565b60405180910390fd5b5b60016005811115612db457fe5b826005811115612dc057fe5b6005811115612dcb57fe5b1415612e705760036008811115612dde57fe5b811115612e20576040517f08c379a0000000000000000000000000000000000000000000000000000000008152600401612e1790615295565b60405180910390fd5b60026008811115612e2d57fe5b811015612e6f576040517f08c379a0000000000000000000000000000000000000000000000000000000008152600401612e6690615295565b60405180910390fd5b5b60026005811115612e7d57fe5b826005811115612e8957fe5b6005811115612e9457fe5b1415612f395760066008811115612ea757fe5b811115612ee9576040517f08c379a0000000000000000000000000000000000000000000000000000000008152600401612ee090615495565b60405180910390fd5b60056008811115612ef657fe5b811015612f38576040517f08c379a0000000000000000000000000000000000000000000000000000000008152600401612f2f90615495565b60405180910390fd5b5b60036005811115612f4657fe5b826005811115612f5257fe5b6005811115612f5d57fe5b14156130025760036008811115612f7057fe5b811115612fb2576040517f08c379a0000000000000000000000000000000000000000000000000000000008152600401612fa9906151f5565b60405180910390fd5b60026008811115612fbf57fe5b811015613001576040517f08c379a0000000000000000000000000000000000000000000000000000000008152600401612ff8906151f5565b60405180910390fd5b5b6004600581111561300f57fe5b82600581111561301b57fe5b600581111561302657fe5b14156130ca5760088081111561303857fe5b81111561307a576040517f08c379a0000000000000000000000000000000000000000000000000000000008152600401613071906153f5565b60405180910390fd5b6007600881111561308757fe5b8110156130c9576040517f08c379a00000000000000000000000000000000000000000000000000000000081526004016130c0906153f5565b60405180910390fd5b5b6005808111156130d657fe5b8260058111156130e257fe5b60058111156130ed57fe5b1415613192576003600881111561310057fe5b811115613142576040517f08c379a000000000000000000000000000000000000000000000000000000000815260040161313990615235565b60405180910390fd5b6002600881111561314f57fe5b811015613191576040517f08c379a000000000000000000000000000000000000000000000000000000000815260040161318890615235565b60405180910390fd5b5b600b548910156131d7576040517f08c379a00000000000000000000000000000000000000000000000000000000081526004016131ce90615375565b60405180910390fd5b600b548a101561321c576040517f08c379a000000000000000000000000000000000000000000000000000000000815260040161321390615455565b60405180910390fd5b4287101561325f576040517f08c379a0000000000000000000000000000000000000000000000000000000008152600401613256906153b5565b60405180910390fd5b6132756001600854613a6c90919063ffffffff16565b600881905550613283613ce7565b60405180610100016040528060085481526020018e81526020018d81526020013373ffffffffffffffffffffffffffffffffffffffff1681526020018c81526020018b81526020018a60088111156132d757fe5b60088111156132e257fe5b815260200189815250905080600460008360000151815260200190815260200160002060008201518160000155602082015181600101556040820151816002015560608201518160030160006101000a81548173ffffffffffffffffffffffffffffffffffffffff021916908373ffffffffffffffffffffffffffffffffffffffff1602179055506080820151816004015560a0820151816005015560c08201518160060160006101000a81548160ff021916908360088111156133a257fe5b021790555060e08201518160070155905050806060015173ffffffffffffffffffffffffffffffffffffffff16816040015182602001517fb7de6da7777d765cb972cf5c37014a3d218e39f76a8d57830f47547dc14216f5846000015185608001518660a001518760c00151600881111561341957fe5b8860e0015160405161342f959493929190615680565b60405180910390a450505050505050505050505050565b61344e613de6565b6003600084815260200190815260200160002060020160008381526020019081526020016000206040518060800160405290816000820160009054906101000a900460ff16600581111561349e57fe5b60058111156134a957fe5b81526020016000820160019054906101000a900460b01b75ffffffffffffffffffffffffffffffffffffffffffff191675ffffffffffffffffffffffffffffffffffffffffffff1916815260200160008201600b9054906101000a900460ff16600881111561351457fe5b600881111561351f57fe5b815260200160008201600c9054906101000a900460ff161515151581525050905092915050565b60008090505b82518110156136c057604051806080016040528084838151811061356c57fe5b6020026020010151600581111561357f57fe5b600581111561358a57fe5b815260200183838151811061359b57fe5b602002602001015175ffffffffffffffffffffffffffffffffffffffffffff19168152602001600060088111156135ce57fe5b8152602001600115158152506003600086815260200190815260200160002060020160008584815181106135fe57fe5b6020026020010151815260200190815260200160002060008201518160000160006101000a81548160ff0219169083600581111561363857fe5b021790555060208201518160000160016101000a81548169ffffffffffffffffffff021916908360b01c0217905550604082015181600001600b6101000a81548160ff0219169083600881111561368b57fe5b0217905550606082015181600001600c6101000a81548160ff021916908315150217905550905050808060010191505061354c565b50505050565b6000600460008381526020019081526020016000206004018190555060006004600083815260200190815260200160002060050181905550807f5ea42548ff40d620617772fd22184dc535e409eda210646ca0d470648921e5916004600084815260200190815260200160002060040154600460008581526020019081526020016000206005015460405161375c929190615594565b60405180910390a250565b6000828211156137ac576040517f08c379a00000000000000000000000000000000000000000000000000000000081526004016137a390615155565b60405180910390fd5b600082840390508091505092915050565b6000600360008581526020019081526020016000209050600060028111156137e157fe5b8160030160009054906101000a900460ff1660028111156137fe57fe5b14156138b25760008090505b835181101561388a5782818151811061381f57fe5b6020026020010151600881111561383257fe5b82600201600086848151811061384457fe5b60200260200101518152602001908152602001600020600001600b6101000a81548160ff0219169083600881111561387857fe5b0217905550808060010191505061380a565b5060018160030160006101000a81548160ff021916908360028111156138ac57fe5b02179055505b50505050565b6138c0613e3f565b6003600083815260200190815260200160002060405180606001604052908160008201548152602001600182015481526020016003820160009054906101000a900460ff16600281111561391057fe5b600281111561391b57fe5b81525050905060028160400190600281111561393357fe5b9081600281111561394057fe5b81525050806003600083600001518152602001908152602001600020600082015181600001556020820151816001015560408201518160030160006101000a81548160ff0219169083600281111561399457fe5b02179055509050505050565b6000808314156139b35760009050613a0a565b60008284029050828482816139c457fe5b0414613a05576040517f08c379a00000000000000000000000000000000000000000000000000000000081526004016139fc906152f5565b60405180910390fd5b809150505b92915050565b6000808211613a54576040517f08c379a0000000000000000000000000000000000000000000000000000000008152600401613a4b90615195565b60405180910390fd5b6000828481613a5f57fe5b0490508091505092915050565b600080828401905083811015613ab7576040517f08c379a0000000000000000000000000000000000000000000000000000000008152600401613aae906150f5565b60405180910390fd5b8091505092915050565b613ac9613da8565b613adf6001600a54613a6c90919063ffffffff16565b600a819055506040518060800160405280600a5481526020018581526020018473ffffffffffffffffffffffffffffffffffffffff168152602001838152509050806006600083600001518152602001908152602001600020600082015181600001556020820151816001015560408201518160020160006101000a81548173ffffffffffffffffffffffffffffffffffffffff021916908373ffffffffffffffffffffffffffffffffffffffff16021790555060608201518160030155905050613ba981613c83565b9392505050565b6000613bc86001600754613a6c90919063ffffffff16565b600781905550613bd6613e3f565b60075481600001818152505084816020018181525050600081604001906002811115613bfe57fe5b90816002811115613c0b57fe5b81525050806003600083600001518152602001908152602001600020600082015181600001556020820151816001015560408201518160030160006101000a81548160ff02191690836002811115613c5f57fe5b0217905550905050613c7681600001518585613546565b6007549150509392505050565b806040015173ffffffffffffffffffffffffffffffffffffffff1681602001517f80d39385dad8355dde22faf7d8393287326187fb23b8098047bd405b72765e4183600001518460600151604051613cdc929190615594565b60405180910390a350565b604051806101000160405280600081526020016000815260200160008152602001600073ffffffffffffffffffffffffffffffffffffffff168152602001600081526020016000815260200160006008811115613d4057fe5b8152602001600081525090565b60405180610100016040528060008152602001600081526020016000815260200160008152602001600081526020016000815260200160006008811115613d9057fe5b815260200160006002811115613da257fe5b81525090565b60405180608001604052806000815260200160008152602001600073ffffffffffffffffffffffffffffffffffffffff168152602001600081525090565b604051806080016040528060006005811115613dfe57fe5b8152602001600075ffffffffffffffffffffffffffffffffffffffffffff1916815260200160006008811115613e3057fe5b81526020016000151581525090565b6040518060600160405280600081526020016000801916815260200160006002811115613e6857fe5b81525090565b600081359050613e7d81615902565b92915050565b60008083601f840112613e9557600080fd5b8235905067ffffffffffffffff811115613eae57600080fd5b602083019150836020820283011115613ec657600080fd5b9250929050565b60008083601f840112613edf57600080fd5b8235905067ffffffffffffffff811115613ef857600080fd5b602083019150836020820283011115613f1057600080fd5b9250929050565b600081519050613f2681615919565b92915050565b600081359050613f3b81615930565b92915050565b600081359050613f5081615947565b92915050565b600081519050613f6581615947565b92915050565b600060208284031215613f7d57600080fd5b6000613f8b84828501613e6e565b91505092915050565b600080600060408486031215613fa957600080fd5b600084013567ffffffffffffffff811115613fc357600080fd5b613fcf86828701613ecd565b93509350506020613fe286828701613f41565b9150509250925092565b600060208284031215613ffe57600080fd5b600061400c84828501613f17565b91505092915050565b60008060008060006060868803121561402d57600080fd5b600061403b88828901613f2c565b955050602086013567ffffffffffffffff81111561405857600080fd5b61406488828901613ecd565b9450945050604086013567ffffffffffffffff81111561408357600080fd5b61408f88828901613e83565b92509250509295509295909350565b6000602082840312156140b057600080fd5b60006140be84828501613f41565b91505092915050565b6000602082840312156140d957600080fd5b60006140e784828501613f56565b91505092915050565b60008060008060006060868803121561410857600080fd5b600061411688828901613f41565b955050602086013567ffffffffffffffff81111561413357600080fd5b61413f88828901613ecd565b9450945050604086013567ffffffffffffffff81111561415e57600080fd5b61416a88828901613e83565b92509250509295509295909350565b60008060008060006060868803121561419157600080fd5b600061419f88828901613f41565b955050602086013567ffffffffffffffff8111156141bc57600080fd5b6141c888828901613ecd565b9450945050604086013567ffffffffffffffff8111156141e757600080fd5b6141f388828901613ecd565b92509250509295509295909350565b6000806040838503121561421557600080fd5b600061422385828601613f41565b925050602061423485828601613f41565b9150509250929050565b60008060008060008060c0878903121561425757600080fd5b600061426589828a01613f41565b965050602061427689828a01613f41565b955050604061428789828a01613f41565b945050606061429889828a01613f41565b93505060806142a989828a01613f41565b92505060a06142ba89828a01613f41565b9150509295509295509295565b6142d08161583c565b82525050565b6142df81615785565b82525050565b6142ee81615773565b82525050565b60006143008385615751565b93507f07ffffffffffffffffffffffffffffffffffffffffffffffffffffffffffffff83111561432f57600080fd5b6020830292506143408385846158cc565b82840190509392505050565b61435581615797565b82525050565b61436481615797565b82525050565b614373816157a3565b82525050565b614382816157cf565b82525050565b6143918161584e565b82525050565b6143a081615872565b82525050565b6143af81615884565b82525050565b6143be81615884565b82525050565b6143cd81615896565b82525050565b60006143e0602483615762565b91507f4f66666572206f776e65722062616c616e63652069732062656c6f77206d696e60008301527f696d756d000000000000000000000000000000000000000000000000000000006020830152604082019050919050565b6000614446601183615762565b91507f4576656e74206973206e6f74206f70656e0000000000000000000000000000006000830152602082019050919050565b6000614486601f83615762565b91507f416d6f756e7420657863656564732073656e64657220616c6c6f77616e6365006000830152602082019050919050565b60006144c6602683615762565b91507f4f66666572206f776e657220616c6c6f77616e63652069732062656c6f77206d60008301527f696e696d756d00000000000000000000000000000000000000000000000000006020830152604082019050919050565b600061452c601383615762565b91507f53656e646572206974206e6f74206f776e6572000000000000000000000000006000830152602082019050919050565b600061456c601b83615762565b91507f536166654d6174683a206164646974696f6e206f766572666c6f7700000000006000830152602082019050919050565b60006145ac601b83615762565b91507f4576656e7420696420646f6573206e6f742065786973742079657400000000006000830152602082019050919050565b60006145ec601783615762565b91507f4d61726b6574206973206e6f7420617661696c61626c650000000000000000006000830152602082019050919050565b600061462c601e83615762565b91507f536166654d6174683a207375627472616374696f6e206f766572666c6f7700006000830152602082019050919050565b600061466c601d83615762565b91507f416d6f756e7420657863656564732073656e6465722062616c616e63650000006000830152602082019050919050565b60006146ac601a83615762565b91507f536166654d6174683a206469766973696f6e206279207a65726f0000000000006000830152602082019050919050565b60006146ec602483615762565b91507f4f776e65722063616e206e6f742062652072656d6f7665642066726f6d20616460008301527f6d696e73000000000000000000000000000000000000000000000000000000006020830152604082019050919050565b6000614752603583615762565b91507f53656c6563746564206f7574636f6d65206973206e6f742076616c696420666f60008301527f7220484f4d454157415944524157206d61726b657400000000000000000000006020830152604082019050919050565b60006147b8603483615762565b91507f53656c6563746564206f7574636f6d65206973206e6f742076616c696420666f60008301527f7220504f494e54535052454144206d61726b65740000000000000000000000006020830152604082019050919050565b600061481e601c83615762565b91507f4f666665722070726963652069732062656c6f77206d696e696d756d000000006000830152602082019050919050565b600061485e603983615762565b91507f53656c6563746564206f7574636f6d65206973206e6f742076616c696420666f60008301527f722046495253545445414d544f53434f5245206d61726b6574000000000000006020830152604082019050919050565b60006148c4601d83615762565b91507f4f6666657220616d6f756e742069732062656c6f77206d696e696d756d0000006000830152602082019050919050565b6000614904601783615762565b91507f4f6666657220697320616c726561647920636c6f7365640000000000000000006000830152602082019050919050565b6000614944603283615762565b91507f53656c6563746564206f7574636f6d65206973206e6f742076616c696420666f60008301527f72204d4f4e45594c494e45206d61726b657400000000000000000000000000006020830152604082019050919050565b60006149aa601583615762565b91507f42657420696420646f6573206e6f7420657869737400000000000000000000006000830152602082019050919050565b60006149ea602183615762565b91507f4576656e742069642073686f756c642062652067726561746572207468616e2060008301527f30000000000000000000000000000000000000000000000000000000000000006020830152604082019050919050565b6000614a50602183615762565b91507f536166654d6174683a206d756c7469706c69636174696f6e206f766572666c6f60008301527f77000000000000000000000000000000000000000000000000000000000000006020830152604082019050919050565b6000614ab6600f83615762565b91507f426574206973206e6f74206f70656e00000000000000000000000000000000006000830152602082019050919050565b6000614af6601f83615762565b91507f4265742069642073686f756c642062652067726561746572207468616e2030006000830152602082019050919050565b6000614b36601383615762565b91507f4576656e74206973207374696c6c206f70656e000000000000000000000000006000830152602082019050919050565b6000614b76601683615762565b91507f50726963652069732062656c6f77206d696e696d756d000000000000000000006000830152602082019050919050565b6000614bb6601083615762565b91507f4f666665722069732065787069726564000000000000000000000000000000006000830152602082019050919050565b6000614bf6602383615762565b91507f45787069726174696f6e2074696d657374616d7020697320696e20746865207060008301527f61737400000000000000000000000000000000000000000000000000000000006020830152604082019050919050565b6000614c5c602183615762565b91507f4f666665722069642073686f756c642062652067726561746572207468616e2060008301527f30000000000000000000000000000000000000000000000000000000000000006020830152604082019050919050565b6000614cc2603683615762565b91507f53656c6563746564206f7574636f6d65206973206e6f742076616c696420666f60008301527f7220424f54485445414d53434f5245206d61726b6574000000000000000000006020830152604082019050919050565b6000614d28601983615762565b91507f4f66666572206f776e6572206973206e6f742073656e646572000000000000006000830152602082019050919050565b6000614d68601b83615762565b91507f4f6666657220696420646f6573206e6f742065786973742079657400000000006000830152602082019050919050565b6000614da8601783615762565b91507f416d6f756e742069732062656c6f77206d696e696d756d0000000000000000006000830152602082019050919050565b6000614de8601683615762565b91507f53656e646572206973206e6f7420616e2061646d696e000000000000000000006000830152602082019050919050565b6000614e28603283615762565b91507f53656c6563746564206f7574636f6d65206973206e6f742076616c696420666f60008301527f72204f564552554e444552206d61726b657400000000000000000000000000006020830152604082019050919050565b608082016000820151614e976000850182614397565b506020820151614eaa602085018261436a565b506040820151614ebd60408501826143a6565b506060820151614ed0606085018261434c565b50505050565b614edf81615832565b82525050565b6000602082019050614efa60008301846142e5565b92915050565b6000602082019050614f1560008301846142c7565b92915050565b6000602082019050614f3060008301846142d6565b92915050565b6000604082019050614f4b60008301856142c7565b614f5860208301846142e5565b9392505050565b6000606082019050614f7460008301866142c7565b614f8160208301856142e5565b614f8e6040830184614ed6565b949350505050565b6000604082019050614fab60008301856142e5565b614fb860208301846142e5565b9392505050565b6000606082019050614fd460008301866142e5565b614fe160208301856142e5565b614fee6040830184614ed6565b949350505050565b600060408201905061500b60008301856142e5565b6150186020830184614ed6565b9392505050565b6000602082019050615034600083018461435b565b92915050565b600060208201905061504f6000830184614388565b92915050565b6000602082019050818103600083015261506e816143d3565b9050919050565b6000602082019050818103600083015261508e81614439565b9050919050565b600060208201905081810360008301526150ae81614479565b9050919050565b600060208201905081810360008301526150ce816144b9565b9050919050565b600060208201905081810360008301526150ee8161451f565b9050919050565b6000602082019050818103600083015261510e8161455f565b9050919050565b6000602082019050818103600083015261512e8161459f565b9050919050565b6000602082019050818103600083015261514e816145df565b9050919050565b6000602082019050818103600083015261516e8161461f565b9050919050565b6000602082019050818103600083015261518e8161465f565b9050919050565b600060208201905081810360008301526151ae8161469f565b9050919050565b600060208201905081810360008301526151ce816146df565b9050919050565b600060208201905081810360008301526151ee81614745565b9050919050565b6000602082019050818103600083015261520e816147ab565b9050919050565b6000602082019050818103600083015261522e81614811565b9050919050565b6000602082019050818103600083015261524e81614851565b9050919050565b6000602082019050818103600083015261526e816148b7565b9050919050565b6000602082019050818103600083015261528e816148f7565b9050919050565b600060208201905081810360008301526152ae81614937565b9050919050565b600060208201905081810360008301526152ce8161499d565b9050919050565b600060208201905081810360008301526152ee816149dd565b9050919050565b6000602082019050818103600083015261530e81614a43565b9050919050565b6000602082019050818103600083015261532e81614aa9565b9050919050565b6000602082019050818103600083015261534e81614ae9565b9050919050565b6000602082019050818103600083015261536e81614b29565b9050919050565b6000602082019050818103600083015261538e81614b69565b9050919050565b600060208201905081810360008301526153ae81614ba9565b9050919050565b600060208201905081810360008301526153ce81614be9565b9050919050565b600060208201905081810360008301526153ee81614c4f565b9050919050565b6000602082019050818103600083015261540e81614cb5565b9050919050565b6000602082019050818103600083015261542e81614d1b565b9050919050565b6000602082019050818103600083015261544e81614d5b565b9050919050565b6000602082019050818103600083015261546e81614d9b565b9050919050565b6000602082019050818103600083015261548e81614ddb565b9050919050565b600060208201905081810360008301526154ae81614e1b565b9050919050565b60006080820190506154ca6000830184614e81565b92915050565b60006020820190506154e56000830184614ed6565b92915050565b60006040820190506155006000830186614ed6565b81810360208301526155138184866142f4565b9050949350505050565b60006060820190506155326000830187614ed6565b61553f6020830186614379565b81810360408301526155528184866142f4565b905095945050505050565b60006060820190506155726000830186614ed6565b61557f6020830185614379565b61558c60408301846143c4565b949350505050565b60006040820190506155a96000830185614ed6565b6155b66020830184614ed6565b9392505050565b60006080820190506155d26000830187614ed6565b6155df6020830186614ed6565b6155ec60408301856142e5565b6155f96060830184614ed6565b95945050505050565b600061010082019050615618600083018b614ed6565b615625602083018a614ed6565b6156326040830189614ed6565b61563f60608301886142e5565b61564c6080830187614ed6565b61565960a0830186614ed6565b61566660c08301856143b5565b61567360e0830184614ed6565b9998505050505050505050565b600060a0820190506156956000830188614ed6565b6156a26020830187614ed6565b6156af6040830186614ed6565b6156bc6060830185614ed6565b6156c96080830184614ed6565b9695505050505050565b6000610100820190506156e9600083018b614ed6565b6156f6602083018a614ed6565b6157036040830189614ed6565b6157106060830188614ed6565b61571d6080830187614ed6565b61572a60a0830186614ed6565b61573760c08301856143b5565b61574460e08301846143c4565b9998505050505050505050565b600082825260208201905092915050565b600082825260208201905092915050565b600061577e82615812565b9050919050565b600061579082615812565b9050919050565b60008115159050919050565b60007fffffffffffffffffffff0000000000000000000000000000000000000000000082169050919050565b6000819050919050565b60008190506157e7826158db565b919050565b60008190506157fa826158e8565b919050565b600081905061580d826158f5565b919050565b600073ffffffffffffffffffffffffffffffffffffffff82169050919050565b6000819050919050565b6000615847826158a8565b9050919050565b600061585982615860565b9050919050565b600061586b82615812565b9050919050565b600061587d826157d9565b9050919050565b600061588f826157ec565b9050919050565b60006158a1826157ff565b9050919050565b60006158b3826158ba565b9050919050565b60006158c582615812565b9050919050565b82818337600083830152505050565b600681106158e557fe5b50565b600981106158f257fe5b50565b600381106158ff57fe5b50565b61590b81615773565b811461591657600080fd5b50565b61592281615797565b811461592d57600080fd5b50565b615939816157cf565b811461594457600080fd5b50565b61595081615832565b811461595b57600080fd5b5056fea265627a7a72305820ee39c856323a5c2ff2f4095e6576702568af34a6d90bd19e3ee57cd637e96a0e6c6578706572696d656e74616cf50037",
  "source": "pragma solidity >=0.4.21 <0.6.0;\n\n/**\n * @dev Wrappers over Solidity's arithmetic operations with added overflow\n * checks.\n *\n * Arithmetic operations in Solidity wrap on overflow. This can easily result\n * in bugs, because programmers usually assume that an overflow raises an\n * error, which is the standard behavior in high level programming languages.\n * `SafeMath` restores this intuition by reverting the transaction when an\n * operation overflows.\n *\n * Using this library instead of the unchecked operations eliminates an entire\n * class of bugs, so it's recommended to use it always.\n */\nlibrary SafeMath {\n    /**\n     * @dev Returns the addition of two unsigned integers, reverting on\n     * overflow.\n     *\n     * Counterpart to Solidity's `+` operator.\n     *\n     * Requirements:\n     * - Addition cannot overflow.\n     */\n    function add(uint256 a, uint256 b) internal pure returns (uint256) {\n        uint256 c = a + b;\n        require(c >= a, \"SafeMath: addition overflow\");\n\n        return c;\n    }\n\n    /**\n     * @dev Returns the subtraction of two unsigned integers, reverting on\n     * overflow (when the result is negative).\n     *\n     * Counterpart to Solidity's `-` operator.\n     *\n     * Requirements:\n     * - Subtraction cannot overflow.\n     */\n    function sub(uint256 a, uint256 b) internal pure returns (uint256) {\n        require(b <= a, \"SafeMath: subtraction overflow\");\n        uint256 c = a - b;\n\n        return c;\n    }\n\n    /**\n     * @dev Returns the multiplication of two unsigned integers, reverting on\n     * overflow.\n     *\n     * Counterpart to Solidity's `*` operator.\n     *\n     * Requirements:\n     * - Multiplication cannot overflow.\n     */\n    function mul(uint256 a, uint256 b) internal pure returns (uint256) {\n        // Gas optimization: this is cheaper than requiring 'a' not being zero, but the\n        // benefit is lost if 'b' is also tested.\n        // See: https://github.com/OpenZeppelin/openzeppelin-solidity/pull/522\n        if (a == 0) {\n            return 0;\n        }\n\n        uint256 c = a * b;\n        require(c / a == b, \"SafeMath: multiplication overflow\");\n\n        return c;\n    }\n\n    /**\n     * @dev Returns the integer division of two unsigned integers. Reverts on\n     * division by zero. The result is rounded towards zero.\n     *\n     * Counterpart to Solidity's `/` operator. Note: this function uses a\n     * `revert` opcode (which leaves remaining gas untouched) while Solidity\n     * uses an invalid opcode to revert (consuming all remaining gas).\n     *\n     * Requirements:\n     * - The divisor cannot be zero.\n     */\n    function div(uint256 a, uint256 b) internal pure returns (uint256) {\n        // Solidity only automatically asserts when dividing by 0\n        require(b > 0, \"SafeMath: division by zero\");\n        uint256 c = a / b;\n        // assert(a == b * c + a % b); // There is no case in which this doesn't hold\n\n        return c;\n    }\n\n    /**\n     * @dev Returns the remainder of dividing two unsigned integers. (unsigned integer modulo),\n     * Reverts when dividing by zero.\n     *\n     * Counterpart to Solidity's `%` operator. This function uses a `revert`\n     * opcode (which leaves remaining gas untouched) while Solidity uses an\n     * invalid opcode to revert (consuming all remaining gas).\n     *\n     * Requirements:\n     * - The divisor cannot be zero.\n     */\n    function mod(uint256 a, uint256 b) internal pure returns (uint256) {\n        require(b != 0, \"SafeMath: modulo by zero\");\n        return a % b;\n    }\n}\n\n/**\n * @dev Interface of the ERC20 standard as defined in the EIP. Does not include\n * the optional functions; to access them see `ERC20Detailed`.\n */\ninterface IERC20 {\n    /**\n     * @dev Returns the amount of tokens in existence.\n     */\n    function totalSupply() external view returns (uint256);\n\n    /**\n     * @dev Returns the amount of tokens owned by `account`.\n     */\n    function balanceOf(address account) external view returns (uint256);\n\n    /**\n     * @dev Moves `amount` tokens from the caller's account to `recipient`.\n     *\n     * Returns a boolean value indicating whether the operation succeeded.\n     *\n     * Emits a `Transfer` event.\n     */\n    function transfer(address recipient, uint256 amount) external returns (bool);\n\n    /**\n     * @dev Returns the remaining number of tokens that `spender` will be\n     * allowed to spend on behalf of `owner` through `transferFrom`. This is\n     * zero by default.\n     *\n     * This value changes when `approve` or `transferFrom` are called.\n     */\n    function allowance(address owner, address spender) external view returns (uint256);\n\n    /**\n     * @dev Sets `amount` as the allowance of `spender` over the caller's tokens.\n     *\n     * Returns a boolean value indicating whether the operation succeeded.\n     *\n     * > Beware that changing an allowance with this method brings the risk\n     * that someone may use both the old and the new allowance by unfortunate\n     * transaction ordering. One possible solution to mitigate this race\n     * condition is to first reduce the spender's allowance to 0 and set the\n     * desired value afterwards:\n     * https://github.com/ethereum/EIPs/issues/20#issuecomment-263524729\n     *\n     * Emits an `Approval` event.\n     */\n    function approve(address spender, uint256 amount) external returns (bool);\n\n    /**\n     * @dev Moves `amount` tokens from `sender` to `recipient` using the\n     * allowance mechanism. `amount` is then deducted from the caller's\n     * allowance.\n     *\n     * Returns a boolean value indicating whether the operation succeeded.\n     *\n     * Emits a `Transfer` event.\n     */\n    function transferFrom(address sender, address recipient, uint256 amount) external returns (bool);\n\n    /**\n     * @dev Emitted when `value` tokens are moved from one account (`from`) to\n     * another (`to`).\n     *\n     * Note that `value` may be zero.\n     */\n    event Transfer(address indexed from, address indexed to, uint256 value);\n\n    /**\n     * @dev Emitted when the allowance of a `spender` for an `owner` is set by\n     * a call to `approve`. `value` is the new allowance.\n     */\n    event Approval(address indexed owner, address indexed spender, uint256 value);\n}\n\n/**\n * @dev Implementation of the `IERC20` interface.\n *\n * This implementation is agnostic to the way tokens are created. This means\n * that a supply mechanism has to be added in a derived contract using `_mint`.\n * For a generic mechanism see `ERC20Mintable`.\n *\n * *For a detailed writeup see our guide [How to implement supply\n * mechanisms](https://forum.zeppelin.solutions/t/how-to-implement-erc20-supply-mechanisms/226).*\n *\n * We have followed general OpenZeppelin guidelines: functions revert instead\n * of returning `false` on failure. This behavior is nonetheless conventional\n * and does not conflict with the expectations of ERC20 applications.\n *\n * Additionally, an `Approval` event is emitted on calls to `transferFrom`.\n * This allows applications to reconstruct the allowance for all accounts just\n * by listening to said events. Other implementations of the EIP may not emit\n * these events, as it isn't required by the specification.\n *\n * Finally, the non-standard `decreaseAllowance` and `increaseAllowance`\n * functions have been added to mitigate the well-known issues around setting\n * allowances. See `IERC20.approve`.\n */\ncontract ERC20 is IERC20 {\n    using SafeMath for uint256;\n\n    mapping (address => uint256) private _balances;\n\n    mapping (address => mapping (address => uint256)) private _allowances;\n\n    uint256 private _totalSupply;\n\n    /**\n     * @dev See `IERC20.totalSupply`.\n     */\n    function totalSupply() public view returns (uint256) {\n        return _totalSupply;\n    }\n\n    /**\n     * @dev See `IERC20.balanceOf`.\n     */\n    function balanceOf(address account) public view returns (uint256) {\n        return _balances[account];\n    }\n\n    /**\n     * @dev See `IERC20.transfer`.\n     *\n     * Requirements:\n     *\n     * - `recipient` cannot be the zero address.\n     * - the caller must have a balance of at least `amount`.\n     */\n    function transfer(address recipient, uint256 amount) public returns (bool) {\n        _transfer(msg.sender, recipient, amount);\n        return true;\n    }\n\n    /**\n     * @dev See `IERC20.allowance`.\n     */\n    function allowance(address owner, address spender) public view returns (uint256) {\n        return _allowances[owner][spender];\n    }\n\n    /**\n     * @dev See `IERC20.approve`.\n     *\n     * Requirements:\n     *\n     * - `spender` cannot be the zero address.\n     */\n    function approve(address spender, uint256 value) public returns (bool) {\n        _approve(msg.sender, spender, value);\n        return true;\n    }\n\n    /**\n     * @dev See `IERC20.transferFrom`.\n     *\n     * Emits an `Approval` event indicating the updated allowance. This is not\n     * required by the EIP. See the note at the beginning of `ERC20`;\n     *\n     * Requirements:\n     * - `sender` and `recipient` cannot be the zero address.\n     * - `sender` must have a balance of at least `value`.\n     * - the caller must have allowance for `sender`'s tokens of at least\n     * `amount`.\n     */\n    function transferFrom(address sender, address recipient, uint256 amount) public returns (bool) {\n        _transfer(sender, recipient, amount);\n        _approve(sender, msg.sender, _allowances[sender][msg.sender].sub(amount));\n        return true;\n    }\n\n    /**\n     * @dev Atomically increases the allowance granted to `spender` by the caller.\n     *\n     * This is an alternative to `approve` that can be used as a mitigation for\n     * problems described in `IERC20.approve`.\n     *\n     * Emits an `Approval` event indicating the updated allowance.\n     *\n     * Requirements:\n     *\n     * - `spender` cannot be the zero address.\n     */\n    function increaseAllowance(address spender, uint256 addedValue) public returns (bool) {\n        _approve(msg.sender, spender, _allowances[msg.sender][spender].add(addedValue));\n        return true;\n    }\n\n    /**\n     * @dev Atomically decreases the allowance granted to `spender` by the caller.\n     *\n     * This is an alternative to `approve` that can be used as a mitigation for\n     * problems described in `IERC20.approve`.\n     *\n     * Emits an `Approval` event indicating the updated allowance.\n     *\n     * Requirements:\n     *\n     * - `spender` cannot be the zero address.\n     * - `spender` must have allowance for the caller of at least\n     * `subtractedValue`.\n     */\n    function decreaseAllowance(address spender, uint256 subtractedValue) public returns (bool) {\n        _approve(msg.sender, spender, _allowances[msg.sender][spender].sub(subtractedValue));\n        return true;\n    }\n\n    /**\n     * @dev Moves tokens `amount` from `sender` to `recipient`.\n     *\n     * This is internal function is equivalent to `transfer`, and can be used to\n     * e.g. implement automatic token fees, slashing mechanisms, etc.\n     *\n     * Emits a `Transfer` event.\n     *\n     * Requirements:\n     *\n     * - `sender` cannot be the zero address.\n     * - `recipient` cannot be the zero address.\n     * - `sender` must have a balance of at least `amount`.\n     */\n    function _transfer(address sender, address recipient, uint256 amount) internal {\n        require(sender != address(0), \"ERC20: transfer from the zero address\");\n        require(recipient != address(0), \"ERC20: transfer to the zero address\");\n\n        _balances[sender] = _balances[sender].sub(amount);\n        _balances[recipient] = _balances[recipient].add(amount);\n        emit Transfer(sender, recipient, amount);\n    }\n\n    /** @dev Creates `amount` tokens and assigns them to `account`, increasing\n     * the total supply.\n     *\n     * Emits a `Transfer` event with `from` set to the zero address.\n     *\n     * Requirements\n     *\n     * - `to` cannot be the zero address.\n     */\n    function _mint(address account, uint256 amount) internal {\n        require(account != address(0), \"ERC20: mint to the zero address\");\n\n        _totalSupply = _totalSupply.add(amount);\n        _balances[account] = _balances[account].add(amount);\n        emit Transfer(address(0), account, amount);\n    }\n\n     /**\n     * @dev Destoys `amount` tokens from `account`, reducing the\n     * total supply.\n     *\n     * Emits a `Transfer` event with `to` set to the zero address.\n     *\n     * Requirements\n     *\n     * - `account` cannot be the zero address.\n     * - `account` must have at least `amount` tokens.\n     */\n    function _burn(address account, uint256 value) internal {\n        require(account != address(0), \"ERC20: burn from the zero address\");\n\n        _totalSupply = _totalSupply.sub(value);\n        _balances[account] = _balances[account].sub(value);\n        emit Transfer(account, address(0), value);\n    }\n\n    /**\n     * @dev Sets `amount` as the allowance of `spender` over the `owner`s tokens.\n     *\n     * This is internal function is equivalent to `approve`, and can be used to\n     * e.g. set automatic allowances for certain subsystems, etc.\n     *\n     * Emits an `Approval` event.\n     *\n     * Requirements:\n     *\n     * - `owner` cannot be the zero address.\n     * - `spender` cannot be the zero address.\n     */\n    function _approve(address owner, address spender, uint256 value) internal {\n        require(owner != address(0), \"ERC20: approve from the zero address\");\n        require(spender != address(0), \"ERC20: approve to the zero address\");\n\n        _allowances[owner][spender] = value;\n        emit Approval(owner, spender, value);\n    }\n\n    /**\n     * @dev Destoys `amount` tokens from `account`.`amount` is then deducted\n     * from the caller's allowance.\n     *\n     * See `_burn` and `_approve`.\n     */\n    function _burnFrom(address account, uint256 amount) internal {\n        _burn(account, amount);\n        _approve(account, msg.sender, _allowances[account][msg.sender].sub(amount));\n    }\n}\n\ncontract WETH is ERC20 {\n  event Deposit(address indexed dst, uint256 wad);\n  event Withdrawal(address indexed src, uint256 wad);\n\n  function deposit() public payable;\n\n  function withdraw(uint256 wad) public;\n\n  function withdraw(uint256 wad, address payable user) public;\n}\n\ncontract MaticWETH is WETH {\n  string public name = \"Wrapped Ether\";\n  string public symbol = \"WETH\";\n  uint8  public decimals = 18;\n\n  function deposit() public payable {\n    _mint(msg.sender, msg.value);\n    emit Deposit(msg.sender, msg.value);\n  }\n\n  function withdraw(uint wad) public {\n    require(balanceOf(msg.sender) >= wad);\n    _burn(msg.sender, wad);\n    msg.sender.transfer(wad);\n    emit Withdrawal(msg.sender, wad);\n  }\n\n  function withdraw(uint wad, address payable user) public {\n    require(balanceOf(msg.sender) >= wad);\n    user.transfer(wad);\n    _burn(msg.sender, wad);\n    emit Withdrawal(user, wad);\n  }\n}\n\npragma experimental ABIEncoderV2;\n\n\n\n\n/// @title SocialBet contract\n/// @author Andy Mpondo Black\n/// @notice This contract is used for SocialBet decentralized sports betting platform\n/// @dev This contract interact with WETH ERC-20 token contract\ncontract SocialBet {\n\n    using SafeMath for uint;\n\n    /***************************************************************************\n     *                      Variables, Constants & Enums                       *\n     ***************************************************************************/\n\n    /// @notice Owner of SocialBet smart contract\n    address payable public owner;\n\n    /// @notice token contract for transfers\n    MaticWETH public Token;\n\n    /// @notice Administrators mapping\n    mapping(address => bool) public admins;\n\n    /// @notice Events mapping\n    mapping(uint => Event) public events;\n    /// @notice Offers mapping\n    mapping(uint => Offer) public offers;\n    /// @notice Bets mapping\n    mapping(uint => Bet) public bets;\n    /// @notice Positions mapping\n    mapping(uint => Position) public positions;\n\n    /// @notice Number of events, used to set id of created events\n    uint public m_nbEvents;\n    /// @notice Number of offers, used to set id of created offers\n    uint public m_nbOffers;\n    /// @notice Number of bets, used to set id of created bets\n    uint public m_nbBets;\n    /// @notice Number of positions, used to set id of created positions\n    uint public m_nbPositions;\n\n    /// @notice Minimum ammount to maintain an Offer open to sell\n    uint public m_minAmount = 10000000000000000;\n\n    enum State {OPEN, CLOSE, CANCELED}\n\n    enum Outcome {NULL, CANCELED, HOME, AWAY, DRAW, OVER, UNDER, YES, NO}\n\n    enum BetType {HOMEAWAYDRAW, MONEYLINE, OVERUNDER, POINTSPREAD, BOTHTEAMSCORE, FIRSTTEAMTOSCORE}\n\n    /***************************************************************************\n     *                                 Events                                  *\n     ***************************************************************************/\n\n    /**\n     * Event for new event creation\n     * @param id Id of the created event\n     * @param ipfsAddress Ipfs hash of the created event\n     * @param markets Markets of the created event\n     */\n     event LogNewEvent(uint id, bytes32 ipfsAddress, uint[] markets);\n\n    /**\n     * Event for new markets adding\n     * @param id Id of the event\n     * @param markets Markets added to the event\n     */\n     event LogNewMarkets(uint id, uint[] markets);\n\n    /**\n     * Event for finalized event\n     * @param id Id of the event\n     */\n     event LogResultEvent(uint id);\n\n    /**\n     * Event for canceled event\n     * @param id Id of the event\n     */\n     event LogCancelEvent(uint id);\n\n    /**\n     * Event for new offer creation\n     * @param id Id of the created offer\n     * @param eventId Id of the event\n     * @param marketIndex Index of the market\n     * @param owner Address of the owner\n     * @param amount Amount of the offer\n     * @param price Price of the offer\n     * @param outcome Outcome of the offer\n     * @param timestampExpiration Timestamp of expiration of the offer\n     */\n     event LogNewOffer(uint id, uint indexed eventId, uint indexed marketIndex, address indexed owner, uint amount, uint price, uint outcome, uint timestampExpiration);\n\n    /**\n     * Event for updated offer\n     * @param id Id of the updated offer\n     * @param amount Amount of the offer\n     * @param price Price of the offer\n     */\n     event LogUpdateOffer(uint indexed id, uint amount, uint price);\n\n    /**\n     * Event for new bet creation\n     * @param id Id of the created bet\n     * @param eventId Id of the event\n     * @param marketIndex Index of the market\n     * @param backPosition Id of the back position of the bet\n     * @param layPosition Id of the lay position of the bet\n     * @param amount Amount of the bet\n     * @param outcome Outcome of the bet\n     */\n     event LogNewBet(uint id, uint indexed eventId, uint indexed marketIndex, uint backPosition, uint layPosition, uint amount, uint outcome);\n\n    /**\n     * Event for closed bet\n     * @param id Id of the closed bet\n     */\n     event LogBetClosed(uint id);\n\n    /**\n     * Event for new position creation\n     * @param id Id of the created position\n     * @param betId Id of the bet\n     * @param owner Owner of the position\n     * @param amount Amount of the position\n     */\n     event LogNewPosition(uint id, uint indexed betId, address indexed owner, uint amount);\n\n    /***************************************************************************\n     *                               Structures                                *\n     ***************************************************************************/\n\n     struct Event {\n        uint _id;\n        bytes32 _ipfsAddress;\n        mapping(uint => Market) _markets;\n        State _state;\n    }\n\n    struct Market {\n        BetType _type;\n        bytes10 _data;\n        Outcome _outcome;\n        bool \t_active;\n    }\n\n    struct Offer {\n        uint _id;\n        uint _eventId;\n        uint _marketIndex;\n        address _owner;\n        uint _amount;\n        uint _price;\n        Outcome _outcome;\n        uint _timestampExpiration;\n    }\n\n    struct Bet {\n        uint _id;\n        uint _eventId;\n        uint _marketIndex;\n        uint _backPosition;\n        uint _layPosition;\n        uint _amount;\n        Outcome _outcome;\n        State _state;\n    }\n\n    struct Position {\n        uint _id;\n        uint _betId;\n        address _owner;\n        uint _amount;\n    }\n\n    /***************************************************************************\n     *                                Modifiers                                *\n     ***************************************************************************/\n\n    /// @notice Check that the caller is the owner of the smart contract\n    modifier isOwner() {\n        require(owner == msg.sender, 'Sender it not owner');\n        _;\n    }\n\n    /// @notice Check that the caller have admin rights\n    modifier isAdmin() {\n        require(admins[msg.sender], 'Sender is not an admin');\n        _;\n    }\n\n    /// @notice Check that the event exists and is still open\n    modifier eventAvailable(uint _eventId) {\n        require(_eventId > 0, 'Event id should be greater than 0');\n        require(_eventId <= m_nbEvents, 'Event id does not exist yet');\n        require(uint(events[_eventId]._state) == uint(State.OPEN), 'Event is not open');\n        _;\n    }\n\n    /// @notice Check that the market exists in the selected event\n    modifier marketAvailable(uint _eventId, uint _marketIndex) {\n        require(events[_eventId]._markets[_marketIndex]._active, 'Market is not available');\n        _;\n    }\n\n    /// @notice Check that the offer exists and is still open\n    modifier offerAvailable(uint _offerId) {\n        require(_offerId > 0, 'Offer id should be greater than 0');\n        require(_offerId <= m_nbOffers, 'Offer id does not exist yet');\n        require(offers[_offerId]._timestampExpiration > now, 'Offer is expired');\n        require(uint(events[offers[_offerId]._eventId]._state) == uint(State.OPEN), 'Event is not open');\n        require(offers[_offerId]._amount >= m_minAmount, 'Offer amount is below minimum');\n        require(offers[_offerId]._price >= m_minAmount, 'Offer price is below minimum');\n        require(Token.balanceOf(offers[_offerId]._owner) >= m_minAmount, 'Offer owner balance is below minimum');\n        require(Token.allowance(offers[_offerId]._owner, address(this)) >= m_minAmount, 'Offer owner allowance is below minimum');\n        _;\n    }\n\n    /// @notice Check that the selected outcome is valid for the type of the selected event\n    modifier outcomeValid(uint _eventId, uint _marketIndex, uint _outcome) {\n        if (BetType(_marketIndex) == BetType.HOMEAWAYDRAW) {\n            require(_outcome <= uint(Outcome.DRAW), 'Selected outcome is not valid for HOMEAWAYDRAW market');\n            require(_outcome >= uint(Outcome.HOME), 'Selected outcome is not valid for HOMEAWAYDRAW market');\n        }\n        if (BetType(_marketIndex) == BetType.MONEYLINE) {\n            require(_outcome <= uint(Outcome.AWAY), 'Selected outcome is not valid for MONEYLINE market');\n            require(_outcome >= uint(Outcome.HOME), 'Selected outcome is not valid for MONEYLINE market');\n        }\n        if (BetType(_marketIndex) == BetType.OVERUNDER) {\n            require(_outcome <= uint(Outcome.UNDER), 'Selected outcome is not valid for OVERUNDER market');\n            require(_outcome >= uint(Outcome.OVER), 'Selected outcome is not valid for OVERUNDER market');\n        }\n        if (BetType(_marketIndex) == BetType.POINTSPREAD) {\n            require(_outcome <= uint(Outcome.AWAY), 'Selected outcome is not valid for POINTSPREAD market');\n            require(_outcome >= uint(Outcome.HOME), 'Selected outcome is not valid for POINTSPREAD market');\n        }\n        if (BetType(_marketIndex) == BetType.BOTHTEAMSCORE) {\n            require(_outcome <= uint(Outcome.NO), 'Selected outcome is not valid for BOTHTEAMSCORE market');\n            require(_outcome >= uint(Outcome.YES), 'Selected outcome is not valid for BOTHTEAMSCORE market');\n        }\n        if (BetType(_marketIndex) == BetType.FIRSTTEAMTOSCORE) {\n            require(_outcome <= uint(Outcome.AWAY), 'Selected outcome is not valid for FIRSTTEAMTOSCORE market');\n            require(_outcome >= uint(Outcome.HOME), 'Selected outcome is not valid for FIRSTTEAMTOSCORE market');\n        }\n        _;\n    }\n\n    /***************************************************************************\n     *                               Constructor                               *\n     ***************************************************************************/\n\n    /** \n\t* @notice Constructor, take _tokenAddress\n    * @param _tokenAddress Address of the token used\n    */\n    constructor(address _tokenAddress) public {\n        owner = msg.sender;\n        Token = MaticWETH(_tokenAddress);\n        addAdmin(msg.sender);\n    }\n\n    /***************************************************************************\n     *                             Owner functions                             *\n     ***************************************************************************/\n\n    /**\n\t* @notice Set address as an admin\n\t* @param _addr The address to set as an admin\n\t*/\n    function addAdmin(address _addr) public isOwner {\n        admins[_addr] = true;\n    }\n\n    /**\n    * @notice Remove address from admins\n    * @param _addr The address to unset from admins\n    */\n    function removeAdmin(address _addr) external isOwner {\n        require(_addr != owner, 'Owner can not be removed from admins');\n        admins[_addr] = false;\n    }\n\n    /***************************************************************************\n     *                             Admin functions                             *\n     ***************************************************************************/\n\n    /**\n    * @notice Add new event to smart contract. The details of the event are found in the ipfs address\n    * @param _ipfsAddress Ipfs address containing informations about the Event\n    * @param _markets Markets available for the Event\n    * @param _data Additionnal data about the Markets\n    */\n    function addEvent(\n        bytes32 _ipfsAddress,\n        uint[] calldata _markets,\n        bytes10[] calldata _data\n        ) external isAdmin {\n        uint _id = _addEvent(_ipfsAddress, _markets, _data);\n\n        emit LogNewEvent(_id, _ipfsAddress, _markets);\n    }\n\n    /**\n    * @notice Add new markets to existing event\n    * @param _eventId Id of the Event\n    * @param _markets Markets available for the Event\n    * @param _data Additionnal data about the Markets\n    */\n    function addMarkets(\n        uint _eventId,\n        uint[] calldata _markets,\n        bytes10[] calldata _data\n        ) external isAdmin eventAvailable(_eventId) {\n        _addMarkets(_eventId, _markets, _data);\n\n        emit LogNewMarkets(_eventId, _markets);\n    }\n\n    /**\n    * @notice Set results to an event markets\n    * @param _eventId Id of the Event\n    * @param _markets Markets to set results to\n    * @param _outcomes Outcomes of the Markets\n    */\n    function setEventResult(uint _eventId, uint[] calldata _markets, uint[] calldata _outcomes)\n    external\n    isAdmin\n    eventAvailable(_eventId)\n    {\n        _setEventResult(_eventId, _markets, _outcomes);\n\n        emit LogResultEvent(_eventId);\n    }\n\n    /**\n    * @notice Cancel an event\n    * @param _eventId Id of the Event\n    */\n    function cancelEvent(uint _eventId) \n    external \n    isAdmin\n    eventAvailable(_eventId)\n    {\n        _cancelEvent(_eventId);\n\n        emit LogCancelEvent(_eventId);\n    }\n\n    /***************************************************************************\n     *                            External functions                           *\n     ***************************************************************************/\n\n    /**\n    * @notice Open a new offer\n    * @param _eventId Id of the Event\n    * @param _marketIndex Index of the Market\n    * @param _amount Amount the bookmaker is putting on the Offer\n    * @param _price Price the bookmaker is selling the Offer for\n    * @param _outcome Outcome of the market the bookmaker is opening the Offer on\n    * @param _timestampExpiration timestamp the Offer expires on\n    */\n    function openOffer(\n        uint _eventId,\n        uint _marketIndex,\n        uint _amount,\n        uint _price,\n        uint _outcome,\n        uint _timestampExpiration\n        )\n    external\n    eventAvailable(_eventId)\n    marketAvailable(_eventId, _marketIndex)\n    outcomeValid(_eventId, _marketIndex, _outcome)\n    {\n        require(_price >= m_minAmount, 'Price is below minimum');\n        require(_amount >= m_minAmount, 'Amount is below minimum');\n        require(_timestampExpiration >= now, 'Expiration timestamp is in the past');\n\n        m_nbOffers = m_nbOffers.add(1);\n\n        Offer memory newOffer = Offer(\n            m_nbOffers,\n            _eventId,\n            _marketIndex,\n            msg.sender,\n            _amount,\n            _price,\n            Outcome(_outcome),\n            _timestampExpiration\n            );\n\n        offers[newOffer._id] = newOffer;\n\n        emit LogNewOffer(\n            newOffer._id,\n            newOffer._eventId,\n            newOffer._marketIndex,\n            newOffer._owner,\n            newOffer._amount,\n            newOffer._price,\n            uint(newOffer._outcome),\n            newOffer._timestampExpiration\n            );\n    }\n\n    /**\n    * @notice Close an offer\n    * @param _offerId Id of the Offer\n    */\n    function closeOffer(uint _offerId) external {\n        require(_offerId > 0, 'Offer id should be greater than 0');\n        require(_offerId <= m_nbOffers, 'Offer id does not exist yet');\n        require(offers[_offerId]._owner == msg.sender, 'Offer owner is not sender');\n        require(offers[_offerId]._amount > 0, 'Offer is already closed');\n\n        _closeOffer(_offerId);\n    }\n\n    /**\n    * @notice Buy an offer\n    * @param _offerId Id of the Offer\n    * @param _amount Amount you're buying the Offer with\n    */\n    function buyOffer(uint _offerId, uint _amount)\n    public\n    offerAvailable(_offerId)\n    {\n        require(_amount >= m_minAmount, 'Amount is below minimum');\n        require(Token.balanceOf(msg.sender) >= _amount, 'Amount exceeds sender balance');\n        require(Token.allowance(msg.sender, address(this)) >= _amount, 'Amount exceeds sender allowance');\n\n        Offer memory _offer = offers[_offerId];\n\n        uint _amountBuyer = _amount;\n\n        if ( _offer._price < _amount ) {\n        \t_amountBuyer = _offer._price;\n        }\n\n        uint _amountOfferToBet = _offer._amount.mul(_amountBuyer).div(_offer._price);\n\n        uint _balanceOwner = Token.balanceOf(_offer._owner);\n        uint _allowanceOwner = Token.allowance(_offer._owner, address(this));\n\n        uint _amountAvailableOwner = _balanceOwner > _allowanceOwner ? _allowanceOwner : _balanceOwner;\n\n        if( _amountAvailableOwner < _amountOfferToBet ) {\n        \t_amountOfferToBet = _amountAvailableOwner;\n        \t_amountBuyer = _amountOfferToBet.mul(_offer._price).div(_offer._amount);\n        }\n        \n        uint _restAmountOffer = _offer._amount.sub(_amountOfferToBet);\n        uint _restPriceOffer = _restAmountOffer.mul(_offer._price).div(_offer._amount);\n\n        Token.transferFrom(msg.sender, address(this), _amountBuyer);\n        Token.transferFrom(_offer._owner, address(this), _amountOfferToBet);\n\n        m_nbBets = m_nbBets.add(1);\n\n        Bet memory _newBet;\n        _newBet._id = m_nbBets;\n        _newBet._eventId = _offer._eventId;\n        _newBet._marketIndex = _offer._marketIndex;\n        _newBet._outcome = _offer._outcome;\n        _newBet._state = State.OPEN;\n\n        Position memory backPosition = _createPosition(\n            _newBet._id,\n            msg.sender,\n            _amountBuyer\n            );\n        Position memory layPosition = _createPosition(\n            _newBet._id,\n            _offer._owner,\n            _amountOfferToBet\n            );\n\n        _newBet._backPosition = backPosition._id;\n        _newBet._layPosition = layPosition._id;\n        _newBet._amount = backPosition._amount + layPosition._amount;\n\n        bets[m_nbBets] = _newBet;\n\n        emit LogNewBet(\n            _newBet._id,\n            _newBet._eventId,\n            _newBet._marketIndex,\n            _newBet._backPosition,\n            _newBet._layPosition,\n            _newBet._amount,\n            uint(_newBet._outcome)\n            );\n\n        offers[_offer._id]._amount = _restAmountOffer;\n        offers[_offer._id]._price = _restPriceOffer;\n\n        if (_restAmountOffer < m_minAmount || _restPriceOffer < m_minAmount) {\n            _closeOffer(_offer._id);\n        }\n        else {\n            emit LogUpdateOffer(_offerId, _restAmountOffer, _restPriceOffer);\n        }\n    }\n\n    /**\n    * @notice Buy multiple offers\n    * @param _offerIds Offers to buy\n    * @param _amount Amount you're buying the Offers with\n    */\n    function buyOfferBulk(\n        uint[] calldata _offerIds,\n        uint _amount\n        ) external {\n        require(_amount >= m_minAmount, 'Amount is below minimum');\n        require(Token.balanceOf(msg.sender) >= _amount, 'Amount exceeds sender balance');\n        require(Token.allowance(msg.sender, address(this)) >= _amount, 'Amount exceeds sender allowance');\n\n        uint _length = _offerIds.length;\n        uint _restAmount = _amount;\n        uint _offerAmount;\n        uint _offerId;\n\n        for (uint i = 0; i < _length; i++) {\n            if (_restAmount < m_minAmount) {\n                break;\n            }\n\n            _offerId = _offerIds[i];\n\n            if (offers[_offerId]._price <= _restAmount) {\n                _offerAmount = offers[_offerId]._price;\n                } else {\n                    _offerAmount = _restAmount;\n                }\n\n                buyOffer(_offerId, _offerAmount);\n\n                _restAmount = _restAmount.sub(_offerAmount);\n            }\n        }\n\n    /**\n    * @notice Close a bet and send earnings to winner\n    * @param _betId Id of the Bet to close\n    */\n    function claimBetEarnings(uint _betId) external {\n        require(_betId > 0, 'Bet id should be greater than 0');\n        require(_betId <= m_nbBets, 'Bet id does not exist');\n        require(uint(bets[_betId]._state) == uint(State.OPEN), 'Bet is not open');\n        require(uint(events[bets[_betId]._eventId]._state) > uint(State.OPEN), 'Event is still open');\n\n        Bet memory _bet = bets[_betId];\n        Event storage _event = events[_bet._eventId];\n\n        if (uint(_event._state) == uint(State.CANCELED)) {\n            Token.transfer(positions[_bet._backPosition]._owner, positions[_bet._backPosition]._amount);\n            Token.transfer(positions[_bet._layPosition]._owner, positions[_bet._layPosition]._amount);\n        } \n        else {\n            if (_event._markets[_bet._marketIndex]._outcome == _bet._outcome) {\n                Token.transfer(positions[_bet._backPosition]._owner, _bet._amount);\n            } \n            else if (_event._markets[_bet._marketIndex]._outcome != _bet._outcome) {\n                Token.transfer(positions[_bet._layPosition]._owner, _bet._amount);\n            }\n        }\n\n        _bet._state = State.CLOSE;\n        bets[_bet._id] = _bet;\n\n        emit LogBetClosed(_bet._id);\n    }\n\n    /**\n    * @notice Returns a market\n    * @param _eventId Id of the Event\n    * @param _marketIndex Index of the Market\n    */\n    function getMarket(uint _eventId, uint _marketIndex) public view returns (Market memory) {\n        return events[_eventId]._markets[_marketIndex];\n    }\n\n    /***************************************************************************\n     *                             Private functions                           *\n     ***************************************************************************/\n\n    /**\n    * @notice Private function that create an Event and add it to the mapping\n    * @param _ipfsAddress Ipfs address containing informations about the Event\n    * @param _markets Markets available for the Event\n    * @param _data Additionnal data about the Markets\n    */\n    function _addEvent(\n        bytes32 _ipfsAddress,\n        uint[] memory _markets,\n        bytes10[] memory _data\n        ) private returns (uint _id) {\n        m_nbEvents = m_nbEvents.add(1);\n\n        Event memory newEvent;\n        newEvent._id = m_nbEvents;\n        newEvent._ipfsAddress = _ipfsAddress;\n        newEvent._state = State.OPEN;\n\n        events[newEvent._id] = newEvent;\n\n        _addMarkets(newEvent._id, _markets, _data);\n\n        _id = m_nbEvents;\n    }\n\n    /**\n    * @notice Private function that add new markets to existing event\n    * @param _eventId Id of the Event\n    * @param _markets Markets available for the Event\n    * @param _data Additionnal data about the Markets\n    */\n    function _addMarkets(\n        uint _eventId,\n        uint[] memory _markets,\n        bytes10[] memory _data\n        ) private {\n        for (uint i = 0; i < _markets.length; i++) {\n            events[_eventId]._markets[_markets[i]] = (Market(\n                BetType(_markets[i]),\n                _data[i],\n                Outcome.NULL,\n                true\n                ));\n        }\n    }\n\n    /**\n    * @notice Private function that set results to an event markets\n    * @param _eventId Id of the Event\n    * @param _markets Markets to set results to\n    * @param _outcomes Outcomes of the Markets\n    */\n    function _setEventResult(uint _eventId, uint[] memory _markets, uint[] memory _outcomes) private {\n        Event storage _event = events[_eventId];\n\n        if (uint(_event._state) == uint(State.OPEN)) {\n            for (uint i = 0; i < _markets.length; i++) {\n                _event._markets[_markets[i]]._outcome = Outcome(_outcomes[i]);\n            }\n            _event._state = State.CLOSE;\n        }\n    }\n\n    /**\n    * @notice Private function that cancel an event\n    * @param _eventId Id of the Event\n    */\n    function _cancelEvent(uint _eventId) private {\n        Event memory _event = events[_eventId];\n\n        _event._state = State.CANCELED;\n\n        events[_event._id] = _event;\n    }\n\n    /**\n    * @notice Private function that close an offer\n    * @param _offerId Id of the Offer\n    */\n    function _closeOffer(uint _offerId) private {\n        offers[_offerId]._amount = 0;\n        offers[_offerId]._price = 0;\n\n        emit LogUpdateOffer(_offerId, offers[_offerId]._amount, offers[_offerId]._price);\n    }\n\n    /**\n    * @notice Private function that create a Position and add it to the mapping \n    * @param _betId Id of the related Bet\n    * @param _owner Owner of the Position\n    * @param _amount Amount of the Position\n    */\n    function _createPosition(\n        uint _betId,\n        address _owner,\n        uint _amount\n        ) private returns (Position memory newPosition) {\n        m_nbPositions = m_nbPositions.add(1);\n\n        newPosition = Position(m_nbPositions, _betId, _owner, _amount);\n\n        positions[newPosition._id] = newPosition;\n\n        _logNewPosition(newPosition);\n    }\n\n    /**\n    * @notice Emits the logNewPosition event  \n    * @param _newPosition Position to log\n    */\n    function _logNewPosition(Position memory _newPosition) private {\n        emit LogNewPosition(\n            _newPosition._id,\n            _newPosition._betId,\n            _newPosition._owner,\n            _newPosition._amount\n            );\n    }\n}",
  "sourcePath": "/Users/andy/wisebet/bet-ethereum/contracts/SocialBet_merged.sol",
  "compiler": {
    "name": "solc",
    "version": "0.5.8+commit.23d335f2.Emscripten.clang"
  },
  "schemaVersion": "3.2.3",
  "updatedAt": "2020-11-07T09:39:06.200Z",
  "networkType": "ethereum",
  "devdoc": {
    "author": "Andy Mpondo Black",
    "details": "This contract interact with WETH ERC-20 token contract",
    "methods": {
      "addAdmin(address)": {
        "params": {
          "_addr": "The address to set as an admin"
        }
      },
      "addEvent(bytes32,uint256[],bytes10[])": {
        "params": {
          "_data": "Additionnal data about the Markets",
          "_ipfsAddress": "Ipfs address containing informations about the Event",
          "_markets": "Markets available for the Event"
        }
      },
      "addMarkets(uint256,uint256[],bytes10[])": {
        "params": {
          "_data": "Additionnal data about the Markets",
          "_eventId": "Id of the Event",
          "_markets": "Markets available for the Event"
        }
      },
      "buyOffer(uint256,uint256)": {
        "params": {
          "_amount": "Amount you're buying the Offer with",
          "_offerId": "Id of the Offer"
        }
      },
      "buyOfferBulk(uint256[],uint256)": {
        "params": {
          "_amount": "Amount you're buying the Offers with",
          "_offerIds": "Offers to buy"
        }
      },
      "cancelEvent(uint256)": {
        "params": {
          "_eventId": "Id of the Event"
        }
      },
      "claimBetEarnings(uint256)": {
        "params": {
          "_betId": "Id of the Bet to close"
        }
      },
      "closeOffer(uint256)": {
        "params": {
          "_offerId": "Id of the Offer"
        }
      },
      "constructor": {
        "params": {
          "_tokenAddress": "Address of the token used"
        }
      },
      "getMarket(uint256,uint256)": {
        "params": {
          "_eventId": "Id of the Event",
          "_marketIndex": "Index of the Market"
        }
      },
      "openOffer(uint256,uint256,uint256,uint256,uint256,uint256)": {
        "params": {
          "_amount": "Amount the bookmaker is putting on the Offer",
          "_eventId": "Id of the Event",
          "_marketIndex": "Index of the Market",
          "_outcome": "Outcome of the market the bookmaker is opening the Offer on",
          "_price": "Price the bookmaker is selling the Offer for",
          "_timestampExpiration": "timestamp the Offer expires on"
        }
      },
      "removeAdmin(address)": {
        "params": {
          "_addr": "The address to unset from admins"
        }
      },
      "setEventResult(uint256,uint256[],uint256[])": {
        "params": {
          "_eventId": "Id of the Event",
          "_markets": "Markets to set results to",
          "_outcomes": "Outcomes of the Markets"
        }
      }
    },
    "title": "SocialBet contract"
  },
  "userdoc": {
    "methods": {
      "addAdmin(address)": {
        "notice": "Set address as an admin"
      },
      "addEvent(bytes32,uint256[],bytes10[])": {
        "notice": "Add new event to smart contract. The details of the event are found in the ipfs address"
      },
      "addMarkets(uint256,uint256[],bytes10[])": {
        "notice": "Add new markets to existing event"
      },
      "buyOffer(uint256,uint256)": {
        "notice": "Buy an offer"
      },
      "buyOfferBulk(uint256[],uint256)": {
        "notice": "Buy multiple offers"
      },
      "cancelEvent(uint256)": {
        "notice": "Cancel an event"
      },
      "claimBetEarnings(uint256)": {
        "notice": "Close a bet and send earnings to winner"
      },
      "closeOffer(uint256)": {
        "notice": "Close an offer"
      },
      "constructor": "Constructor, take _tokenAddress",
      "getMarket(uint256,uint256)": {
        "notice": "Returns a market"
      },
      "openOffer(uint256,uint256,uint256,uint256,uint256,uint256)": {
        "notice": "Open a new offer"
      },
      "removeAdmin(address)": {
        "notice": "Remove address from admins"
      },
      "setEventResult(uint256,uint256[],uint256[])": {
        "notice": "Set results to an event markets"
      }
    },
    "notice": "This contract is used for SocialBet decentralized sports betting platform"
  }
}