{
  "contractName": "SocialBet",
  "abi": [
    {
      "constant": true,
      "inputs": [
        {
          "name": "",
          "type": "uint256"
        }
      ],
      "name": "events",
      "outputs": [
        {
          "name": "_id",
          "type": "uint256"
        },
        {
          "name": "_ipfsAddress",
          "type": "bytes32"
        },
        {
          "name": "_state",
          "type": "uint8"
        }
      ],
      "payable": false,
      "stateMutability": "view",
      "type": "function"
    },
    {
      "constant": true,
      "inputs": [
        {
          "name": "",
          "type": "uint256"
        }
      ],
      "name": "bets",
      "outputs": [
        {
          "name": "_id",
          "type": "uint256"
        },
        {
          "name": "_eventId",
          "type": "uint256"
        },
        {
          "name": "_marketIndex",
          "type": "uint256"
        },
        {
          "name": "_backPosition",
          "type": "uint256"
        },
        {
          "name": "_layPosition",
          "type": "uint256"
        },
        {
          "name": "_amount",
          "type": "uint256"
        },
        {
          "name": "_outcome",
          "type": "uint8"
        },
        {
          "name": "_state",
          "type": "uint8"
        }
      ],
      "payable": false,
      "stateMutability": "view",
      "type": "function"
    },
    {
      "constant": true,
      "inputs": [],
      "name": "weth",
      "outputs": [
        {
          "name": "",
          "type": "address"
        }
      ],
      "payable": false,
      "stateMutability": "view",
      "type": "function"
    },
    {
      "constant": true,
      "inputs": [
        {
          "name": "",
          "type": "address"
        }
      ],
      "name": "admins",
      "outputs": [
        {
          "name": "",
          "type": "bool"
        }
      ],
      "payable": false,
      "stateMutability": "view",
      "type": "function"
    },
    {
      "constant": true,
      "inputs": [],
      "name": "m_nbPositions",
      "outputs": [
        {
          "name": "",
          "type": "uint256"
        }
      ],
      "payable": false,
      "stateMutability": "view",
      "type": "function"
    },
    {
      "constant": true,
      "inputs": [
        {
          "name": "",
          "type": "uint256"
        }
      ],
      "name": "offers",
      "outputs": [
        {
          "name": "_id",
          "type": "uint256"
        },
        {
          "name": "_eventId",
          "type": "uint256"
        },
        {
          "name": "_marketIndex",
          "type": "uint256"
        },
        {
          "name": "_owner",
          "type": "address"
        },
        {
          "name": "_amount",
          "type": "uint256"
        },
        {
          "name": "_price",
          "type": "uint256"
        },
        {
          "name": "_outcome",
          "type": "uint8"
        },
        {
          "name": "_timestampExpiration",
          "type": "uint256"
        }
      ],
      "payable": false,
      "stateMutability": "view",
      "type": "function"
    },
    {
      "constant": true,
      "inputs": [],
      "name": "owner",
      "outputs": [
        {
          "name": "",
          "type": "address"
        }
      ],
      "payable": false,
      "stateMutability": "view",
      "type": "function"
    },
    {
      "constant": true,
      "inputs": [],
      "name": "m_nbBets",
      "outputs": [
        {
          "name": "",
          "type": "uint256"
        }
      ],
      "payable": false,
      "stateMutability": "view",
      "type": "function"
    },
    {
      "constant": true,
      "inputs": [
        {
          "name": "",
          "type": "uint256"
        }
      ],
      "name": "positions",
      "outputs": [
        {
          "name": "_id",
          "type": "uint256"
        },
        {
          "name": "_betId",
          "type": "uint256"
        },
        {
          "name": "_owner",
          "type": "address"
        },
        {
          "name": "_amount",
          "type": "uint256"
        }
      ],
      "payable": false,
      "stateMutability": "view",
      "type": "function"
    },
    {
      "constant": true,
      "inputs": [],
      "name": "m_minAmount",
      "outputs": [
        {
          "name": "",
          "type": "uint256"
        }
      ],
      "payable": false,
      "stateMutability": "view",
      "type": "function"
    },
    {
      "constant": true,
      "inputs": [],
      "name": "m_nbOffers",
      "outputs": [
        {
          "name": "",
          "type": "uint256"
        }
      ],
      "payable": false,
      "stateMutability": "view",
      "type": "function"
    },
    {
      "constant": true,
      "inputs": [],
      "name": "m_nbEvents",
      "outputs": [
        {
          "name": "",
          "type": "uint256"
        }
      ],
      "payable": false,
      "stateMutability": "view",
      "type": "function"
    },
    {
      "inputs": [
        {
          "name": "_weth",
          "type": "address"
        }
      ],
      "payable": false,
      "stateMutability": "nonpayable",
      "type": "constructor"
    },
    {
      "anonymous": false,
      "inputs": [
        {
          "indexed": true,
          "name": "account",
          "type": "address"
        },
        {
          "indexed": false,
          "name": "amount",
          "type": "uint256"
        }
      ],
      "name": "LogDeposit",
      "type": "event"
    },
    {
      "anonymous": false,
      "inputs": [
        {
          "indexed": true,
          "name": "account",
          "type": "address"
        },
        {
          "indexed": false,
          "name": "amount",
          "type": "uint256"
        }
      ],
      "name": "LogWithdraw",
      "type": "event"
    },
    {
      "anonymous": false,
      "inputs": [
        {
          "indexed": true,
          "name": "account",
          "type": "address"
        },
        {
          "indexed": false,
          "name": "oldBalance",
          "type": "uint256"
        },
        {
          "indexed": false,
          "name": "newBalance",
          "type": "uint256"
        }
      ],
      "name": "LogBalanceChange",
      "type": "event"
    },
    {
      "anonymous": false,
      "inputs": [
        {
          "indexed": false,
          "name": "id",
          "type": "uint256"
        },
        {
          "indexed": false,
          "name": "ipfsAddress",
          "type": "bytes32"
        },
        {
          "indexed": false,
          "name": "markets",
          "type": "uint256[]"
        }
      ],
      "name": "LogNewEvent",
      "type": "event"
    },
    {
      "anonymous": false,
      "inputs": [
        {
          "indexed": false,
          "name": "id",
          "type": "uint256"
        },
        {
          "indexed": false,
          "name": "markets",
          "type": "uint256[]"
        }
      ],
      "name": "LogNewMarkets",
      "type": "event"
    },
    {
      "anonymous": false,
      "inputs": [
        {
          "indexed": false,
          "name": "id",
          "type": "uint256"
        }
      ],
      "name": "LogResultEvent",
      "type": "event"
    },
    {
      "anonymous": false,
      "inputs": [
        {
          "indexed": false,
          "name": "id",
          "type": "uint256"
        }
      ],
      "name": "LogCancelEvent",
      "type": "event"
    },
    {
      "anonymous": false,
      "inputs": [
        {
          "indexed": false,
          "name": "id",
          "type": "uint256"
        },
        {
          "indexed": true,
          "name": "eventId",
          "type": "uint256"
        },
        {
          "indexed": true,
          "name": "marketIndex",
          "type": "uint256"
        },
        {
          "indexed": true,
          "name": "owner",
          "type": "address"
        },
        {
          "indexed": false,
          "name": "amount",
          "type": "uint256"
        },
        {
          "indexed": false,
          "name": "price",
          "type": "uint256"
        },
        {
          "indexed": false,
          "name": "outcome",
          "type": "uint256"
        },
        {
          "indexed": false,
          "name": "timestampExpiration",
          "type": "uint256"
        }
      ],
      "name": "LogNewOffer",
      "type": "event"
    },
    {
      "anonymous": false,
      "inputs": [
        {
          "indexed": true,
          "name": "id",
          "type": "uint256"
        },
        {
          "indexed": false,
          "name": "amount",
          "type": "uint256"
        },
        {
          "indexed": false,
          "name": "price",
          "type": "uint256"
        }
      ],
      "name": "LogUpdateOffer",
      "type": "event"
    },
    {
      "anonymous": false,
      "inputs": [
        {
          "indexed": false,
          "name": "id",
          "type": "uint256"
        },
        {
          "indexed": true,
          "name": "eventId",
          "type": "uint256"
        },
        {
          "indexed": true,
          "name": "marketIndex",
          "type": "uint256"
        },
        {
          "indexed": false,
          "name": "backPosition",
          "type": "uint256"
        },
        {
          "indexed": false,
          "name": "layPosition",
          "type": "uint256"
        },
        {
          "indexed": false,
          "name": "amount",
          "type": "uint256"
        },
        {
          "indexed": false,
          "name": "outcome",
          "type": "uint256"
        }
      ],
      "name": "LogNewBet",
      "type": "event"
    },
    {
      "anonymous": false,
      "inputs": [
        {
          "indexed": false,
          "name": "id",
          "type": "uint256"
        }
      ],
      "name": "LogBetClosed",
      "type": "event"
    },
    {
      "anonymous": false,
      "inputs": [
        {
          "indexed": false,
          "name": "id",
          "type": "uint256"
        },
        {
          "indexed": true,
          "name": "betId",
          "type": "uint256"
        },
        {
          "indexed": true,
          "name": "owner",
          "type": "address"
        },
        {
          "indexed": false,
          "name": "amount",
          "type": "uint256"
        }
      ],
      "name": "LogNewPosition",
      "type": "event"
    },
    {
      "constant": false,
      "inputs": [
        {
          "name": "_addr",
          "type": "address"
        }
      ],
      "name": "addAdmin",
      "outputs": [],
      "payable": false,
      "stateMutability": "nonpayable",
      "type": "function"
    },
    {
      "constant": false,
      "inputs": [
        {
          "name": "_addr",
          "type": "address"
        }
      ],
      "name": "removeAdmin",
      "outputs": [],
      "payable": false,
      "stateMutability": "nonpayable",
      "type": "function"
    },
    {
      "constant": false,
      "inputs": [
        {
          "name": "_ipfsAddress",
          "type": "bytes32"
        },
        {
          "name": "_markets",
          "type": "uint256[]"
        },
        {
          "name": "_data",
          "type": "bytes10[]"
        }
      ],
      "name": "addEvent",
      "outputs": [],
      "payable": false,
      "stateMutability": "nonpayable",
      "type": "function"
    },
    {
      "constant": false,
      "inputs": [
        {
          "name": "_eventId",
          "type": "uint256"
        },
        {
          "name": "_markets",
          "type": "uint256[]"
        },
        {
          "name": "_data",
          "type": "bytes10[]"
        }
      ],
      "name": "addMarkets",
      "outputs": [],
      "payable": false,
      "stateMutability": "nonpayable",
      "type": "function"
    },
    {
      "constant": false,
      "inputs": [
        {
          "name": "_eventId",
          "type": "uint256"
        },
        {
          "name": "_markets",
          "type": "uint256[]"
        },
        {
          "name": "_outcomes",
          "type": "uint256[]"
        }
      ],
      "name": "setEventResult",
      "outputs": [],
      "payable": false,
      "stateMutability": "nonpayable",
      "type": "function"
    },
    {
      "constant": false,
      "inputs": [
        {
          "name": "_eventId",
          "type": "uint256"
        }
      ],
      "name": "cancelEvent",
      "outputs": [],
      "payable": false,
      "stateMutability": "nonpayable",
      "type": "function"
    },
    {
      "constant": false,
      "inputs": [
        {
          "name": "_eventId",
          "type": "uint256"
        },
        {
          "name": "_marketIndex",
          "type": "uint256"
        },
        {
          "name": "_amount",
          "type": "uint256"
        },
        {
          "name": "_price",
          "type": "uint256"
        },
        {
          "name": "_outcome",
          "type": "uint256"
        },
        {
          "name": "_timestampExpiration",
          "type": "uint256"
        }
      ],
      "name": "openOffer",
      "outputs": [],
      "payable": false,
      "stateMutability": "nonpayable",
      "type": "function"
    },
    {
      "constant": false,
      "inputs": [
        {
          "name": "_offerId",
          "type": "uint256"
        }
      ],
      "name": "closeOffer",
      "outputs": [],
      "payable": false,
      "stateMutability": "nonpayable",
      "type": "function"
    },
    {
      "constant": false,
      "inputs": [
        {
          "name": "_offerId",
          "type": "uint256"
        },
        {
          "name": "_amount",
          "type": "uint256"
        }
      ],
      "name": "buyOffer",
      "outputs": [],
      "payable": false,
      "stateMutability": "nonpayable",
      "type": "function"
    },
    {
      "constant": false,
      "inputs": [
        {
          "name": "_offerIdArr",
          "type": "uint256[]"
        },
        {
          "name": "_amount",
          "type": "uint256"
        }
      ],
      "name": "buyOfferBulk",
      "outputs": [],
      "payable": false,
      "stateMutability": "nonpayable",
      "type": "function"
    },
    {
      "constant": false,
      "inputs": [
        {
          "name": "_betId",
          "type": "uint256"
        }
      ],
      "name": "claimBetEarnings",
      "outputs": [],
      "payable": false,
      "stateMutability": "nonpayable",
      "type": "function"
    },
    {
      "constant": true,
      "inputs": [
        {
          "name": "_eventId",
          "type": "uint256"
        },
        {
          "name": "_marketId",
          "type": "uint256"
        }
      ],
      "name": "getMarket",
      "outputs": [
        {
          "components": [
            {
              "name": "_type",
              "type": "uint8"
            },
            {
              "name": "_data",
              "type": "bytes10"
            },
            {
              "name": "_outcome",
              "type": "uint8"
            },
            {
              "name": "_active",
              "type": "bool"
            }
          ],
          "name": "",
          "type": "tuple"
        }
      ],
      "payable": false,
      "stateMutability": "view",
      "type": "function"
    }
  ],
  "bytecode": "0x6080604052662386f26fc10000600b553480156200001c57600080fd5b506040516020806200596483398101806040526200003e9190810190620001db565b336000806101000a81548173ffffffffffffffffffffffffffffffffffffffff021916908373ffffffffffffffffffffffffffffffffffffffff16021790555080600160006101000a81548173ffffffffffffffffffffffffffffffffffffffff021916908373ffffffffffffffffffffffffffffffffffffffff160217905550620000d033620000d760201b60201c565b50620002ca565b3373ffffffffffffffffffffffffffffffffffffffff166000809054906101000a900473ffffffffffffffffffffffffffffffffffffffff1673ffffffffffffffffffffffffffffffffffffffff161462000169576040517f08c379a0000000000000000000000000000000000000000000000000000000008152600401620001609062000249565b60405180910390fd5b6001600260008373ffffffffffffffffffffffffffffffffffffffff1673ffffffffffffffffffffffffffffffffffffffff16815260200190815260200160002060006101000a81548160ff02191690831515021790555050565b600081519050620001d581620002b0565b92915050565b600060208284031215620001ee57600080fd5b6000620001fe84828501620001c4565b91505092915050565b6000620002166013836200026b565b91507f53656e646572206974206e6f74206f776e6572000000000000000000000000006000830152602082019050919050565b60006020820190508181036000830152620002648162000207565b9050919050565b600082825260208201905092915050565b6000620002898262000290565b9050919050565b600073ffffffffffffffffffffffffffffffffffffffff82169050919050565b620002bb816200027c565b8114620002c757600080fd5b50565b61568a80620002da6000396000f3fe608060405234801561001057600080fd5b50600436106101585760003560e01c80638a72ea6a116100c3578063befe00bd1161007c578063befe00bd146103d8578063d2a3dcdc146103f4578063d9b210a614610410578063e581da421461042e578063f10e8a211461044a578063f605a8471461046657610158565b80638a72ea6a146102f65780638da5cb5b1461032d5780638fcafc341461034b57806399fbab8814610369578063abcf184c1461039c578063bdbd84df146103ba57610158565b8063310a6c5811610115578063310a6c58146102365780633f69babd146102525780633fc8cef31461026e578063429b62e51461028c5780634fcdea20146102bc57806370480275146102da57610158565b8063034db1d01461015d57806305477ddf146101795780630b7914301461019557806315899420146101c75780631785f53c146101e357806322af00fa146101ff575b600080fd5b61017760048036036101729190810190613f88565b610496565b005b610193600480360361018e9190810190613f36565b6106f7565b005b6101af60048036036101aa9190810190613f36565b610888565b6040516101be9392919061524f565b60405180910390f35b6101e160048036036101dc9190810190613e2c565b6108bf565b005b6101fd60048036036101f89190810190613e03565b610b8e565b005b61021960048036036102149190810190613f36565b610d08565b60405161022d9897969594939291906153c5565b60405180910390f35b610250600480360361024b9190810190614011565b610d6a565b005b61026c60048036036102679190810190613f36565b610fc7565b005b61027661119c565b6040516102839190614dac565b60405180910390f35b6102a660048036036102a19190810190613e03565b6111c2565b6040516102b39190614d91565b60405180910390f35b6102c46111e2565b6040516102d191906151c2565b60405180910390f35b6102f460048036036102ef9190810190613e03565b6111e8565b005b610310600480360361030b9190810190613f36565b6112d2565b6040516103249897969594939291906152f4565b60405180910390f35b610335611347565b6040516103429190614c8d565b60405180910390f35b61035361136c565b60405161036091906151c2565b60405180910390f35b610383600480360361037e9190810190613f36565b611372565b60405161039394939291906152af565b60405180910390f35b6103a46113c2565b6040516103b191906151c2565b60405180910390f35b6103c26113c8565b6040516103cf91906151c2565b60405180910390f35b6103f260048036036103ed919081019061409a565b6113ce565b005b61040e60048036036104099190810190613f36565b612173565b005b6104186129a4565b60405161042591906151c2565b60405180910390f35b61044860048036036104439190810190613ead565b6129aa565b005b610464600480360361045f91908101906140d6565b612b0c565b005b610480600480360361047b919081019061409a565b6133ec565b60405161048d91906151a7565b60405180910390f35b600260003373ffffffffffffffffffffffffffffffffffffffff1673ffffffffffffffffffffffffffffffffffffffff16815260200190815260200160002060009054906101000a900460ff16610522576040517f08c379a000000000000000000000000000000000000000000000000000000000815260040161051990615167565b60405180910390fd5b8460008111610566576040517f08c379a000000000000000000000000000000000000000000000000000000000815260040161055d90614fe7565b60405180910390fd5b6007548111156105ab576040517f08c379a00000000000000000000000000000000000000000000000000000000081526004016105a290614e67565b60405180910390fd5b600060028111156105b857fe5b6003600083815260200190815260200160002060030160009054906101000a900460ff1660028111156105e757fe5b14610627576040517f08c379a000000000000000000000000000000000000000000000000000000000815260040161061e90614de7565b60405180910390fd5b6106b486868680806020026020016040519081016040528093929190818152602001838360200280828437600081840152601f19601f82011690508083019250505050505050858580806020026020016040519081016040528093929190818152602001838360200280828437600081840152601f19601f820116905080830192505050505050506134ec565b7f83a57d64c7140437012fbf71b05fbb1a7bc4e7ae61290fa863966646a422fe768686866040516106e7939291906151dd565b60405180910390a1505050505050565b6000811161073a576040517f08c379a0000000000000000000000000000000000000000000000000000000008152600401610731906150c7565b60405180910390fd5b60085481111561077f576040517f08c379a000000000000000000000000000000000000000000000000000000000815260040161077690615127565b60405180910390fd5b3373ffffffffffffffffffffffffffffffffffffffff166004600083815260200190815260200160002060030160009054906101000a900473ffffffffffffffffffffffffffffffffffffffff1673ffffffffffffffffffffffffffffffffffffffff1614610823576040517f08c379a000000000000000000000000000000000000000000000000000000000815260040161081a90615107565b60405180910390fd5b600060046000838152602001908152602001600020600401541161087c576040517f08c379a000000000000000000000000000000000000000000000000000000000815260040161087390614f87565b60405180910390fd5b6108858161366c565b50565b60036020528060005260406000206000915090508060000154908060010154908060030160009054906101000a900460ff16905083565b600b54811015610904576040517f08c379a00000000000000000000000000000000000000000000000000000000081526004016108fb90615147565b60405180910390fd5b80600160009054906101000a900473ffffffffffffffffffffffffffffffffffffffff1673ffffffffffffffffffffffffffffffffffffffff166370a08231336040518263ffffffff1660e01b81526004016109609190614c72565b60206040518083038186803b15801561097857600080fd5b505afa15801561098c573d6000803e3d6000fd5b505050506040513d601f19601f820116820180604052506109b09190810190613f5f565b10156109f1576040517f08c379a00000000000000000000000000000000000000000000000000000000081526004016109e890614ea7565b60405180910390fd5b80600160009054906101000a900473ffffffffffffffffffffffffffffffffffffffff1673ffffffffffffffffffffffffffffffffffffffff1663dd62ed3e33306040518363ffffffff1660e01b8152600401610a4f929190614ca8565b60206040518083038186803b158015610a6757600080fd5b505afa158015610a7b573d6000803e3d6000fd5b505050506040513d601f19601f82011682018060405250610a9f9190810190613f5f565b1015610ae0576040517f08c379a0000000000000000000000000000000000000000000000000000000008152600401610ad790614e07565b60405180910390fd5b6000838390509050600082905060008060008090505b84811015610b8457600b54841015610b0d57610b84565b878782818110610b1957fe5b90506020020135915083600460008481526020019081526020016000206005015411610b5d5760046000838152602001908152602001600020600501549250610b61565b8392505b610b6b82846113ce565b610b75848461370d565b93508080600101915050610af6565b5050505050505050565b3373ffffffffffffffffffffffffffffffffffffffff166000809054906101000a900473ffffffffffffffffffffffffffffffffffffffff1673ffffffffffffffffffffffffffffffffffffffff1614610c1d576040517f08c379a0000000000000000000000000000000000000000000000000000000008152600401610c1490614e47565b60405180910390fd5b6000809054906101000a900473ffffffffffffffffffffffffffffffffffffffff1673ffffffffffffffffffffffffffffffffffffffff168173ffffffffffffffffffffffffffffffffffffffff161415610cad576040517f08c379a0000000000000000000000000000000000000000000000000000000008152600401610ca490614ec7565b60405180910390fd5b6000600260008373ffffffffffffffffffffffffffffffffffffffff1673ffffffffffffffffffffffffffffffffffffffff16815260200190815260200160002060006101000a81548160ff02191690831515021790555050565b60056020528060005260406000206000915090508060000154908060010154908060020154908060030154908060040154908060050154908060060160009054906101000a900460ff16908060060160019054906101000a900460ff16905088565b600260003373ffffffffffffffffffffffffffffffffffffffff1673ffffffffffffffffffffffffffffffffffffffff16815260200190815260200160002060009054906101000a900460ff16610df6576040517f08c379a0000000000000000000000000000000000000000000000000000000008152600401610ded90615167565b60405180910390fd5b8460008111610e3a576040517f08c379a0000000000000000000000000000000000000000000000000000000008152600401610e3190614fe7565b60405180910390fd5b600754811115610e7f576040517f08c379a0000000000000000000000000000000000000000000000000000000008152600401610e7690614e67565b60405180910390fd5b60006002811115610e8c57fe5b6003600083815260200190815260200160002060030160009054906101000a900460ff166002811115610ebb57fe5b14610efb576040517f08c379a0000000000000000000000000000000000000000000000000000000008152600401610ef290614de7565b60405180910390fd5b610f8886868680806020026020016040519081016040528093929190818152602001838360200280828437600081840152601f19601f82011690508083019250505050505050858580806020026020016040519081016040528093929190818152602001838360200280828437600081840152601f19601f82011690508083019250505050505050613724565b7f6feb41cd6e7361ff5b27cb5a71484afb9dfeda0bd8e2f8255295286ddf9ed9c186604051610fb791906151c2565b60405180910390a1505050505050565b600260003373ffffffffffffffffffffffffffffffffffffffff1673ffffffffffffffffffffffffffffffffffffffff16815260200190815260200160002060009054906101000a900460ff16611053576040517f08c379a000000000000000000000000000000000000000000000000000000000815260040161104a90615167565b60405180910390fd5b8060008111611097576040517f08c379a000000000000000000000000000000000000000000000000000000000815260040161108e90614fe7565b60405180910390fd5b6007548111156110dc576040517f08c379a00000000000000000000000000000000000000000000000000000000081526004016110d390614e67565b60405180910390fd5b600060028111156110e957fe5b6003600083815260200190815260200160002060030160009054906101000a900460ff16600281111561111857fe5b14611158576040517f08c379a000000000000000000000000000000000000000000000000000000000815260040161114f90614de7565b60405180910390fd5b6111618261381f565b7f5659144559a842a58e7472643e70d4cd34ef75db0b21038dabc8d4b4f59c30508260405161119091906151c2565b60405180910390a15050565b600160009054906101000a900473ffffffffffffffffffffffffffffffffffffffff1681565b60026020528060005260406000206000915054906101000a900460ff1681565b600a5481565b3373ffffffffffffffffffffffffffffffffffffffff166000809054906101000a900473ffffffffffffffffffffffffffffffffffffffff1673ffffffffffffffffffffffffffffffffffffffff1614611277576040517f08c379a000000000000000000000000000000000000000000000000000000000815260040161126e90614e47565b60405180910390fd5b6001600260008373ffffffffffffffffffffffffffffffffffffffff1673ffffffffffffffffffffffffffffffffffffffff16815260200190815260200160002060006101000a81548160ff02191690831515021790555050565b60046020528060005260406000206000915090508060000154908060010154908060020154908060030160009054906101000a900473ffffffffffffffffffffffffffffffffffffffff16908060040154908060050154908060060160009054906101000a900460ff16908060070154905088565b6000809054906101000a900473ffffffffffffffffffffffffffffffffffffffff1681565b60095481565b60066020528060005260406000206000915090508060000154908060010154908060020160009054906101000a900473ffffffffffffffffffffffffffffffffffffffff16908060030154905084565b600b5481565b60085481565b8160008111611412576040517f08c379a0000000000000000000000000000000000000000000000000000000008152600401611409906150c7565b60405180910390fd5b600854811115611457576040517f08c379a000000000000000000000000000000000000000000000000000000000815260040161144e90615127565b60405180910390fd5b426004600083815260200190815260200160002060070154116114af576040517f08c379a00000000000000000000000000000000000000000000000000000000081526004016114a690615087565b60405180910390fd5b600060028111156114bc57fe5b600360006004600085815260200190815260200160002060010154815260200190815260200160002060030160009054906101000a900460ff16600281111561150157fe5b14611541576040517f08c379a000000000000000000000000000000000000000000000000000000000815260040161153890614de7565b60405180910390fd5b600b546004600083815260200190815260200160002060040154101561159c576040517f08c379a000000000000000000000000000000000000000000000000000000000815260040161159390614f67565b60405180910390fd5b600b54600460008381526020019081526020016000206005015410156115f7576040517f08c379a00000000000000000000000000000000000000000000000000000000081526004016115ee90614f27565b60405180910390fd5b600b54600160009054906101000a900473ffffffffffffffffffffffffffffffffffffffff1673ffffffffffffffffffffffffffffffffffffffff166370a082316004600085815260200190815260200160002060030160009054906101000a900473ffffffffffffffffffffffffffffffffffffffff166040518263ffffffff1660e01b815260040161168b9190614c57565b60206040518083038186803b1580156116a357600080fd5b505afa1580156116b7573d6000803e3d6000fd5b505050506040513d601f19601f820116820180604052506116db9190810190613f5f565b101561171c576040517f08c379a000000000000000000000000000000000000000000000000000000000815260040161171390614dc7565b60405180910390fd5b600b54600160009054906101000a900473ffffffffffffffffffffffffffffffffffffffff1673ffffffffffffffffffffffffffffffffffffffff1663dd62ed3e6004600085815260200190815260200160002060030160009054906101000a900473ffffffffffffffffffffffffffffffffffffffff16306040518363ffffffff1660e01b81526004016117b2929190614d08565b60206040518083038186803b1580156117ca57600080fd5b505afa1580156117de573d6000803e3d6000fd5b505050506040513d601f19601f820116820180604052506118029190810190613f5f565b1015611843576040517f08c379a000000000000000000000000000000000000000000000000000000000815260040161183a90614e27565b60405180910390fd5b600b54821015611888576040517f08c379a000000000000000000000000000000000000000000000000000000000815260040161187f90615147565b60405180910390fd5b81600160009054906101000a900473ffffffffffffffffffffffffffffffffffffffff1673ffffffffffffffffffffffffffffffffffffffff166370a08231336040518263ffffffff1660e01b81526004016118e49190614c72565b60206040518083038186803b1580156118fc57600080fd5b505afa158015611910573d6000803e3d6000fd5b505050506040513d601f19601f820116820180604052506119349190810190613f5f565b1015611975576040517f08c379a000000000000000000000000000000000000000000000000000000000815260040161196c90614ea7565b60405180910390fd5b81600160009054906101000a900473ffffffffffffffffffffffffffffffffffffffff1673ffffffffffffffffffffffffffffffffffffffff1663dd62ed3e33306040518363ffffffff1660e01b81526004016119d3929190614ca8565b60206040518083038186803b1580156119eb57600080fd5b505afa1580156119ff573d6000803e3d6000fd5b505050506040513d601f19601f82011682018060405250611a239190810190613f5f565b1015611a64576040517f08c379a0000000000000000000000000000000000000000000000000000000008152600401611a5b90614e07565b60405180910390fd5b611a6c613b7f565b60046000858152602001908152602001600020604051806101000160405290816000820154815260200160018201548152602001600282015481526020016003820160009054906101000a900473ffffffffffffffffffffffffffffffffffffffff1673ffffffffffffffffffffffffffffffffffffffff1673ffffffffffffffffffffffffffffffffffffffff16815260200160048201548152602001600582015481526020016006820160009054906101000a900460ff166008811115611b3157fe5b6008811115611b3c57fe5b815260200160078201548152505090506000839050838260a001511015611b65578160a0015190505b6000611b82611b78846080015184613907565b8460a0015161393b565b90506000600160009054906101000a900473ffffffffffffffffffffffffffffffffffffffff1673ffffffffffffffffffffffffffffffffffffffff166370a0823185606001516040518263ffffffff1660e01b8152600401611be59190614c57565b60206040518083038186803b158015611bfd57600080fd5b505afa158015611c11573d6000803e3d6000fd5b505050506040513d601f19601f82011682018060405250611c359190810190613f5f565b90506000600160009054906101000a900473ffffffffffffffffffffffffffffffffffffffff1673ffffffffffffffffffffffffffffffffffffffff1663dd62ed3e8660600151306040518363ffffffff1660e01b8152600401611c9a929190614d08565b60206040518083038186803b158015611cb257600080fd5b505afa158015611cc6573d6000803e3d6000fd5b505050506040513d601f19601f82011682018060405250611cea9190810190613f5f565b90506000818311611cfb5782611cfd565b815b905083811015611d2857809350611d25611d1b858860a00151613907565b876080015161393b565b94505b6000611d3887608001518661370d565b90506000611d57611d4d838a60a00151613907565b896080015161393b565b9050600160009054906101000a900473ffffffffffffffffffffffffffffffffffffffff1673ffffffffffffffffffffffffffffffffffffffff166323b872dd33308a6040518463ffffffff1660e01b8152600401611db893929190614cd1565b602060405180830381600087803b158015611dd257600080fd5b505af1158015611de6573d6000803e3d6000fd5b505050506040513d601f19601f82011682018060405250611e0a9190810190613e84565b50600160009054906101000a900473ffffffffffffffffffffffffffffffffffffffff1673ffffffffffffffffffffffffffffffffffffffff166323b872dd896060015130896040518463ffffffff1660e01b8152600401611e6e93929190614d31565b602060405180830381600087803b158015611e8857600080fd5b505af1158015611e9c573d6000803e3d6000fd5b505050506040513d601f19601f82011682018060405250611ec09190810190613e84565b50611ece600954600161394f565b600981905550611edc613be5565b600954816000018181525050886020015181602001818152505088604001518160400181815250508860c001518160c001906008811115611f1957fe5b90816008811115611f2657fe5b8152505060008160e001906002811115611f3c57fe5b90816002811115611f4957fe5b81525050611f55613c40565b611f648260000151338b61396b565b9050611f6e613c40565b611f8183600001518c606001518b61396b565b90508160000151836060018181525050806000015183608001818152505080606001518260600151018360a001818152505082600560006009548152602001908152602001600020600082015181600001556020820151816001015560408201518160020155606082015181600301556080820151816004015560a0820151816005015560c08201518160060160006101000a81548160ff0219169083600881111561202957fe5b021790555060e08201518160060160016101000a81548160ff0219169083600281111561205257fe5b0217905550905050826040015183602001517f3ef5d5101849c8390db15bde5a53a0ef5e3a06015177f4e4f74a083a6c5e0b2b8560000151866060015187608001518860a001518960c0015160088111156120a957fe5b6040516120ba959493929190615372565b60405180910390a384600460008d6000015181526020019081526020016000206004018190555083600460008d60000151815260200190815260200160002060050181905550600b548510806121115750600b5484105b15612128576121238b6000015161366c565b612163565b8d7f5ea42548ff40d620617772fd22184dc535e409eda210646ca0d470648921e591868660405161215a929190615286565b60405180910390a25b5050505050505050505050505050565b600081116121b6576040517f08c379a00000000000000000000000000000000000000000000000000000000081526004016121ad90615027565b60405180910390fd5b6009548111156121fb576040517f08c379a00000000000000000000000000000000000000000000000000000000081526004016121f290614fc7565b60405180910390fd5b6000600281111561220857fe5b6005600083815260200190815260200160002060060160019054906101000a900460ff16600281111561223757fe5b14612277576040517f08c379a000000000000000000000000000000000000000000000000000000000815260040161226e90615007565b60405180910390fd5b6000600281111561228457fe5b600360006005600085815260200190815260200160002060010154815260200190815260200160002060030160009054906101000a900460ff1660028111156122c957fe5b11612309576040517f08c379a000000000000000000000000000000000000000000000000000000000815260040161230090615047565b60405180910390fd5b612311613be5565b60056000838152602001908152602001600020604051806101000160405290816000820154815260200160018201548152602001600282015481526020016003820154815260200160048201548152602001600582015481526020016006820160009054906101000a900460ff16600881111561238a57fe5b600881111561239557fe5b81526020016006820160019054906101000a900460ff1660028111156123b757fe5b60028111156123c257fe5b8152505090506000600360008360200151815260200190815260200160002090506002808111156123ef57fe5b8160030160009054906101000a900460ff16600281111561240c57fe5b141561261f57600160009054906101000a900473ffffffffffffffffffffffffffffffffffffffff1673ffffffffffffffffffffffffffffffffffffffff1663a9059cbb600660008560600151815260200190815260200160002060020160009054906101000a900473ffffffffffffffffffffffffffffffffffffffff166006600086606001518152602001908152602001600020600301546040518363ffffffff1660e01b81526004016124c3929190614d68565b602060405180830381600087803b1580156124dd57600080fd5b505af11580156124f1573d6000803e3d6000fd5b505050506040513d601f19601f820116820180604052506125159190810190613e84565b50600160009054906101000a900473ffffffffffffffffffffffffffffffffffffffff1673ffffffffffffffffffffffffffffffffffffffff1663a9059cbb600660008560800151815260200190815260200160002060020160009054906101000a900473ffffffffffffffffffffffffffffffffffffffff166006600086608001518152602001908152602001600020600301546040518363ffffffff1660e01b81526004016125c7929190614d68565b602060405180830381600087803b1580156125e157600080fd5b505af11580156125f5573d6000803e3d6000fd5b505050506040513d601f19601f820116820180604052506126199190810190613e84565b50612898565b8160c00151600881111561262f57fe5b81600201600084604001518152602001908152602001600020600001600b9054906101000a900460ff16600881111561266457fe5b141561275d57600160009054906101000a900473ffffffffffffffffffffffffffffffffffffffff1673ffffffffffffffffffffffffffffffffffffffff1663a9059cbb600660008560600151815260200190815260200160002060020160009054906101000a900473ffffffffffffffffffffffffffffffffffffffff168460a001516040518363ffffffff1660e01b8152600401612705929190614d68565b602060405180830381600087803b15801561271f57600080fd5b505af1158015612733573d6000803e3d6000fd5b505050506040513d601f19601f820116820180604052506127579190810190613e84565b50612897565b8160c00151600881111561276d57fe5b81600201600084604001518152602001908152602001600020600001600b9054906101000a900460ff1660088111156127a257fe5b1461289657600160009054906101000a900473ffffffffffffffffffffffffffffffffffffffff1673ffffffffffffffffffffffffffffffffffffffff1663a9059cbb600660008560800151815260200190815260200160002060020160009054906101000a900473ffffffffffffffffffffffffffffffffffffffff168460a001516040518363ffffffff1660e01b8152600401612842929190614d68565b602060405180830381600087803b15801561285c57600080fd5b505af1158015612870573d6000803e3d6000fd5b505050506040513d601f19601f820116820180604052506128949190810190613e84565b505b5b5b60018260e0019060028111156128aa57fe5b908160028111156128b757fe5b81525050816005600084600001518152602001908152602001600020600082015181600001556020820151816001015560408201518160020155606082015181600301556080820151816004015560a0820151816005015560c08201518160060160006101000a81548160ff0219169083600881111561293357fe5b021790555060e08201518160060160016101000a81548160ff0219169083600281111561295c57fe5b02179055509050507f3cfe31b94fb3243d019e7a065369475e0d7e1db829b5de6685043f38275007bd826000015160405161299791906151c2565b60405180910390a1505050565b60075481565b600260003373ffffffffffffffffffffffffffffffffffffffff1673ffffffffffffffffffffffffffffffffffffffff16815260200190815260200160002060009054906101000a900460ff16612a36576040517f08c379a0000000000000000000000000000000000000000000000000000000008152600401612a2d90615167565b60405180910390fd5b6000612ac586868680806020026020016040519081016040528093929190818152602001838360200280828437600081840152601f19601f82011690508083019250505050505050858580806020026020016040519081016040528093929190818152602001838360200280828437600081840152601f19601f82011690508083019250505050505050613a51565b90507f8b6b49aa1acd02b255d510e65edd7f8cdfea08d67550e2157c75b46c730fec2981878787604051612afc949392919061520f565b60405180910390a1505050505050565b8560008111612b50576040517f08c379a0000000000000000000000000000000000000000000000000000000008152600401612b4790614fe7565b60405180910390fd5b600754811115612b95576040517f08c379a0000000000000000000000000000000000000000000000000000000008152600401612b8c90614e67565b60405180910390fd5b60006002811115612ba257fe5b6003600083815260200190815260200160002060030160009054906101000a900460ff166002811115612bd157fe5b14612c11576040517f08c379a0000000000000000000000000000000000000000000000000000000008152600401612c0890614de7565b60405180910390fd5b8686600360008381526020019081526020016000206002016000828152602001908152602001600020600001600c9054906101000a900460ff16612c8a576040517f08c379a0000000000000000000000000000000000000000000000000000000008152600401612c8190614e87565b60405180910390fd5b88888660006005811115612c9a57fe5b826005811115612ca657fe5b6005811115612cb157fe5b1415612d565760046008811115612cc457fe5b811115612d06576040517f08c379a0000000000000000000000000000000000000000000000000000000008152600401612cfd90614ee7565b60405180910390fd5b60026008811115612d1357fe5b811015612d55576040517f08c379a0000000000000000000000000000000000000000000000000000000008152600401612d4c90614ee7565b60405180910390fd5b5b60016005811115612d6357fe5b826005811115612d6f57fe5b6005811115612d7a57fe5b1415612e1f5760036008811115612d8d57fe5b811115612dcf576040517f08c379a0000000000000000000000000000000000000000000000000000000008152600401612dc690614fa7565b60405180910390fd5b60026008811115612ddc57fe5b811015612e1e576040517f08c379a0000000000000000000000000000000000000000000000000000000008152600401612e1590614fa7565b60405180910390fd5b5b60026005811115612e2c57fe5b826005811115612e3857fe5b6005811115612e4357fe5b1415612ee85760066008811115612e5657fe5b811115612e98576040517f08c379a0000000000000000000000000000000000000000000000000000000008152600401612e8f90615187565b60405180910390fd5b60056008811115612ea557fe5b811015612ee7576040517f08c379a0000000000000000000000000000000000000000000000000000000008152600401612ede90615187565b60405180910390fd5b5b60036005811115612ef557fe5b826005811115612f0157fe5b6005811115612f0c57fe5b1415612fb15760036008811115612f1f57fe5b811115612f61576040517f08c379a0000000000000000000000000000000000000000000000000000000008152600401612f5890614f07565b60405180910390fd5b60026008811115612f6e57fe5b811015612fb0576040517f08c379a0000000000000000000000000000000000000000000000000000000008152600401612fa790614f07565b60405180910390fd5b5b60046005811115612fbe57fe5b826005811115612fca57fe5b6005811115612fd557fe5b141561307957600880811115612fe757fe5b811115613029576040517f08c379a0000000000000000000000000000000000000000000000000000000008152600401613020906150e7565b60405180910390fd5b6007600881111561303657fe5b811015613078576040517f08c379a000000000000000000000000000000000000000000000000000000000815260040161306f906150e7565b60405180910390fd5b5b60058081111561308557fe5b82600581111561309157fe5b600581111561309c57fe5b141561314157600360088111156130af57fe5b8111156130f1576040517f08c379a00000000000000000000000000000000000000000000000000000000081526004016130e890614f47565b60405180910390fd5b600260088111156130fe57fe5b811015613140576040517f08c379a000000000000000000000000000000000000000000000000000000000815260040161313790614f47565b60405180910390fd5b5b600b54891015613186576040517f08c379a000000000000000000000000000000000000000000000000000000000815260040161317d90615067565b60405180910390fd5b600b548a10156131cb576040517f08c379a00000000000000000000000000000000000000000000000000000000081526004016131c290615147565b60405180910390fd5b4287101561320e576040517f08c379a0000000000000000000000000000000000000000000000000000000008152600401613205906150a7565b60405180910390fd5b61321b600854600161394f565b600881905550613229613b7f565b60405180610100016040528060085481526020018e81526020018d81526020013373ffffffffffffffffffffffffffffffffffffffff1681526020018c81526020018b81526020018a600881111561327d57fe5b600881111561328857fe5b815260200189815250905080600460008360000151815260200190815260200160002060008201518160000155602082015181600101556040820151816002015560608201518160030160006101000a81548173ffffffffffffffffffffffffffffffffffffffff021916908373ffffffffffffffffffffffffffffffffffffffff1602179055506080820151816004015560a0820151816005015560c08201518160060160006101000a81548160ff0219169083600881111561334857fe5b021790555060e08201518160070155905050806060015173ffffffffffffffffffffffffffffffffffffffff16816040015182602001517fb7de6da7777d765cb972cf5c37014a3d218e39f76a8d57830f47547dc14216f5846000015185608001518660a001518760c0015160088111156133bf57fe5b8860e001516040516133d5959493929190615372565b60405180910390a450505050505050505050505050565b6133f4613c7e565b6003600084815260200190815260200160002060020160008381526020019081526020016000206040518060800160405290816000820160009054906101000a900460ff16600581111561344457fe5b600581111561344f57fe5b81526020016000820160019054906101000a900460b01b75ffffffffffffffffffffffffffffffffffffffffffff191675ffffffffffffffffffffffffffffffffffffffffffff1916815260200160008201600b9054906101000a900460ff1660088111156134ba57fe5b60088111156134c557fe5b815260200160008201600c9054906101000a900460ff161515151581525050905092915050565b60008090505b825181101561366657604051806080016040528084838151811061351257fe5b6020026020010151600581111561352557fe5b600581111561353057fe5b815260200183838151811061354157fe5b602002602001015175ffffffffffffffffffffffffffffffffffffffffffff191681526020016000600881111561357457fe5b8152602001600115158152506003600086815260200190815260200160002060020160008584815181106135a457fe5b6020026020010151815260200190815260200160002060008201518160000160006101000a81548160ff021916908360058111156135de57fe5b021790555060208201518160000160016101000a81548169ffffffffffffffffffff021916908360b01c0217905550604082015181600001600b6101000a81548160ff0219169083600881111561363157fe5b0217905550606082015181600001600c6101000a81548160ff02191690831515021790555090505080806001019150506134f2565b50505050565b6000600460008381526020019081526020016000206004018190555060006004600083815260200190815260200160002060050181905550807f5ea42548ff40d620617772fd22184dc535e409eda210646ca0d470648921e59160046000848152602001908152602001600020600401546004600085815260200190815260200160002060050154604051613702929190615286565b60405180910390a250565b60008282111561371957fe5b818303905092915050565b60006003600085815260200190815260200160002090506000600281111561374857fe5b8160030160009054906101000a900460ff16600281111561376557fe5b14156138195760008090505b83518110156137f15782818151811061378657fe5b6020026020010151600881111561379957fe5b8260020160008684815181106137ab57fe5b60200260200101518152602001908152602001600020600001600b6101000a81548160ff021916908360088111156137df57fe5b02179055508080600101915050613771565b5060018160030160006101000a81548160ff0219169083600281111561381357fe5b02179055505b50505050565b613827613cd7565b6003600083815260200190815260200160002060405180606001604052908160008201548152602001600182015481526020016003820160009054906101000a900460ff16600281111561387757fe5b600281111561388257fe5b81525050905060028160400190600281111561389a57fe5b908160028111156138a757fe5b81525050806003600083600001518152602001908152602001600020600082015181600001556020820151816001015560408201518160030160006101000a81548160ff021916908360028111156138fb57fe5b02179055509050505050565b60008083141561391a5760009050613935565b81830290508183828161392957fe5b041461393157fe5b8090505b92915050565b600081838161394657fe5b04905092915050565b60008082840190508381101561396157fe5b8091505092915050565b613973613c40565b613980600a54600161394f565b600a819055506040518060800160405280600a5481526020018581526020018473ffffffffffffffffffffffffffffffffffffffff168152602001838152509050806006600083600001518152602001908152602001600020600082015181600001556020820151816001015560408201518160020160006101000a81548173ffffffffffffffffffffffffffffffffffffffff021916908373ffffffffffffffffffffffffffffffffffffffff16021790555060608201518160030155905050613a4a81613b1b565b9392505050565b6000613a60600754600161394f565b600781905550613a6e613cd7565b60075481600001818152505084816020018181525050600081604001906002811115613a9657fe5b90816002811115613aa357fe5b81525050806003600083600001518152602001908152602001600020600082015181600001556020820151816001015560408201518160030160006101000a81548160ff02191690836002811115613af757fe5b0217905550905050613b0e816000015185856134ec565b6007549150509392505050565b806040015173ffffffffffffffffffffffffffffffffffffffff1681602001517f80d39385dad8355dde22faf7d8393287326187fb23b8098047bd405b72765e4183600001518460600151604051613b74929190615286565b60405180910390a350565b604051806101000160405280600081526020016000815260200160008152602001600073ffffffffffffffffffffffffffffffffffffffff168152602001600081526020016000815260200160006008811115613bd857fe5b8152602001600081525090565b60405180610100016040528060008152602001600081526020016000815260200160008152602001600081526020016000815260200160006008811115613c2857fe5b815260200160006002811115613c3a57fe5b81525090565b60405180608001604052806000815260200160008152602001600073ffffffffffffffffffffffffffffffffffffffff168152602001600081525090565b604051806080016040528060006005811115613c9657fe5b8152602001600075ffffffffffffffffffffffffffffffffffffffffffff1916815260200160006008811115613cc857fe5b81526020016000151581525090565b6040518060600160405280600081526020016000801916815260200160006002811115613d0057fe5b81525090565b600081359050613d15816155f4565b92915050565b60008083601f840112613d2d57600080fd5b8235905067ffffffffffffffff811115613d4657600080fd5b602083019150836020820283011115613d5e57600080fd5b9250929050565b60008083601f840112613d7757600080fd5b8235905067ffffffffffffffff811115613d9057600080fd5b602083019150836020820283011115613da857600080fd5b9250929050565b600081519050613dbe8161560b565b92915050565b600081359050613dd381615622565b92915050565b600081359050613de881615639565b92915050565b600081519050613dfd81615639565b92915050565b600060208284031215613e1557600080fd5b6000613e2384828501613d06565b91505092915050565b600080600060408486031215613e4157600080fd5b600084013567ffffffffffffffff811115613e5b57600080fd5b613e6786828701613d65565b93509350506020613e7a86828701613dd9565b9150509250925092565b600060208284031215613e9657600080fd5b6000613ea484828501613daf565b91505092915050565b600080600080600060608688031215613ec557600080fd5b6000613ed388828901613dc4565b955050602086013567ffffffffffffffff811115613ef057600080fd5b613efc88828901613d65565b9450945050604086013567ffffffffffffffff811115613f1b57600080fd5b613f2788828901613d1b565b92509250509295509295909350565b600060208284031215613f4857600080fd5b6000613f5684828501613dd9565b91505092915050565b600060208284031215613f7157600080fd5b6000613f7f84828501613dee565b91505092915050565b600080600080600060608688031215613fa057600080fd5b6000613fae88828901613dd9565b955050602086013567ffffffffffffffff811115613fcb57600080fd5b613fd788828901613d65565b9450945050604086013567ffffffffffffffff811115613ff657600080fd5b61400288828901613d1b565b92509250509295509295909350565b60008060008060006060868803121561402957600080fd5b600061403788828901613dd9565b955050602086013567ffffffffffffffff81111561405457600080fd5b61406088828901613d65565b9450945050604086013567ffffffffffffffff81111561407f57600080fd5b61408b88828901613d65565b92509250509295509295909350565b600080604083850312156140ad57600080fd5b60006140bb85828601613dd9565b92505060206140cc85828601613dd9565b9150509250929050565b60008060008060008060c087890312156140ef57600080fd5b60006140fd89828a01613dd9565b965050602061410e89828a01613dd9565b955050604061411f89828a01613dd9565b945050606061413089828a01613dd9565b935050608061414189828a01613dd9565b92505060a061415289828a01613dd9565b9150509295509295509295565b6141688161552e565b82525050565b61417781615477565b82525050565b61418681615465565b82525050565b60006141988385615443565b93507f07ffffffffffffffffffffffffffffffffffffffffffffffffffffffffffffff8311156141c757600080fd5b6020830292506141d88385846155be565b82840190509392505050565b6141ed81615489565b82525050565b6141fc81615489565b82525050565b61420b81615495565b82525050565b61421a816154c1565b82525050565b61422981615540565b82525050565b61423881615564565b82525050565b61424781615576565b82525050565b61425681615576565b82525050565b61426581615588565b82525050565b6000614278602483615454565b91507f4f66666572206f776e65722062616c616e63652069732062656c6f77206d696e60008301527f696d756d000000000000000000000000000000000000000000000000000000006020830152604082019050919050565b60006142de601183615454565b91507f4576656e74206973206e6f74206f70656e0000000000000000000000000000006000830152602082019050919050565b600061431e601f83615454565b91507f416d6f756e7420657863656564732073656e64657220616c6c6f77616e6365006000830152602082019050919050565b600061435e602683615454565b91507f4f66666572206f776e657220616c6c6f77616e63652069732062656c6f77206d60008301527f696e696d756d00000000000000000000000000000000000000000000000000006020830152604082019050919050565b60006143c4601383615454565b91507f53656e646572206974206e6f74206f776e6572000000000000000000000000006000830152602082019050919050565b6000614404601b83615454565b91507f4576656e7420696420646f6573206e6f742065786973742079657400000000006000830152602082019050919050565b6000614444601783615454565b91507f4d61726b6574206973206e6f7420617661696c61626c650000000000000000006000830152602082019050919050565b6000614484601d83615454565b91507f416d6f756e7420657863656564732073656e6465722062616c616e63650000006000830152602082019050919050565b60006144c4602483615454565b91507f4f776e65722063616e206e6f742062652072656d6f7665642066726f6d20616460008301527f6d696e73000000000000000000000000000000000000000000000000000000006020830152604082019050919050565b600061452a603583615454565b91507f53656c6563746564206f7574636f6d65206973206e6f742076616c696420666f60008301527f7220484f4d454157415944524157206d61726b657400000000000000000000006020830152604082019050919050565b6000614590603483615454565b91507f53656c6563746564206f7574636f6d65206973206e6f742076616c696420666f60008301527f7220504f494e54535052454144206d61726b65740000000000000000000000006020830152604082019050919050565b60006145f6601c83615454565b91507f4f666665722070726963652069732062656c6f77206d696e696d756d000000006000830152602082019050919050565b6000614636603983615454565b91507f53656c6563746564206f7574636f6d65206973206e6f742076616c696420666f60008301527f722046495253545445414d544f53434f5245206d61726b6574000000000000006020830152604082019050919050565b600061469c601d83615454565b91507f4f6666657220616d6f756e742069732062656c6f77206d696e696d756d0000006000830152602082019050919050565b60006146dc601783615454565b91507f4f6666657220697320616c726561647920636c6f7365640000000000000000006000830152602082019050919050565b600061471c603283615454565b91507f53656c6563746564206f7574636f6d65206973206e6f742076616c696420666f60008301527f72204d4f4e45594c494e45206d61726b657400000000000000000000000000006020830152604082019050919050565b6000614782601583615454565b91507f42657420696420646f6573206e6f7420657869737400000000000000000000006000830152602082019050919050565b60006147c2602183615454565b91507f4576656e742069642073686f756c642062652067726561746572207468616e2060008301527f30000000000000000000000000000000000000000000000000000000000000006020830152604082019050919050565b6000614828600f83615454565b91507f426574206973206e6f74206f70656e00000000000000000000000000000000006000830152602082019050919050565b6000614868601f83615454565b91507f4265742069642073686f756c642062652067726561746572207468616e2030006000830152602082019050919050565b60006148a8601383615454565b91507f4576656e74206973207374696c6c206f70656e000000000000000000000000006000830152602082019050919050565b60006148e8601683615454565b91507f50726963652069732062656c6f77206d696e696d756d000000000000000000006000830152602082019050919050565b6000614928601083615454565b91507f4f666665722069732065787069726564000000000000000000000000000000006000830152602082019050919050565b6000614968602383615454565b91507f45787069726174696f6e2074696d657374616d7020697320696e20746865207060008301527f61737400000000000000000000000000000000000000000000000000000000006020830152604082019050919050565b60006149ce602183615454565b91507f4f666665722069642073686f756c642062652067726561746572207468616e2060008301527f30000000000000000000000000000000000000000000000000000000000000006020830152604082019050919050565b6000614a34603683615454565b91507f53656c6563746564206f7574636f6d65206973206e6f742076616c696420666f60008301527f7220424f54485445414d53434f5245206d61726b6574000000000000000000006020830152604082019050919050565b6000614a9a601983615454565b91507f4f66666572206f776e6572206973206e6f742073656e646572000000000000006000830152602082019050919050565b6000614ada601b83615454565b91507f4f6666657220696420646f6573206e6f742065786973742079657400000000006000830152602082019050919050565b6000614b1a601783615454565b91507f416d6f756e742069732062656c6f77206d696e696d756d0000000000000000006000830152602082019050919050565b6000614b5a601683615454565b91507f53656e646572206973206e6f7420616e2061646d696e000000000000000000006000830152602082019050919050565b6000614b9a603283615454565b91507f53656c6563746564206f7574636f6d65206973206e6f742076616c696420666f60008301527f72204f564552554e444552206d61726b657400000000000000000000000000006020830152604082019050919050565b608082016000820151614c09600085018261422f565b506020820151614c1c6020850182614202565b506040820151614c2f604085018261423e565b506060820151614c4260608501826141e4565b50505050565b614c5181615524565b82525050565b6000602082019050614c6c600083018461417d565b92915050565b6000602082019050614c87600083018461415f565b92915050565b6000602082019050614ca2600083018461416e565b92915050565b6000604082019050614cbd600083018561415f565b614cca602083018461417d565b9392505050565b6000606082019050614ce6600083018661415f565b614cf3602083018561417d565b614d006040830184614c48565b949350505050565b6000604082019050614d1d600083018561417d565b614d2a602083018461417d565b9392505050565b6000606082019050614d46600083018661417d565b614d53602083018561417d565b614d606040830184614c48565b949350505050565b6000604082019050614d7d600083018561417d565b614d8a6020830184614c48565b9392505050565b6000602082019050614da660008301846141f3565b92915050565b6000602082019050614dc16000830184614220565b92915050565b60006020820190508181036000830152614de08161426b565b9050919050565b60006020820190508181036000830152614e00816142d1565b9050919050565b60006020820190508181036000830152614e2081614311565b9050919050565b60006020820190508181036000830152614e4081614351565b9050919050565b60006020820190508181036000830152614e60816143b7565b9050919050565b60006020820190508181036000830152614e80816143f7565b9050919050565b60006020820190508181036000830152614ea081614437565b9050919050565b60006020820190508181036000830152614ec081614477565b9050919050565b60006020820190508181036000830152614ee0816144b7565b9050919050565b60006020820190508181036000830152614f008161451d565b9050919050565b60006020820190508181036000830152614f2081614583565b9050919050565b60006020820190508181036000830152614f40816145e9565b9050919050565b60006020820190508181036000830152614f6081614629565b9050919050565b60006020820190508181036000830152614f808161468f565b9050919050565b60006020820190508181036000830152614fa0816146cf565b9050919050565b60006020820190508181036000830152614fc08161470f565b9050919050565b60006020820190508181036000830152614fe081614775565b9050919050565b60006020820190508181036000830152615000816147b5565b9050919050565b600060208201905081810360008301526150208161481b565b9050919050565b600060208201905081810360008301526150408161485b565b9050919050565b600060208201905081810360008301526150608161489b565b9050919050565b60006020820190508181036000830152615080816148db565b9050919050565b600060208201905081810360008301526150a08161491b565b9050919050565b600060208201905081810360008301526150c08161495b565b9050919050565b600060208201905081810360008301526150e0816149c1565b9050919050565b6000602082019050818103600083015261510081614a27565b9050919050565b6000602082019050818103600083015261512081614a8d565b9050919050565b6000602082019050818103600083015261514081614acd565b9050919050565b6000602082019050818103600083015261516081614b0d565b9050919050565b6000602082019050818103600083015261518081614b4d565b9050919050565b600060208201905081810360008301526151a081614b8d565b9050919050565b60006080820190506151bc6000830184614bf3565b92915050565b60006020820190506151d76000830184614c48565b92915050565b60006040820190506151f26000830186614c48565b818103602083015261520581848661418c565b9050949350505050565b60006060820190506152246000830187614c48565b6152316020830186614211565b818103604083015261524481848661418c565b905095945050505050565b60006060820190506152646000830186614c48565b6152716020830185614211565b61527e604083018461425c565b949350505050565b600060408201905061529b6000830185614c48565b6152a86020830184614c48565b9392505050565b60006080820190506152c46000830187614c48565b6152d16020830186614c48565b6152de604083018561417d565b6152eb6060830184614c48565b95945050505050565b60006101008201905061530a600083018b614c48565b615317602083018a614c48565b6153246040830189614c48565b615331606083018861417d565b61533e6080830187614c48565b61534b60a0830186614c48565b61535860c083018561424d565b61536560e0830184614c48565b9998505050505050505050565b600060a0820190506153876000830188614c48565b6153946020830187614c48565b6153a16040830186614c48565b6153ae6060830185614c48565b6153bb6080830184614c48565b9695505050505050565b6000610100820190506153db600083018b614c48565b6153e8602083018a614c48565b6153f56040830189614c48565b6154026060830188614c48565b61540f6080830187614c48565b61541c60a0830186614c48565b61542960c083018561424d565b61543660e083018461425c565b9998505050505050505050565b600082825260208201905092915050565b600082825260208201905092915050565b600061547082615504565b9050919050565b600061548282615504565b9050919050565b60008115159050919050565b60007fffffffffffffffffffff0000000000000000000000000000000000000000000082169050919050565b6000819050919050565b60008190506154d9826155cd565b919050565b60008190506154ec826155da565b919050565b60008190506154ff826155e7565b919050565b600073ffffffffffffffffffffffffffffffffffffffff82169050919050565b6000819050919050565b60006155398261559a565b9050919050565b600061554b82615552565b9050919050565b600061555d82615504565b9050919050565b600061556f826154cb565b9050919050565b6000615581826154de565b9050919050565b6000615593826154f1565b9050919050565b60006155a5826155ac565b9050919050565b60006155b782615504565b9050919050565b82818337600083830152505050565b600681106155d757fe5b50565b600981106155e457fe5b50565b600381106155f157fe5b50565b6155fd81615465565b811461560857600080fd5b50565b61561481615489565b811461561f57600080fd5b50565b61562b816154c1565b811461563657600080fd5b50565b61564281615524565b811461564d57600080fd5b5056fea265627a7a72305820bd482e9e62bfafd2ca5b429525f6a4950bc6e3ffeef916bf83ec42f89a4a52386c6578706572696d656e74616cf50037",
  "source": "pragma solidity >=0.4.21 <0.6.0;\npragma experimental ABIEncoderV2;\n\nimport \"./MaticWETH.sol\";\n\n\n/// @title SocialBet\n/// @notice\n/// @dev\ncontract SocialBet {\n    /// @notice Owner of SocialBet smart contract\n    address payable public owner;\n\n    /**\n    * token contract for transfers.\n    */\n    MaticWETH public weth;\n\n    /// @notice Administrators mapping\n    mapping(address => bool) public admins;\n\n    /// @notice Events mapping\n    mapping(uint => Event) public events;\n    /// @notice Offers mapping\n    mapping(uint => Offer) public offers;\n    /// @notice Bets mapping\n    mapping(uint => Bet) public bets;\n    /// @notice Positions mapping\n    mapping(uint => Position) public positions;\n\n    /// @notice Number of events, used to set id of created events\n    uint public m_nbEvents;\n    /// @notice Number of offers, used to set id of created offers\n    uint public m_nbOffers;\n    /// @notice Number of bets, used to set id of created bets\n    uint public m_nbBets;\n    /// @notice Number of positions, used to set id of created positions\n    uint public m_nbPositions;\n\n    /// @notice Minimum ammount to maintain an Offer or a Position open to sell\n    uint public m_minAmount = 10000000000000000;\n\n    enum State {OPEN, CLOSE, CANCELED}\n\n    enum Outcome {NULL, CANCELED, HOME, AWAY, DRAW, OVER, UNDER, YES, NO}\n\n    enum BetType {HOMEAWAYDRAW, MONEYLINE, OVERUNDER, POINTSPREAD, BOTHTEAMSCORE, FIRSTTEAMTOSCORE}\n\n    event LogDeposit(address indexed account, uint amount);\n    event LogWithdraw(address indexed account, uint amount);\n    event LogBalanceChange(address indexed account, uint oldBalance, uint newBalance);\n    event LogNewEvent(uint id, bytes32 ipfsAddress, uint[] markets);\n    event LogNewMarkets(uint id, uint[] markets);\n    event LogResultEvent(uint id);\n    event LogCancelEvent(uint id);\n    event LogNewOffer(uint id, uint indexed eventId, uint indexed marketIndex, address indexed owner, uint amount, uint price, uint outcome, uint timestampExpiration);\n    event LogUpdateOffer(uint indexed id, uint amount, uint price);\n    event LogNewBet(uint id, uint indexed eventId, uint indexed marketIndex, uint backPosition, uint layPosition, uint amount, uint outcome);\n    event LogBetClosed(uint id);\n    event LogNewPosition(uint id, uint indexed betId, address indexed owner, uint amount);\n\n    struct Event {\n        uint _id;\n        bytes32 _ipfsAddress;\n        mapping(uint => Market) _markets;\n        State _state;\n    }\n\n    struct Market {\n        BetType _type;\n        bytes10 _data;\n        Outcome _outcome;\n        bool \t_active;\n    }\n\n    struct Offer {\n        uint _id;\n        uint _eventId;\n        uint _marketIndex;\n        address _owner;\n        uint _amount;\n        uint _price;\n        Outcome _outcome;\n        uint _timestampExpiration;\n    }\n\n    struct Bet {\n        uint _id;\n        uint _eventId;\n        uint _marketIndex;\n        uint _backPosition;\n        uint _layPosition;\n        uint _amount;\n        Outcome _outcome;\n        State _state;\n    }\n\n    struct Position {\n        uint _id;\n        uint _betId;\n        address _owner;\n        uint _amount;\n    }\n\n    /// @dev Check that the caller is the Owner of the smart contract\n    modifier isOwner() {\n        require(owner == msg.sender, 'Sender it not owner');\n        _;\n    }\n\n    /// @dev Check that the caller have admin rights\n    modifier isAdmin() {\n        require(admins[msg.sender], 'Sender is not an admin');\n        _;\n    }\n\n    /// @dev Check that the event exists, is still open and has not started\n    modifier eventAvailable(uint _eventId) {\n        require(_eventId > 0, 'Event id should be greater than 0');\n        require(_eventId <= m_nbEvents, 'Event id does not exist yet');\n        require(uint(events[_eventId]._state) == uint(State.OPEN), 'Event is not open');\n        _;\n    }\n\n    /// @dev Check that the market exists\n    modifier marketAvailable(uint _eventId, uint _marketIndex) {\n        require(events[_eventId]._markets[_marketIndex]._active, 'Market is not available');\n        _;\n    }\n\n    /// @dev Check that the offer exists and is still open\n    modifier offerAvailable(uint _offerId) {\n        require(_offerId > 0, 'Offer id should be greater than 0');\n        require(_offerId <= m_nbOffers, 'Offer id does not exist yet');\n        require(offers[_offerId]._timestampExpiration > now, 'Offer is expired');\n        require(uint(events[offers[_offerId]._eventId]._state) == uint(State.OPEN), 'Event is not open');\n        require(offers[_offerId]._amount >= m_minAmount, 'Offer amount is below minimum');\n        require(offers[_offerId]._price >= m_minAmount, 'Offer price is below minimum');\n        require(weth.balanceOf(offers[_offerId]._owner) >= m_minAmount, 'Offer owner balance is below minimum');\n        require(weth.allowance(offers[_offerId]._owner, address(this)) >= m_minAmount, 'Offer owner allowance is below minimum');\n        _;\n    }\n\n    /// @dev Check that the selected outcome is valid for the type of the selected event (DRAW is not possible for a HOMEAWAY event)\n    modifier outcomeValid(uint _eventId, uint _marketIndex, uint _outcome) {\n        if (BetType(_marketIndex) == BetType.HOMEAWAYDRAW) {\n            require(_outcome <= uint(Outcome.DRAW), 'Selected outcome is not valid for HOMEAWAYDRAW market');\n            require(_outcome >= uint(Outcome.HOME), 'Selected outcome is not valid for HOMEAWAYDRAW market');\n        }\n        if (BetType(_marketIndex) == BetType.MONEYLINE) {\n            require(_outcome <= uint(Outcome.AWAY), 'Selected outcome is not valid for MONEYLINE market');\n            require(_outcome >= uint(Outcome.HOME), 'Selected outcome is not valid for MONEYLINE market');\n        }\n        if (BetType(_marketIndex) == BetType.OVERUNDER) {\n            require(_outcome <= uint(Outcome.UNDER), 'Selected outcome is not valid for OVERUNDER market');\n            require(_outcome >= uint(Outcome.OVER), 'Selected outcome is not valid for OVERUNDER market');\n        }\n        if (BetType(_marketIndex) == BetType.POINTSPREAD) {\n            require(_outcome <= uint(Outcome.AWAY), 'Selected outcome is not valid for POINTSPREAD market');\n            require(_outcome >= uint(Outcome.HOME), 'Selected outcome is not valid for POINTSPREAD market');\n        }\n        if (BetType(_marketIndex) == BetType.BOTHTEAMSCORE) {\n            require(_outcome <= uint(Outcome.NO), 'Selected outcome is not valid for BOTHTEAMSCORE market');\n            require(_outcome >= uint(Outcome.YES), 'Selected outcome is not valid for BOTHTEAMSCORE market');\n        }\n        if (BetType(_marketIndex) == BetType.FIRSTTEAMTOSCORE) {\n            require(_outcome <= uint(Outcome.AWAY), 'Selected outcome is not valid for FIRSTTEAMTOSCORE market');\n            require(_outcome >= uint(Outcome.HOME), 'Selected outcome is not valid for FIRSTTEAMTOSCORE market');\n        }\n        _;\n    }\n\n    /** \n\t@notice Create SocialBet smart contract\n\t@dev The owner variable is set to the address of the caller of the constructor and the address is set as an admin\n\t*/\n    constructor(address _weth) public {\n        owner = msg.sender;\n        weth = MaticWETH(_weth);\n        addAdmin(msg.sender);\n    }\n\n    /**\n\t@notice Add passed address as an admin\n\t@dev The value in the admins mapping is set to true at the passed address key\n\t@param _addr The address to set as an admin\n\t*/\n    function addAdmin(address _addr) public isOwner {\n        admins[_addr] = true;\n    }\n\n    /// @notice Remove passed address from admins\n    /// @dev The value in the admins mapping is set to false at the passed address key\n    /// @param _addr The address to unset from admins\n    function removeAdmin(address _addr) external isOwner {\n        require(_addr != owner, 'Owner can not be removed from admins');\n        admins[_addr] = false;\n    }\n\n    /// @notice Add new event to smart contract. The details of the event are found in the ipfs address passed\n    function addEvent(\n        bytes32 _ipfsAddress,\n        uint[] calldata _markets,\n        bytes10[] calldata _data\n        ) external isAdmin {\n        uint _id = _addEvent(_ipfsAddress, _markets, _data);\n\n        emit LogNewEvent(_id, _ipfsAddress, _markets);\n    }\n\n    function addMarkets(\n        uint _eventId,\n        uint[] calldata _markets,\n        bytes10[] calldata _data\n        ) external isAdmin eventAvailable(_eventId) {\n        _addMarkets(_eventId, _markets, _data);\n\n        emit LogNewMarkets(_eventId, _markets);\n    }\n\n    /// @notice Set events result\n    function setEventResult(uint _eventId, uint[] calldata _markets, uint[] calldata _outcomes)\n    external\n    isAdmin\n    eventAvailable(_eventId)\n    {\n        _setEventResult(_eventId, _markets, _outcomes);\n\n        emit LogResultEvent(_eventId);\n    }\n\n    /// @notice Cancel an event\n    function cancelEvent(uint _eventId) \n    external \n    isAdmin\n    eventAvailable(_eventId)\n    {\n        _cancelEvent(_eventId);\n\n        emit LogCancelEvent(_eventId);\n    }\n\n    /// @notice Open a new offer on the selected event with the parameters passed as arguments\n    /// @param _eventId Id of the event the offer is created on\n    /// @param _amount Amount the bookmaker is putting on the offer\n    /// @param _price Price the bookmaker is selling the offer for\n    /// @param _outcome Outcome of the event the bookmaker is opening the offer on\n    function openOffer(\n        uint _eventId,\n        uint _marketIndex,\n        uint _amount,\n        uint _price,\n        uint _outcome,\n        uint _timestampExpiration\n        )\n    external\n    eventAvailable(_eventId)\n    marketAvailable(_eventId, _marketIndex)\n    outcomeValid(_eventId, _marketIndex, _outcome)\n    {\n        require(_price >= m_minAmount, 'Price is below minimum');\n        require(_amount >= m_minAmount, 'Amount is below minimum');\n        require(_timestampExpiration >= now, 'Expiration timestamp is in the past');\n\n        m_nbOffers = add(m_nbOffers, 1);\n\n        Offer memory newOffer = Offer(\n            m_nbOffers,\n            _eventId,\n            _marketIndex,\n            msg.sender,\n            _amount,\n            _price,\n            Outcome(_outcome),\n            _timestampExpiration\n            );\n\n        offers[newOffer._id] = newOffer;\n\n        emit LogNewOffer(\n            newOffer._id,\n            newOffer._eventId,\n            newOffer._marketIndex,\n            newOffer._owner,\n            newOffer._amount,\n            newOffer._price,\n            uint(newOffer._outcome),\n            newOffer._timestampExpiration\n            );\n    }\n\n    /// @notice Close an existing offer\n    /// @param _offerId Id of the offer to close\n    function closeOffer(uint _offerId) external {\n        require(_offerId > 0, 'Offer id should be greater than 0');\n        require(_offerId <= m_nbOffers, 'Offer id does not exist yet');\n        require(offers[_offerId]._owner == msg.sender, 'Offer owner is not sender');\n        require(offers[_offerId]._amount > 0, 'Offer is already closed');\n\n        _closeOffer(_offerId);\n    }\n\n    /// @notice Fully or partly buy an offer and open a bet according to the parameters\n    /// @param _offerId Id of the offer to buy\n    /// @param _amount Amount the bettor wants to buy the offer with\n    function buyOffer(uint _offerId, uint _amount)\n    public\n    offerAvailable(_offerId)\n    {\n        require(_amount >= m_minAmount, 'Amount is below minimum');\n        require(weth.balanceOf(msg.sender) >= _amount, 'Amount exceeds sender balance');\n        require(weth.allowance(msg.sender, address(this)) >= _amount, 'Amount exceeds sender allowance');\n\n        Offer memory _offer = offers[_offerId];\n\n        uint _amountBuyer = _amount;\n\n        if ( _offer._price < _amount ) {\n        \t_amountBuyer = _offer._price;\n        }\n\n        uint _amountOfferToBet = div( mul( _offer._amount, _amountBuyer ), _offer._price );\n\n        uint _balanceOwner = weth.balanceOf(_offer._owner);\n        uint _allowanceOwner = weth.allowance(_offer._owner, address(this));\n\n        uint _amountAvailableOwner = _balanceOwner > _allowanceOwner ? _allowanceOwner : _balanceOwner;\n\n        if( _amountAvailableOwner < _amountOfferToBet ) {\n        \t_amountOfferToBet = _amountAvailableOwner;\n        \t_amountBuyer = div( mul( _amountOfferToBet, _offer._price ), _offer._amount );\n        }\n        \n        uint _restAmountOffer = sub( _offer._amount, _amountOfferToBet );\n        uint _restPriceOffer = div( mul( _restAmountOffer, _offer._price ), _offer._amount );\n\n        weth.transferFrom(msg.sender, address(this), _amountBuyer);\n        weth.transferFrom(_offer._owner, address(this), _amountOfferToBet);\n\n        m_nbBets = add(m_nbBets, 1);\n\n        Bet memory _newBet;\n        _newBet._id = m_nbBets;\n        _newBet._eventId = _offer._eventId;\n        _newBet._marketIndex = _offer._marketIndex;\n        _newBet._outcome = _offer._outcome;\n        _newBet._state = State.OPEN;\n\n        Position memory backPosition = _createPosition(\n            _newBet._id,\n            msg.sender,\n            _amountBuyer\n            );\n        Position memory layPosition = _createPosition(\n            _newBet._id,\n            _offer._owner,\n            _amountOfferToBet\n            );\n\n        _newBet._backPosition = backPosition._id;\n        _newBet._layPosition = layPosition._id;\n        _newBet._amount = backPosition._amount + layPosition._amount;\n\n        bets[m_nbBets] = _newBet;\n\n        emit LogNewBet(\n            _newBet._id,\n            _newBet._eventId,\n            _newBet._marketIndex,\n            _newBet._backPosition,\n            _newBet._layPosition,\n            _newBet._amount,\n            uint(_newBet._outcome)\n            );\n\n        offers[_offer._id]._amount = _restAmountOffer;\n        offers[_offer._id]._price = _restPriceOffer;\n\n        if (_restAmountOffer < m_minAmount || _restPriceOffer < m_minAmount) {\n            _closeOffer(_offer._id);\n        }\n        else {\n            emit LogUpdateOffer(_offerId, _restAmountOffer, _restPriceOffer);\n        }\n    }\n\n    /// @notice Fully or partly buy multiple offers and open bets according to the parameters\n    /// @param _offerIdArr Array of the id of the offers to buy\n    /// @param _amount Amount the bettor wants to buy the offers with\n    function buyOfferBulk(\n        uint[] calldata _offerIdArr,\n        uint _amount\n        ) external {\n        require(_amount >= m_minAmount, 'Amount is below minimum');\n        require(weth.balanceOf(msg.sender) >= _amount, 'Amount exceeds sender balance');\n        require(weth.allowance(msg.sender, address(this)) >= _amount, 'Amount exceeds sender allowance');\n\n        uint _length = _offerIdArr.length;\n        uint _restAmount = _amount;\n        uint _offerAmount;\n        uint _offerId;\n\n        for (uint i = 0; i < _length; i++) {\n            if (_restAmount < m_minAmount) {\n                break;\n            }\n\n            _offerId = _offerIdArr[i];\n\n            if (offers[_offerId]._price <= _restAmount) {\n                _offerAmount = offers[_offerId]._price;\n                } else {\n                    _offerAmount = _restAmount;\n                }\n\n                buyOffer(_offerId, _offerAmount);\n\n                _restAmount = sub(_restAmount, _offerAmount);\n            }\n        }\n\n    /// @notice Claim bet earnings of a bet open on a close event\n    function claimBetEarnings(uint _betId) external {\n        require(_betId > 0, 'Bet id should be greater than 0');\n        require(_betId <= m_nbBets, 'Bet id does not exist');\n        require(uint(bets[_betId]._state) == uint(State.OPEN), 'Bet is not open');\n        require(uint(events[bets[_betId]._eventId]._state) > uint(State.OPEN), 'Event is still open');\n\n        Bet memory _bet = bets[_betId];\n        Event storage _event = events[_bet._eventId];\n\n        if (uint(_event._state) == uint(State.CANCELED)) {\n            weth.transfer(positions[_bet._backPosition]._owner, positions[_bet._backPosition]._amount);\n            weth.transfer(positions[_bet._layPosition]._owner, positions[_bet._layPosition]._amount);\n        } \n        else {\n            if (_event._markets[_bet._marketIndex]._outcome == _bet._outcome) {\n                weth.transfer(positions[_bet._backPosition]._owner, _bet._amount);\n            } \n            else if (_event._markets[_bet._marketIndex]._outcome != _bet._outcome) {\n                weth.transfer(positions[_bet._layPosition]._owner, _bet._amount);\n            }\n        }\n\n        _bet._state = State.CLOSE;\n        bets[_bet._id] = _bet;\n\n        emit LogBetClosed(_bet._id);\n    }\n\n    function getMarket(uint _eventId, uint _marketId) public view returns (Market memory) {\n        return events[_eventId]._markets[_marketId];\n    }\n\n    /// @notice Add event\n    /// @param _ipfsAddress Hash of the JSON containing event details\n    function _addEvent(\n        bytes32 _ipfsAddress,\n        uint[] memory _markets,\n        bytes10[] memory _data\n        ) internal returns (uint _id) {\n        m_nbEvents = add(m_nbEvents, 1);\n\n        Event memory newEvent;\n        newEvent._id = m_nbEvents;\n        newEvent._ipfsAddress = _ipfsAddress;\n        newEvent._state = State.OPEN;\n\n        events[newEvent._id] = newEvent;\n\n        _addMarkets(newEvent._id, _markets, _data);\n\n        _id = m_nbEvents;\n    }\n\n    function _addMarkets(\n        uint _eventId,\n        uint[] memory _markets,\n        bytes10[] memory _data\n        ) internal {\n        for (uint i = 0; i < _markets.length; i++) {\n            events[_eventId]._markets[_markets[i]] = (Market(\n                BetType(_markets[i]),\n                _data[i],\n                Outcome.NULL,\n                true\n                ));\n        }\n    }\n\n    /// @notice Cancel event\n    /// @param _eventId Id of the event\n    function _cancelEvent(uint _eventId) private {\n        Event memory _event = events[_eventId];\n\n        _event._state = State.CANCELED;\n\n        events[_event._id] = _event;\n    }\n\n    /// @notice Set result\n    /// @param _eventId Id of the event\n    /// @param _result Result of the event\n    function _setEventResult(uint _eventId, uint[] memory _markets, uint[] memory _result) private {\n        Event storage _event = events[_eventId];\n\n        if (uint(_event._state) == uint(State.OPEN)) {\n            for (uint i = 0; i < _markets.length; i++) {\n                _event._markets[_markets[i]]._outcome = Outcome(_result[i]);\n            }\n            _event._state = State.CLOSE;\n        }\n    }\n\n    /// @notice Close an existing offer\n    /// @param _offerId Id of the offer to close\n    function _closeOffer(uint _offerId) private {\n        offers[_offerId]._amount = 0;\n        offers[_offerId]._price = 0;\n\n        emit LogUpdateOffer(_offerId, offers[_offerId]._amount, offers[_offerId]._price);\n    }\n\n    /// @notice Create a new Position and adds it to the positions mapping\n    /// @param _betId Id of the bet associated to the created position\n    /// @param _owner Owner of the created position\n    /// @param _amount Amount the owner have in the created position\n    function _createPosition(\n        uint _betId,\n        address _owner,\n        uint _amount\n        ) private returns (Position memory newPosition) {\n        m_nbPositions = add(m_nbPositions, 1);\n\n        newPosition = Position(m_nbPositions, _betId, _owner, _amount);\n\n        positions[newPosition._id] = newPosition;\n\n        _logNewPosition(newPosition);\n    }\n\n    function _logNewPosition(Position memory newPosition) private {\n        emit LogNewPosition(\n            newPosition._id,\n            newPosition._betId,\n            newPosition._owner,\n            newPosition._amount\n            );\n    }\n\n    function sub(uint256 _a, uint256 _b) internal pure returns (uint256) {\n        assert(_b <= _a);\n        return _a - _b;\n    }\n\n    function add(uint256 a, uint256 b) internal pure returns (uint256) {\n        uint256 c = a + b;\n        assert(c >= a);\n        return c;\n    }\n\n    function mul(uint256 _a, uint256 _b) internal pure returns (uint256 c) {\n        if (_a == 0) {\n            return 0;\n        }\n        c = _a * _b;\n        assert(c / _a == _b);\n        return c;\n    }\n\n    function div(uint256 _a, uint256 _b) internal pure returns (uint256) {\n        return _a / _b;\n    }\n\n}\n",
  "sourcePath": "/Volumes/MacintoshHD/Users/Andy/projects/0_bet/bet-ethereum/contracts/SocialBet.sol",
  "compiler": {
    "name": "solc",
    "version": "0.5.8+commit.23d335f2.Emscripten.clang"
  },
  "schemaVersion": "3.0.11",
  "updatedAt": "2019-07-17T18:58:38.382Z",
  "devdoc": {
    "methods": {
      "addAdmin(address)": {
        "details": "The value in the admins mapping is set to true at the passed address key",
        "params": {
          "_addr": "The address to set as an admin"
        }
      },
      "buyOffer(uint256,uint256)": {
        "params": {
          "_amount": "Amount the bettor wants to buy the offer with",
          "_offerId": "Id of the offer to buy"
        }
      },
      "buyOfferBulk(uint256[],uint256)": {
        "params": {
          "_amount": "Amount the bettor wants to buy the offers with",
          "_offerIdArr": "Array of the id of the offers to buy"
        }
      },
      "closeOffer(uint256)": {
        "params": {
          "_offerId": "Id of the offer to close"
        }
      },
      "constructor": {
        "details": "The owner variable is set to the address of the caller of the constructor and the address is set as an admin"
      },
      "openOffer(uint256,uint256,uint256,uint256,uint256,uint256)": {
        "params": {
          "_amount": "Amount the bookmaker is putting on the offer",
          "_eventId": "Id of the event the offer is created on",
          "_outcome": "Outcome of the event the bookmaker is opening the offer on",
          "_price": "Price the bookmaker is selling the offer for"
        }
      },
      "removeAdmin(address)": {
        "details": "The value in the admins mapping is set to false at the passed address key",
        "params": {
          "_addr": "The address to unset from admins"
        }
      }
    },
    "title": "SocialBet"
  },
  "userdoc": {
    "methods": {
      "addAdmin(address)": {
        "notice": "Add passed address as an admin"
      },
      "addEvent(bytes32,uint256[],bytes10[])": {
        "notice": "Add new event to smart contract. The details of the event are found in the ipfs address passed"
      },
      "buyOffer(uint256,uint256)": {
        "notice": "Fully or partly buy an offer and open a bet according to the parameters"
      },
      "buyOfferBulk(uint256[],uint256)": {
        "notice": "Fully or partly buy multiple offers and open bets according to the parameters"
      },
      "cancelEvent(uint256)": {
        "notice": "Cancel an event"
      },
      "claimBetEarnings(uint256)": {
        "notice": "Claim bet earnings of a bet open on a close event"
      },
      "closeOffer(uint256)": {
        "notice": "Close an existing offer"
      },
      "constructor": "Create SocialBet smart contract",
      "openOffer(uint256,uint256,uint256,uint256,uint256,uint256)": {
        "notice": "Open a new offer on the selected event with the parameters passed as arguments"
      },
      "removeAdmin(address)": {
        "notice": "Remove passed address from admins"
      },
      "setEventResult(uint256,uint256[],uint256[])": {
        "notice": "Set events result"
      }
    },
    "notice": "@dev"
  }
}