{
  "contractName": "SocialBet",
  "abi": [
    {
      "constant": true,
      "inputs": [
        {
          "name": "",
          "type": "uint256"
        }
      ],
      "name": "events",
      "outputs": [
        {
          "name": "_id",
          "type": "uint256"
        },
        {
          "name": "_ipfsAddress",
          "type": "bytes32"
        },
        {
          "name": "_state",
          "type": "uint8"
        }
      ],
      "payable": false,
      "stateMutability": "view",
      "type": "function"
    },
    {
      "constant": true,
      "inputs": [
        {
          "name": "",
          "type": "uint256"
        }
      ],
      "name": "bets",
      "outputs": [
        {
          "name": "_id",
          "type": "uint256"
        },
        {
          "name": "_eventId",
          "type": "uint256"
        },
        {
          "name": "_marketIndex",
          "type": "uint256"
        },
        {
          "name": "_backPosition",
          "type": "uint256"
        },
        {
          "name": "_layPosition",
          "type": "uint256"
        },
        {
          "name": "_amount",
          "type": "uint256"
        },
        {
          "name": "_outcome",
          "type": "uint8"
        },
        {
          "name": "_state",
          "type": "uint8"
        }
      ],
      "payable": false,
      "stateMutability": "view",
      "type": "function"
    },
    {
      "constant": true,
      "inputs": [
        {
          "name": "",
          "type": "address"
        }
      ],
      "name": "admins",
      "outputs": [
        {
          "name": "",
          "type": "bool"
        }
      ],
      "payable": false,
      "stateMutability": "view",
      "type": "function"
    },
    {
      "constant": true,
      "inputs": [],
      "name": "m_nbPositions",
      "outputs": [
        {
          "name": "",
          "type": "uint256"
        }
      ],
      "payable": false,
      "stateMutability": "view",
      "type": "function"
    },
    {
      "constant": true,
      "inputs": [
        {
          "name": "",
          "type": "uint256"
        }
      ],
      "name": "offers",
      "outputs": [
        {
          "name": "_id",
          "type": "uint256"
        },
        {
          "name": "_eventId",
          "type": "uint256"
        },
        {
          "name": "_marketIndex",
          "type": "uint256"
        },
        {
          "name": "_owner",
          "type": "address"
        },
        {
          "name": "_amount",
          "type": "uint256"
        },
        {
          "name": "_price",
          "type": "uint256"
        },
        {
          "name": "_outcome",
          "type": "uint8"
        },
        {
          "name": "_timestampExpiration",
          "type": "uint256"
        }
      ],
      "payable": false,
      "stateMutability": "view",
      "type": "function"
    },
    {
      "constant": true,
      "inputs": [],
      "name": "owner",
      "outputs": [
        {
          "name": "",
          "type": "address"
        }
      ],
      "payable": false,
      "stateMutability": "view",
      "type": "function"
    },
    {
      "constant": true,
      "inputs": [],
      "name": "m_nbBets",
      "outputs": [
        {
          "name": "",
          "type": "uint256"
        }
      ],
      "payable": false,
      "stateMutability": "view",
      "type": "function"
    },
    {
      "constant": true,
      "inputs": [
        {
          "name": "",
          "type": "uint256"
        }
      ],
      "name": "positions",
      "outputs": [
        {
          "name": "_id",
          "type": "uint256"
        },
        {
          "name": "_betId",
          "type": "uint256"
        },
        {
          "name": "_owner",
          "type": "address"
        },
        {
          "name": "_amount",
          "type": "uint256"
        }
      ],
      "payable": false,
      "stateMutability": "view",
      "type": "function"
    },
    {
      "constant": true,
      "inputs": [],
      "name": "m_minAmount",
      "outputs": [
        {
          "name": "",
          "type": "uint256"
        }
      ],
      "payable": false,
      "stateMutability": "view",
      "type": "function"
    },
    {
      "constant": true,
      "inputs": [],
      "name": "m_nbOffers",
      "outputs": [
        {
          "name": "",
          "type": "uint256"
        }
      ],
      "payable": false,
      "stateMutability": "view",
      "type": "function"
    },
    {
      "constant": true,
      "inputs": [],
      "name": "Token",
      "outputs": [
        {
          "name": "",
          "type": "address"
        }
      ],
      "payable": false,
      "stateMutability": "view",
      "type": "function"
    },
    {
      "constant": true,
      "inputs": [],
      "name": "m_nbEvents",
      "outputs": [
        {
          "name": "",
          "type": "uint256"
        }
      ],
      "payable": false,
      "stateMutability": "view",
      "type": "function"
    },
    {
      "inputs": [
        {
          "name": "_tokenAddress",
          "type": "address"
        }
      ],
      "payable": false,
      "stateMutability": "nonpayable",
      "type": "constructor"
    },
    {
      "anonymous": false,
      "inputs": [
        {
          "indexed": false,
          "name": "id",
          "type": "uint256"
        },
        {
          "indexed": false,
          "name": "ipfsAddress",
          "type": "bytes32"
        },
        {
          "indexed": false,
          "name": "markets",
          "type": "uint256[]"
        }
      ],
      "name": "LogNewEvent",
      "type": "event"
    },
    {
      "anonymous": false,
      "inputs": [
        {
          "indexed": false,
          "name": "id",
          "type": "uint256"
        },
        {
          "indexed": false,
          "name": "markets",
          "type": "uint256[]"
        }
      ],
      "name": "LogNewMarkets",
      "type": "event"
    },
    {
      "anonymous": false,
      "inputs": [
        {
          "indexed": false,
          "name": "id",
          "type": "uint256"
        }
      ],
      "name": "LogResultEvent",
      "type": "event"
    },
    {
      "anonymous": false,
      "inputs": [
        {
          "indexed": false,
          "name": "id",
          "type": "uint256"
        }
      ],
      "name": "LogCancelEvent",
      "type": "event"
    },
    {
      "anonymous": false,
      "inputs": [
        {
          "indexed": false,
          "name": "id",
          "type": "uint256"
        },
        {
          "indexed": true,
          "name": "eventId",
          "type": "uint256"
        },
        {
          "indexed": true,
          "name": "marketIndex",
          "type": "uint256"
        },
        {
          "indexed": true,
          "name": "owner",
          "type": "address"
        },
        {
          "indexed": false,
          "name": "amount",
          "type": "uint256"
        },
        {
          "indexed": false,
          "name": "price",
          "type": "uint256"
        },
        {
          "indexed": false,
          "name": "outcome",
          "type": "uint256"
        },
        {
          "indexed": false,
          "name": "timestampExpiration",
          "type": "uint256"
        }
      ],
      "name": "LogNewOffer",
      "type": "event"
    },
    {
      "anonymous": false,
      "inputs": [
        {
          "indexed": true,
          "name": "id",
          "type": "uint256"
        },
        {
          "indexed": false,
          "name": "amount",
          "type": "uint256"
        },
        {
          "indexed": false,
          "name": "price",
          "type": "uint256"
        }
      ],
      "name": "LogUpdateOffer",
      "type": "event"
    },
    {
      "anonymous": false,
      "inputs": [
        {
          "indexed": false,
          "name": "id",
          "type": "uint256"
        },
        {
          "indexed": true,
          "name": "eventId",
          "type": "uint256"
        },
        {
          "indexed": true,
          "name": "marketIndex",
          "type": "uint256"
        },
        {
          "indexed": false,
          "name": "backPosition",
          "type": "uint256"
        },
        {
          "indexed": false,
          "name": "layPosition",
          "type": "uint256"
        },
        {
          "indexed": false,
          "name": "amount",
          "type": "uint256"
        },
        {
          "indexed": false,
          "name": "outcome",
          "type": "uint256"
        }
      ],
      "name": "LogNewBet",
      "type": "event"
    },
    {
      "anonymous": false,
      "inputs": [
        {
          "indexed": false,
          "name": "id",
          "type": "uint256"
        }
      ],
      "name": "LogBetClosed",
      "type": "event"
    },
    {
      "anonymous": false,
      "inputs": [
        {
          "indexed": false,
          "name": "id",
          "type": "uint256"
        },
        {
          "indexed": true,
          "name": "betId",
          "type": "uint256"
        },
        {
          "indexed": true,
          "name": "owner",
          "type": "address"
        },
        {
          "indexed": false,
          "name": "amount",
          "type": "uint256"
        }
      ],
      "name": "LogNewPosition",
      "type": "event"
    },
    {
      "constant": false,
      "inputs": [
        {
          "name": "_addr",
          "type": "address"
        }
      ],
      "name": "addAdmin",
      "outputs": [],
      "payable": false,
      "stateMutability": "nonpayable",
      "type": "function"
    },
    {
      "constant": false,
      "inputs": [
        {
          "name": "_addr",
          "type": "address"
        }
      ],
      "name": "removeAdmin",
      "outputs": [],
      "payable": false,
      "stateMutability": "nonpayable",
      "type": "function"
    },
    {
      "constant": false,
      "inputs": [
        {
          "name": "_ipfsAddress",
          "type": "bytes32"
        },
        {
          "name": "_markets",
          "type": "uint256[]"
        },
        {
          "name": "_data",
          "type": "bytes10[]"
        }
      ],
      "name": "addEvent",
      "outputs": [],
      "payable": false,
      "stateMutability": "nonpayable",
      "type": "function"
    },
    {
      "constant": false,
      "inputs": [
        {
          "name": "_eventId",
          "type": "uint256"
        },
        {
          "name": "_markets",
          "type": "uint256[]"
        },
        {
          "name": "_data",
          "type": "bytes10[]"
        }
      ],
      "name": "addMarkets",
      "outputs": [],
      "payable": false,
      "stateMutability": "nonpayable",
      "type": "function"
    },
    {
      "constant": false,
      "inputs": [
        {
          "name": "_eventId",
          "type": "uint256"
        },
        {
          "name": "_markets",
          "type": "uint256[]"
        },
        {
          "name": "_outcomes",
          "type": "uint256[]"
        }
      ],
      "name": "setEventResult",
      "outputs": [],
      "payable": false,
      "stateMutability": "nonpayable",
      "type": "function"
    },
    {
      "constant": false,
      "inputs": [
        {
          "name": "_eventId",
          "type": "uint256"
        }
      ],
      "name": "cancelEvent",
      "outputs": [],
      "payable": false,
      "stateMutability": "nonpayable",
      "type": "function"
    },
    {
      "constant": false,
      "inputs": [
        {
          "name": "_eventId",
          "type": "uint256"
        },
        {
          "name": "_marketIndex",
          "type": "uint256"
        },
        {
          "name": "_amount",
          "type": "uint256"
        },
        {
          "name": "_price",
          "type": "uint256"
        },
        {
          "name": "_outcome",
          "type": "uint256"
        },
        {
          "name": "_timestampExpiration",
          "type": "uint256"
        }
      ],
      "name": "openOffer",
      "outputs": [],
      "payable": false,
      "stateMutability": "nonpayable",
      "type": "function"
    },
    {
      "constant": false,
      "inputs": [
        {
          "name": "_offerId",
          "type": "uint256"
        }
      ],
      "name": "closeOffer",
      "outputs": [],
      "payable": false,
      "stateMutability": "nonpayable",
      "type": "function"
    },
    {
      "constant": false,
      "inputs": [
        {
          "name": "_offerId",
          "type": "uint256"
        },
        {
          "name": "_amount",
          "type": "uint256"
        }
      ],
      "name": "buyOffer",
      "outputs": [],
      "payable": false,
      "stateMutability": "nonpayable",
      "type": "function"
    },
    {
      "constant": false,
      "inputs": [
        {
          "name": "_offerIds",
          "type": "uint256[]"
        },
        {
          "name": "_amount",
          "type": "uint256"
        }
      ],
      "name": "buyOfferBulk",
      "outputs": [],
      "payable": false,
      "stateMutability": "nonpayable",
      "type": "function"
    },
    {
      "constant": false,
      "inputs": [
        {
          "name": "_betId",
          "type": "uint256"
        }
      ],
      "name": "claimBetEarnings",
      "outputs": [],
      "payable": false,
      "stateMutability": "nonpayable",
      "type": "function"
    },
    {
      "constant": true,
      "inputs": [
        {
          "name": "_eventId",
          "type": "uint256"
        },
        {
          "name": "_marketIndex",
          "type": "uint256"
        }
      ],
      "name": "getMarket",
      "outputs": [
        {
          "components": [
            {
              "name": "_type",
              "type": "uint8"
            },
            {
              "name": "_data",
              "type": "bytes10"
            },
            {
              "name": "_outcome",
              "type": "uint8"
            },
            {
              "name": "_active",
              "type": "bool"
            }
          ],
          "name": "",
          "type": "tuple"
        }
      ],
      "payable": false,
      "stateMutability": "view",
      "type": "function"
    }
  ],
  "bytecode": "0x6080604052662386f26fc10000600b553480156200001c57600080fd5b5060405160208062005cfa83398101806040526200003e9190810190620001db565b336000806101000a81548173ffffffffffffffffffffffffffffffffffffffff021916908373ffffffffffffffffffffffffffffffffffffffff16021790555080600160006101000a81548173ffffffffffffffffffffffffffffffffffffffff021916908373ffffffffffffffffffffffffffffffffffffffff160217905550620000d033620000d760201b60201c565b50620002ca565b3373ffffffffffffffffffffffffffffffffffffffff166000809054906101000a900473ffffffffffffffffffffffffffffffffffffffff1673ffffffffffffffffffffffffffffffffffffffff161462000169576040517f08c379a0000000000000000000000000000000000000000000000000000000008152600401620001609062000249565b60405180910390fd5b6001600260008373ffffffffffffffffffffffffffffffffffffffff1673ffffffffffffffffffffffffffffffffffffffff16815260200190815260200160002060006101000a81548160ff02191690831515021790555050565b600081519050620001d581620002b0565b92915050565b600060208284031215620001ee57600080fd5b6000620001fe84828501620001c4565b91505092915050565b6000620002166013836200026b565b91507f53656e646572206974206e6f74206f776e6572000000000000000000000000006000830152602082019050919050565b60006020820190508181036000830152620002648162000207565b9050919050565b600082825260208201905092915050565b6000620002898262000290565b9050919050565b600073ffffffffffffffffffffffffffffffffffffffff82169050919050565b620002bb816200027c565b8114620002c757600080fd5b50565b615a2080620002da6000396000f3fe608060405234801561001057600080fd5b50600436106101585760003560e01c80638da5cb5b116100c3578063c24126761161007c578063c2412676146103d6578063d2a3dcdc146103f4578063d9b210a614610410578063e581da421461042e578063f10e8a211461044a578063f605a8471461046657610158565b80638da5cb5b1461030f5780638fcafc341461032d57806399fbab881461034b578063abcf184c1461037e578063bdbd84df1461039c578063befe00bd146103ba57610158565b8063310a6c5811610115578063310a6c58146102365780633f69babd14610252578063429b62e51461026e5780634fcdea201461029e57806370480275146102bc5780638a72ea6a146102d857610158565b8063034db1d01461015d57806305477ddf146101795780630b7914301461019557806315899420146101c75780631785f53c146101e357806322af00fa146101ff575b600080fd5b6101776004803603610172919081019061418e565b610496565b005b610193600480360361018e919081019061413c565b6106f7565b005b6101af60048036036101aa919081019061413c565b610888565b6040516101be93929190615596565b60405180910390f35b6101e160048036036101dc9190810190614032565b6108bf565b005b6101fd60048036036101f89190810190614009565b610b97565b005b6102196004803603610214919081019061413c565b610d11565b60405161022d98979695949392919061570c565b60405180910390f35b610250600480360361024b9190810190614217565b610d73565b005b61026c6004803603610267919081019061413c565b610fd0565b005b61028860048036036102839190810190614009565b6111a5565b6040516102959190615076565b60405180910390f35b6102a66111c5565b6040516102b39190615509565b60405180910390f35b6102d660048036036102d19190810190614009565b6111cb565b005b6102f260048036036102ed919081019061413c565b6112b5565b60405161030698979695949392919061563b565b60405180910390f35b61031761132a565b6040516103249190614f72565b60405180910390f35b61033561134f565b6040516103429190615509565b60405180910390f35b6103656004803603610360919081019061413c565b611355565b60405161037594939291906155f6565b60405180910390f35b6103866113a5565b6040516103939190615509565b60405180910390f35b6103a46113ab565b6040516103b19190615509565b60405180910390f35b6103d460048036036103cf91908101906142a0565b6113b1565b005b6103de61219e565b6040516103eb9190615091565b60405180910390f35b61040e6004803603610409919081019061413c565b6121c4565b005b6104186129f5565b6040516104259190615509565b60405180910390f35b610448600480360361044391908101906140b3565b6129fb565b005b610464600480360361045f91908101906142dc565b612b5d565b005b610480600480360361047b91908101906142a0565b613446565b60405161048d91906154ee565b60405180910390f35b600260003373ffffffffffffffffffffffffffffffffffffffff1673ffffffffffffffffffffffffffffffffffffffff16815260200190815260200160002060009054906101000a900460ff16610522576040517f08c379a0000000000000000000000000000000000000000000000000000000008152600401610519906154ae565b60405180910390fd5b8460008111610566576040517f08c379a000000000000000000000000000000000000000000000000000000000815260040161055d9061530e565b60405180910390fd5b6007548111156105ab576040517f08c379a00000000000000000000000000000000000000000000000000000000081526004016105a29061518e565b60405180910390fd5b600060028111156105b857fe5b6003600083815260200190815260200160002060030160009054906101000a900460ff1660028111156105e757fe5b14610627576040517f08c379a000000000000000000000000000000000000000000000000000000000815260040161061e906150ee565b60405180910390fd5b6106b486868680806020026020016040519081016040528093929190818152602001838360200280828437600081840152601f19601f82011690508083019250505050505050858580806020026020016040519081016040528093929190818152602001838360200280828437600081840152601f19601f82011690508083019250505050505050613546565b7f83a57d64c7140437012fbf71b05fbb1a7bc4e7ae61290fa863966646a422fe768686866040516106e793929190615524565b60405180910390a1505050505050565b6000811161073a576040517f08c379a00000000000000000000000000000000000000000000000000000000081526004016107319061540e565b60405180910390fd5b60085481111561077f576040517f08c379a00000000000000000000000000000000000000000000000000000000081526004016107769061546e565b60405180910390fd5b3373ffffffffffffffffffffffffffffffffffffffff166004600083815260200190815260200160002060030160009054906101000a900473ffffffffffffffffffffffffffffffffffffffff1673ffffffffffffffffffffffffffffffffffffffff1614610823576040517f08c379a000000000000000000000000000000000000000000000000000000000815260040161081a9061544e565b60405180910390fd5b600060046000838152602001908152602001600020600401541161087c576040517f08c379a0000000000000000000000000000000000000000000000000000000008152600401610873906152ae565b60405180910390fd5b610885816136c6565b50565b60036020528060005260406000206000915090508060000154908060010154908060030160009054906101000a900460ff16905083565b600b54811015610904576040517f08c379a00000000000000000000000000000000000000000000000000000000081526004016108fb9061548e565b60405180910390fd5b80600160009054906101000a900473ffffffffffffffffffffffffffffffffffffffff1673ffffffffffffffffffffffffffffffffffffffff166370a08231336040518263ffffffff1660e01b81526004016109609190614f57565b60206040518083038186803b15801561097857600080fd5b505afa15801561098c573d6000803e3d6000fd5b505050506040513d601f19601f820116820180604052506109b09190810190614165565b10156109f1576040517f08c379a00000000000000000000000000000000000000000000000000000000081526004016109e8906151ce565b60405180910390fd5b80600160009054906101000a900473ffffffffffffffffffffffffffffffffffffffff1673ffffffffffffffffffffffffffffffffffffffff1663dd62ed3e33306040518363ffffffff1660e01b8152600401610a4f929190614f8d565b60206040518083038186803b158015610a6757600080fd5b505afa158015610a7b573d6000803e3d6000fd5b505050506040513d601f19601f82011682018060405250610a9f9190810190614165565b1015610ae0576040517f08c379a0000000000000000000000000000000000000000000000000000000008152600401610ad79061510e565b60405180910390fd5b6000838390509050600082905060008060008090505b84811015610b8d57600b54841015610b0d57610b8d565b878782818110610b1957fe5b90506020020135915083600460008481526020019081526020016000206005015411610b5d5760046000838152602001908152602001600020600501549250610b61565b8392505b610b6b82846113b1565b610b7e838561376790919063ffffffff16565b93508080600101915050610af6565b5050505050505050565b3373ffffffffffffffffffffffffffffffffffffffff166000809054906101000a900473ffffffffffffffffffffffffffffffffffffffff1673ffffffffffffffffffffffffffffffffffffffff1614610c26576040517f08c379a0000000000000000000000000000000000000000000000000000000008152600401610c1d9061514e565b60405180910390fd5b6000809054906101000a900473ffffffffffffffffffffffffffffffffffffffff1673ffffffffffffffffffffffffffffffffffffffff168173ffffffffffffffffffffffffffffffffffffffff161415610cb6576040517f08c379a0000000000000000000000000000000000000000000000000000000008152600401610cad906151ee565b60405180910390fd5b6000600260008373ffffffffffffffffffffffffffffffffffffffff1673ffffffffffffffffffffffffffffffffffffffff16815260200190815260200160002060006101000a81548160ff02191690831515021790555050565b60056020528060005260406000206000915090508060000154908060010154908060020154908060030154908060040154908060050154908060060160009054906101000a900460ff16908060060160019054906101000a900460ff16905088565b600260003373ffffffffffffffffffffffffffffffffffffffff1673ffffffffffffffffffffffffffffffffffffffff16815260200190815260200160002060009054906101000a900460ff16610dff576040517f08c379a0000000000000000000000000000000000000000000000000000000008152600401610df6906154ae565b60405180910390fd5b8460008111610e43576040517f08c379a0000000000000000000000000000000000000000000000000000000008152600401610e3a9061530e565b60405180910390fd5b600754811115610e88576040517f08c379a0000000000000000000000000000000000000000000000000000000008152600401610e7f9061518e565b60405180910390fd5b60006002811115610e9557fe5b6003600083815260200190815260200160002060030160009054906101000a900460ff166002811115610ec457fe5b14610f04576040517f08c379a0000000000000000000000000000000000000000000000000000000008152600401610efb906150ee565b60405180910390fd5b610f9186868680806020026020016040519081016040528093929190818152602001838360200280828437600081840152601f19601f82011690508083019250505050505050858580806020026020016040519081016040528093929190818152602001838360200280828437600081840152601f19601f820116905080830192505050505050506137b1565b7f6feb41cd6e7361ff5b27cb5a71484afb9dfeda0bd8e2f8255295286ddf9ed9c186604051610fc09190615509565b60405180910390a1505050505050565b600260003373ffffffffffffffffffffffffffffffffffffffff1673ffffffffffffffffffffffffffffffffffffffff16815260200190815260200160002060009054906101000a900460ff1661105c576040517f08c379a0000000000000000000000000000000000000000000000000000000008152600401611053906154ae565b60405180910390fd5b80600081116110a0576040517f08c379a00000000000000000000000000000000000000000000000000000000081526004016110979061530e565b60405180910390fd5b6007548111156110e5576040517f08c379a00000000000000000000000000000000000000000000000000000000081526004016110dc9061518e565b60405180910390fd5b600060028111156110f257fe5b6003600083815260200190815260200160002060030160009054906101000a900460ff16600281111561112157fe5b14611161576040517f08c379a0000000000000000000000000000000000000000000000000000000008152600401611158906150ee565b60405180910390fd5b61116a826138ac565b7f5659144559a842a58e7472643e70d4cd34ef75db0b21038dabc8d4b4f59c3050826040516111999190615509565b60405180910390a15050565b60026020528060005260406000206000915054906101000a900460ff1681565b600a5481565b3373ffffffffffffffffffffffffffffffffffffffff166000809054906101000a900473ffffffffffffffffffffffffffffffffffffffff1673ffffffffffffffffffffffffffffffffffffffff161461125a576040517f08c379a00000000000000000000000000000000000000000000000000000000081526004016112519061514e565b60405180910390fd5b6001600260008373ffffffffffffffffffffffffffffffffffffffff1673ffffffffffffffffffffffffffffffffffffffff16815260200190815260200160002060006101000a81548160ff02191690831515021790555050565b60046020528060005260406000206000915090508060000154908060010154908060020154908060030160009054906101000a900473ffffffffffffffffffffffffffffffffffffffff16908060040154908060050154908060060160009054906101000a900460ff16908060070154905088565b6000809054906101000a900473ffffffffffffffffffffffffffffffffffffffff1681565b60095481565b60066020528060005260406000206000915090508060000154908060010154908060020160009054906101000a900473ffffffffffffffffffffffffffffffffffffffff16908060030154905084565b600b5481565b60085481565b81600081116113f5576040517f08c379a00000000000000000000000000000000000000000000000000000000081526004016113ec9061540e565b60405180910390fd5b60085481111561143a576040517f08c379a00000000000000000000000000000000000000000000000000000000081526004016114319061546e565b60405180910390fd5b42600460008381526020019081526020016000206007015411611492576040517f08c379a0000000000000000000000000000000000000000000000000000000008152600401611489906153ce565b60405180910390fd5b6000600281111561149f57fe5b600360006004600085815260200190815260200160002060010154815260200190815260200160002060030160009054906101000a900460ff1660028111156114e457fe5b14611524576040517f08c379a000000000000000000000000000000000000000000000000000000000815260040161151b906150ee565b60405180910390fd5b600b546004600083815260200190815260200160002060040154101561157f576040517f08c379a00000000000000000000000000000000000000000000000000000000081526004016115769061528e565b60405180910390fd5b600b54600460008381526020019081526020016000206005015410156115da576040517f08c379a00000000000000000000000000000000000000000000000000000000081526004016115d19061524e565b60405180910390fd5b600b54600160009054906101000a900473ffffffffffffffffffffffffffffffffffffffff1673ffffffffffffffffffffffffffffffffffffffff166370a082316004600085815260200190815260200160002060030160009054906101000a900473ffffffffffffffffffffffffffffffffffffffff166040518263ffffffff1660e01b815260040161166e9190614f3c565b60206040518083038186803b15801561168657600080fd5b505afa15801561169a573d6000803e3d6000fd5b505050506040513d601f19601f820116820180604052506116be9190810190614165565b10156116ff576040517f08c379a00000000000000000000000000000000000000000000000000000000081526004016116f6906150ce565b60405180910390fd5b600b54600160009054906101000a900473ffffffffffffffffffffffffffffffffffffffff1673ffffffffffffffffffffffffffffffffffffffff1663dd62ed3e6004600085815260200190815260200160002060030160009054906101000a900473ffffffffffffffffffffffffffffffffffffffff16306040518363ffffffff1660e01b8152600401611795929190614fed565b60206040518083038186803b1580156117ad57600080fd5b505afa1580156117c1573d6000803e3d6000fd5b505050506040513d601f19601f820116820180604052506117e59190810190614165565b1015611826576040517f08c379a000000000000000000000000000000000000000000000000000000000815260040161181d9061512e565b60405180910390fd5b600b5482101561186b576040517f08c379a00000000000000000000000000000000000000000000000000000000081526004016118629061548e565b60405180910390fd5b81600160009054906101000a900473ffffffffffffffffffffffffffffffffffffffff1673ffffffffffffffffffffffffffffffffffffffff166370a08231336040518263ffffffff1660e01b81526004016118c79190614f57565b60206040518083038186803b1580156118df57600080fd5b505afa1580156118f3573d6000803e3d6000fd5b505050506040513d601f19601f820116820180604052506119179190810190614165565b1015611958576040517f08c379a000000000000000000000000000000000000000000000000000000000815260040161194f906151ce565b60405180910390fd5b81600160009054906101000a900473ffffffffffffffffffffffffffffffffffffffff1673ffffffffffffffffffffffffffffffffffffffff1663dd62ed3e33306040518363ffffffff1660e01b81526004016119b6929190614f8d565b60206040518083038186803b1580156119ce57600080fd5b505afa1580156119e2573d6000803e3d6000fd5b505050506040513d601f19601f82011682018060405250611a069190810190614165565b1015611a47576040517f08c379a0000000000000000000000000000000000000000000000000000000008152600401611a3e9061510e565b60405180910390fd5b611a4f613d85565b60046000858152602001908152602001600020604051806101000160405290816000820154815260200160018201548152602001600282015481526020016003820160009054906101000a900473ffffffffffffffffffffffffffffffffffffffff1673ffffffffffffffffffffffffffffffffffffffff1673ffffffffffffffffffffffffffffffffffffffff16815260200160048201548152602001600582015481526020016006820160009054906101000a900460ff166008811115611b1457fe5b6008811115611b1f57fe5b815260200160078201548152505090506000839050838260a001511015611b48578160a0015190505b6000611b778360a00151611b6984866080015161399490919063ffffffff16565b613a0490919063ffffffff16565b90506000600160009054906101000a900473ffffffffffffffffffffffffffffffffffffffff1673ffffffffffffffffffffffffffffffffffffffff166370a0823185606001516040518263ffffffff1660e01b8152600401611bda9190614f3c565b60206040518083038186803b158015611bf257600080fd5b505afa158015611c06573d6000803e3d6000fd5b505050506040513d601f19601f82011682018060405250611c2a9190810190614165565b90506000600160009054906101000a900473ffffffffffffffffffffffffffffffffffffffff1673ffffffffffffffffffffffffffffffffffffffff1663dd62ed3e8660600151306040518363ffffffff1660e01b8152600401611c8f929190614fed565b60206040518083038186803b158015611ca757600080fd5b505afa158015611cbb573d6000803e3d6000fd5b505050506040513d601f19601f82011682018060405250611cdf9190810190614165565b90506000818311611cf05782611cf2565b815b905083811015611d2f57809350611d2c8660800151611d1e8860a001518761399490919063ffffffff16565b613a0490919063ffffffff16565b94505b6000611d4885886080015161376790919063ffffffff16565b90506000611d798860800151611d6b8a60a001518561399490919063ffffffff16565b613a0490919063ffffffff16565b9050600160009054906101000a900473ffffffffffffffffffffffffffffffffffffffff1673ffffffffffffffffffffffffffffffffffffffff166323b872dd33308a6040518463ffffffff1660e01b8152600401611dda93929190614fb6565b602060405180830381600087803b158015611df457600080fd5b505af1158015611e08573d6000803e3d6000fd5b505050506040513d601f19601f82011682018060405250611e2c919081019061408a565b50600160009054906101000a900473ffffffffffffffffffffffffffffffffffffffff1673ffffffffffffffffffffffffffffffffffffffff166323b872dd896060015130896040518463ffffffff1660e01b8152600401611e9093929190615016565b602060405180830381600087803b158015611eaa57600080fd5b505af1158015611ebe573d6000803e3d6000fd5b505050506040513d601f19601f82011682018060405250611ee2919081019061408a565b50611ef96001600954613a4e90919063ffffffff16565b600981905550611f07613deb565b600954816000018181525050886020015181602001818152505088604001518160400181815250508860c001518160c001906008811115611f4457fe5b90816008811115611f5157fe5b8152505060008160e001906002811115611f6757fe5b90816002811115611f7457fe5b81525050611f80613e46565b611f8f8260000151338b613aa3565b9050611f99613e46565b611fac83600001518c606001518b613aa3565b90508160000151836060018181525050806000015183608001818152505080606001518260600151018360a001818152505082600560006009548152602001908152602001600020600082015181600001556020820151816001015560408201518160020155606082015181600301556080820151816004015560a0820151816005015560c08201518160060160006101000a81548160ff0219169083600881111561205457fe5b021790555060e08201518160060160016101000a81548160ff0219169083600281111561207d57fe5b0217905550905050826040015183602001517f3ef5d5101849c8390db15bde5a53a0ef5e3a06015177f4e4f74a083a6c5e0b2b8560000151866060015187608001518860a001518960c0015160088111156120d457fe5b6040516120e59594939291906156b9565b60405180910390a384600460008d6000015181526020019081526020016000206004018190555083600460008d60000151815260200190815260200160002060050181905550600b5485108061213c5750600b5484105b156121535761214e8b600001516136c6565b61218e565b8d7f5ea42548ff40d620617772fd22184dc535e409eda210646ca0d470648921e59186866040516121859291906155cd565b60405180910390a25b5050505050505050505050505050565b600160009054906101000a900473ffffffffffffffffffffffffffffffffffffffff1681565b60008111612207576040517f08c379a00000000000000000000000000000000000000000000000000000000081526004016121fe9061536e565b60405180910390fd5b60095481111561224c576040517f08c379a0000000000000000000000000000000000000000000000000000000008152600401612243906152ee565b60405180910390fd5b6000600281111561225957fe5b6005600083815260200190815260200160002060060160019054906101000a900460ff16600281111561228857fe5b146122c8576040517f08c379a00000000000000000000000000000000000000000000000000000000081526004016122bf9061534e565b60405180910390fd5b600060028111156122d557fe5b600360006005600085815260200190815260200160002060010154815260200190815260200160002060030160009054906101000a900460ff16600281111561231a57fe5b1161235a576040517f08c379a00000000000000000000000000000000000000000000000000000000081526004016123519061538e565b60405180910390fd5b612362613deb565b60056000838152602001908152602001600020604051806101000160405290816000820154815260200160018201548152602001600282015481526020016003820154815260200160048201548152602001600582015481526020016006820160009054906101000a900460ff1660088111156123db57fe5b60088111156123e657fe5b81526020016006820160019054906101000a900460ff16600281111561240857fe5b600281111561241357fe5b81525050905060006003600083602001518152602001908152602001600020905060028081111561244057fe5b8160030160009054906101000a900460ff16600281111561245d57fe5b141561267057600160009054906101000a900473ffffffffffffffffffffffffffffffffffffffff1673ffffffffffffffffffffffffffffffffffffffff1663a9059cbb600660008560600151815260200190815260200160002060020160009054906101000a900473ffffffffffffffffffffffffffffffffffffffff166006600086606001518152602001908152602001600020600301546040518363ffffffff1660e01b815260040161251492919061504d565b602060405180830381600087803b15801561252e57600080fd5b505af1158015612542573d6000803e3d6000fd5b505050506040513d601f19601f82011682018060405250612566919081019061408a565b50600160009054906101000a900473ffffffffffffffffffffffffffffffffffffffff1673ffffffffffffffffffffffffffffffffffffffff1663a9059cbb600660008560800151815260200190815260200160002060020160009054906101000a900473ffffffffffffffffffffffffffffffffffffffff166006600086608001518152602001908152602001600020600301546040518363ffffffff1660e01b815260040161261892919061504d565b602060405180830381600087803b15801561263257600080fd5b505af1158015612646573d6000803e3d6000fd5b505050506040513d601f19601f8201168201806040525061266a919081019061408a565b506128e9565b8160c00151600881111561268057fe5b81600201600084604001518152602001908152602001600020600001600b9054906101000a900460ff1660088111156126b557fe5b14156127ae57600160009054906101000a900473ffffffffffffffffffffffffffffffffffffffff1673ffffffffffffffffffffffffffffffffffffffff1663a9059cbb600660008560600151815260200190815260200160002060020160009054906101000a900473ffffffffffffffffffffffffffffffffffffffff168460a001516040518363ffffffff1660e01b815260040161275692919061504d565b602060405180830381600087803b15801561277057600080fd5b505af1158015612784573d6000803e3d6000fd5b505050506040513d601f19601f820116820180604052506127a8919081019061408a565b506128e8565b8160c0015160088111156127be57fe5b81600201600084604001518152602001908152602001600020600001600b9054906101000a900460ff1660088111156127f357fe5b146128e757600160009054906101000a900473ffffffffffffffffffffffffffffffffffffffff1673ffffffffffffffffffffffffffffffffffffffff1663a9059cbb600660008560800151815260200190815260200160002060020160009054906101000a900473ffffffffffffffffffffffffffffffffffffffff168460a001516040518363ffffffff1660e01b815260040161289392919061504d565b602060405180830381600087803b1580156128ad57600080fd5b505af11580156128c1573d6000803e3d6000fd5b505050506040513d601f19601f820116820180604052506128e5919081019061408a565b505b5b5b60018260e0019060028111156128fb57fe5b9081600281111561290857fe5b81525050816005600084600001518152602001908152602001600020600082015181600001556020820151816001015560408201518160020155606082015181600301556080820151816004015560a0820151816005015560c08201518160060160006101000a81548160ff0219169083600881111561298457fe5b021790555060e08201518160060160016101000a81548160ff021916908360028111156129ad57fe5b02179055509050507f3cfe31b94fb3243d019e7a065369475e0d7e1db829b5de6685043f38275007bd82600001516040516129e89190615509565b60405180910390a1505050565b60075481565b600260003373ffffffffffffffffffffffffffffffffffffffff1673ffffffffffffffffffffffffffffffffffffffff16815260200190815260200160002060009054906101000a900460ff16612a87576040517f08c379a0000000000000000000000000000000000000000000000000000000008152600401612a7e906154ae565b60405180910390fd5b6000612b1686868680806020026020016040519081016040528093929190818152602001838360200280828437600081840152601f19601f82011690508083019250505050505050858580806020026020016040519081016040528093929190818152602001838360200280828437600081840152601f19601f82011690508083019250505050505050613b92565b90507f8b6b49aa1acd02b255d510e65edd7f8cdfea08d67550e2157c75b46c730fec2981878787604051612b4d9493929190615556565b60405180910390a1505050505050565b8560008111612ba1576040517f08c379a0000000000000000000000000000000000000000000000000000000008152600401612b989061530e565b60405180910390fd5b600754811115612be6576040517f08c379a0000000000000000000000000000000000000000000000000000000008152600401612bdd9061518e565b60405180910390fd5b60006002811115612bf357fe5b6003600083815260200190815260200160002060030160009054906101000a900460ff166002811115612c2257fe5b14612c62576040517f08c379a0000000000000000000000000000000000000000000000000000000008152600401612c59906150ee565b60405180910390fd5b8686600360008381526020019081526020016000206002016000828152602001908152602001600020600001600c9054906101000a900460ff16612cdb576040517f08c379a0000000000000000000000000000000000000000000000000000000008152600401612cd2906151ae565b60405180910390fd5b88888660006005811115612ceb57fe5b826005811115612cf757fe5b6005811115612d0257fe5b1415612da75760046008811115612d1557fe5b811115612d57576040517f08c379a0000000000000000000000000000000000000000000000000000000008152600401612d4e9061520e565b60405180910390fd5b60026008811115612d6457fe5b811015612da6576040517f08c379a0000000000000000000000000000000000000000000000000000000008152600401612d9d9061520e565b60405180910390fd5b5b60016005811115612db457fe5b826005811115612dc057fe5b6005811115612dcb57fe5b1415612e705760036008811115612dde57fe5b811115612e20576040517f08c379a0000000000000000000000000000000000000000000000000000000008152600401612e17906152ce565b60405180910390fd5b60026008811115612e2d57fe5b811015612e6f576040517f08c379a0000000000000000000000000000000000000000000000000000000008152600401612e66906152ce565b60405180910390fd5b5b60026005811115612e7d57fe5b826005811115612e8957fe5b6005811115612e9457fe5b1415612f395760066008811115612ea757fe5b811115612ee9576040517f08c379a0000000000000000000000000000000000000000000000000000000008152600401612ee0906154ce565b60405180910390fd5b60056008811115612ef657fe5b811015612f38576040517f08c379a0000000000000000000000000000000000000000000000000000000008152600401612f2f906154ce565b60405180910390fd5b5b60036005811115612f4657fe5b826005811115612f5257fe5b6005811115612f5d57fe5b14156130025760036008811115612f7057fe5b811115612fb2576040517f08c379a0000000000000000000000000000000000000000000000000000000008152600401612fa99061522e565b60405180910390fd5b60026008811115612fbf57fe5b811015613001576040517f08c379a0000000000000000000000000000000000000000000000000000000008152600401612ff89061522e565b60405180910390fd5b5b6004600581111561300f57fe5b82600581111561301b57fe5b600581111561302657fe5b14156130ca5760088081111561303857fe5b81111561307a576040517f08c379a00000000000000000000000000000000000000000000000000000000081526004016130719061542e565b60405180910390fd5b6007600881111561308757fe5b8110156130c9576040517f08c379a00000000000000000000000000000000000000000000000000000000081526004016130c09061542e565b60405180910390fd5b5b6005808111156130d657fe5b8260058111156130e257fe5b60058111156130ed57fe5b1415613192576003600881111561310057fe5b811115613142576040517f08c379a00000000000000000000000000000000000000000000000000000000081526004016131399061526e565b60405180910390fd5b6002600881111561314f57fe5b811015613191576040517f08c379a00000000000000000000000000000000000000000000000000000000081526004016131889061526e565b60405180910390fd5b5b600b548910156131d7576040517f08c379a00000000000000000000000000000000000000000000000000000000081526004016131ce906153ae565b60405180910390fd5b600b548a101561321c576040517f08c379a00000000000000000000000000000000000000000000000000000000081526004016132139061548e565b60405180910390fd5b4287101561325f576040517f08c379a0000000000000000000000000000000000000000000000000000000008152600401613256906153ee565b60405180910390fd5b6132756001600854613a4e90919063ffffffff16565b600881905550613283613d85565b60405180610100016040528060085481526020018e81526020018d81526020013373ffffffffffffffffffffffffffffffffffffffff1681526020018c81526020018b81526020018a60088111156132d757fe5b60088111156132e257fe5b815260200189815250905080600460008360000151815260200190815260200160002060008201518160000155602082015181600101556040820151816002015560608201518160030160006101000a81548173ffffffffffffffffffffffffffffffffffffffff021916908373ffffffffffffffffffffffffffffffffffffffff1602179055506080820151816004015560a0820151816005015560c08201518160060160006101000a81548160ff021916908360088111156133a257fe5b021790555060e08201518160070155905050806060015173ffffffffffffffffffffffffffffffffffffffff16816040015182602001517fb7de6da7777d765cb972cf5c37014a3d218e39f76a8d57830f47547dc14216f5846000015185608001518660a001518760c00151600881111561341957fe5b8860e0015160405161342f9594939291906156b9565b60405180910390a450505050505050505050505050565b61344e613e84565b6003600084815260200190815260200160002060020160008381526020019081526020016000206040518060800160405290816000820160009054906101000a900460ff16600581111561349e57fe5b60058111156134a957fe5b81526020016000820160019054906101000a900460b01b75ffffffffffffffffffffffffffffffffffffffffffff191675ffffffffffffffffffffffffffffffffffffffffffff1916815260200160008201600b9054906101000a900460ff16600881111561351457fe5b600881111561351f57fe5b815260200160008201600c9054906101000a900460ff161515151581525050905092915050565b60008090505b82518110156136c057604051806080016040528084838151811061356c57fe5b6020026020010151600581111561357f57fe5b600581111561358a57fe5b815260200183838151811061359b57fe5b602002602001015175ffffffffffffffffffffffffffffffffffffffffffff19168152602001600060088111156135ce57fe5b8152602001600115158152506003600086815260200190815260200160002060020160008584815181106135fe57fe5b6020026020010151815260200190815260200160002060008201518160000160006101000a81548160ff0219169083600581111561363857fe5b021790555060208201518160000160016101000a81548169ffffffffffffffffffff021916908360b01c0217905550604082015181600001600b6101000a81548160ff0219169083600881111561368b57fe5b0217905550606082015181600001600c6101000a81548160ff021916908315150217905550905050808060010191505061354c565b50505050565b6000600460008381526020019081526020016000206004018190555060006004600083815260200190815260200160002060050181905550807f5ea42548ff40d620617772fd22184dc535e409eda210646ca0d470648921e5916004600084815260200190815260200160002060040154600460008581526020019081526020016000206005015460405161375c9291906155cd565b60405180910390a250565b60006137a983836040518060400160405280601e81526020017f536166654d6174683a207375627472616374696f6e206f766572666c6f770000815250613c65565b905092915050565b6000600360008581526020019081526020016000209050600060028111156137d557fe5b8160030160009054906101000a900460ff1660028111156137f257fe5b14156138a65760008090505b835181101561387e5782818151811061381357fe5b6020026020010151600881111561382657fe5b82600201600086848151811061383857fe5b60200260200101518152602001908152602001600020600001600b6101000a81548160ff0219169083600881111561386c57fe5b021790555080806001019150506137fe565b5060018160030160006101000a81548160ff021916908360028111156138a057fe5b02179055505b50505050565b6138b4613edd565b6003600083815260200190815260200160002060405180606001604052908160008201548152602001600182015481526020016003820160009054906101000a900460ff16600281111561390457fe5b600281111561390f57fe5b81525050905060028160400190600281111561392757fe5b9081600281111561393457fe5b81525050806003600083600001518152602001908152602001600020600082015181600001556020820151816001015560408201518160030160006101000a81548160ff0219169083600281111561398857fe5b02179055509050505050565b6000808314156139a757600090506139fe565b60008284029050828482816139b857fe5b04146139f9576040517f08c379a00000000000000000000000000000000000000000000000000000000081526004016139f09061532e565b60405180910390fd5b809150505b92915050565b6000613a4683836040518060400160405280601a81526020017f536166654d6174683a206469766973696f6e206279207a65726f000000000000815250613cc0565b905092915050565b600080828401905083811015613a99576040517f08c379a0000000000000000000000000000000000000000000000000000000008152600401613a909061516e565b60405180910390fd5b8091505092915050565b613aab613e46565b613ac16001600a54613a4e90919063ffffffff16565b600a819055506040518060800160405280600a5481526020018581526020018473ffffffffffffffffffffffffffffffffffffffff168152602001838152509050806006600083600001518152602001908152602001600020600082015181600001556020820151816001015560408201518160020160006101000a81548173ffffffffffffffffffffffffffffffffffffffff021916908373ffffffffffffffffffffffffffffffffffffffff16021790555060608201518160030155905050613b8b81613d21565b9392505050565b6000613baa6001600754613a4e90919063ffffffff16565b600781905550613bb8613edd565b60075481600001818152505084816020018181525050600081604001906002811115613be057fe5b90816002811115613bed57fe5b81525050806003600083600001518152602001908152602001600020600082015181600001556020820151816001015560408201518160030160006101000a81548160ff02191690836002811115613c4157fe5b0217905550905050613c5881600001518585613546565b6007549150509392505050565b6000838311158290613cad576040517f08c379a0000000000000000000000000000000000000000000000000000000008152600401613ca491906150ac565b60405180910390fd5b5060008385039050809150509392505050565b60008083118290613d07576040517f08c379a0000000000000000000000000000000000000000000000000000000008152600401613cfe91906150ac565b60405180910390fd5b506000838581613d1357fe5b049050809150509392505050565b806040015173ffffffffffffffffffffffffffffffffffffffff1681602001517f80d39385dad8355dde22faf7d8393287326187fb23b8098047bd405b72765e4183600001518460600151604051613d7a9291906155cd565b60405180910390a350565b604051806101000160405280600081526020016000815260200160008152602001600073ffffffffffffffffffffffffffffffffffffffff168152602001600081526020016000815260200160006008811115613dde57fe5b8152602001600081525090565b60405180610100016040528060008152602001600081526020016000815260200160008152602001600081526020016000815260200160006008811115613e2e57fe5b815260200160006002811115613e4057fe5b81525090565b60405180608001604052806000815260200160008152602001600073ffffffffffffffffffffffffffffffffffffffff168152602001600081525090565b604051806080016040528060006005811115613e9c57fe5b8152602001600075ffffffffffffffffffffffffffffffffffffffffffff1916815260200160006008811115613ece57fe5b81526020016000151581525090565b6040518060600160405280600081526020016000801916815260200160006002811115613f0657fe5b81525090565b600081359050613f1b8161598a565b92915050565b60008083601f840112613f3357600080fd5b8235905067ffffffffffffffff811115613f4c57600080fd5b602083019150836020820283011115613f6457600080fd5b9250929050565b60008083601f840112613f7d57600080fd5b8235905067ffffffffffffffff811115613f9657600080fd5b602083019150836020820283011115613fae57600080fd5b9250929050565b600081519050613fc4816159a1565b92915050565b600081359050613fd9816159b8565b92915050565b600081359050613fee816159cf565b92915050565b600081519050614003816159cf565b92915050565b60006020828403121561401b57600080fd5b600061402984828501613f0c565b91505092915050565b60008060006040848603121561404757600080fd5b600084013567ffffffffffffffff81111561406157600080fd5b61406d86828701613f6b565b9350935050602061408086828701613fdf565b9150509250925092565b60006020828403121561409c57600080fd5b60006140aa84828501613fb5565b91505092915050565b6000806000806000606086880312156140cb57600080fd5b60006140d988828901613fca565b955050602086013567ffffffffffffffff8111156140f657600080fd5b61410288828901613f6b565b9450945050604086013567ffffffffffffffff81111561412157600080fd5b61412d88828901613f21565b92509250509295509295909350565b60006020828403121561414e57600080fd5b600061415c84828501613fdf565b91505092915050565b60006020828403121561417757600080fd5b600061418584828501613ff4565b91505092915050565b6000806000806000606086880312156141a657600080fd5b60006141b488828901613fdf565b955050602086013567ffffffffffffffff8111156141d157600080fd5b6141dd88828901613f6b565b9450945050604086013567ffffffffffffffff8111156141fc57600080fd5b61420888828901613f21565b92509250509295509295909350565b60008060008060006060868803121561422f57600080fd5b600061423d88828901613fdf565b955050602086013567ffffffffffffffff81111561425a57600080fd5b61426688828901613f6b565b9450945050604086013567ffffffffffffffff81111561428557600080fd5b61429188828901613f6b565b92509250509295509295909350565b600080604083850312156142b357600080fd5b60006142c185828601613fdf565b92505060206142d285828601613fdf565b9150509250929050565b60008060008060008060c087890312156142f557600080fd5b600061430389828a01613fdf565b965050602061431489828a01613fdf565b955050604061432589828a01613fdf565b945050606061433689828a01613fdf565b935050608061434789828a01613fdf565b92505060a061435889828a01613fdf565b9150509295509295509295565b61436e81615880565b82525050565b61437d816157c9565b82525050565b61438c816157b7565b82525050565b600061439e8385615795565b93507f07ffffffffffffffffffffffffffffffffffffffffffffffffffffffffffffff8311156143cd57600080fd5b6020830292506143de838584615910565b82840190509392505050565b6143f3816157db565b82525050565b614402816157db565b82525050565b614411816157e7565b82525050565b61442081615813565b82525050565b61442f81615892565b82525050565b61443e816158b6565b82525050565b61444d816158c8565b82525050565b61445c816158c8565b82525050565b61446b816158da565b82525050565b600061447c8261578a565b61448681856157a6565b935061449681856020860161591f565b61449f81615952565b840191505092915050565b60006144b76024836157a6565b91507f4f66666572206f776e65722062616c616e63652069732062656c6f77206d696e60008301527f696d756d000000000000000000000000000000000000000000000000000000006020830152604082019050919050565b600061451d6011836157a6565b91507f4576656e74206973206e6f74206f70656e0000000000000000000000000000006000830152602082019050919050565b600061455d601f836157a6565b91507f416d6f756e7420657863656564732073656e64657220616c6c6f77616e6365006000830152602082019050919050565b600061459d6026836157a6565b91507f4f66666572206f776e657220616c6c6f77616e63652069732062656c6f77206d60008301527f696e696d756d00000000000000000000000000000000000000000000000000006020830152604082019050919050565b60006146036013836157a6565b91507f53656e646572206974206e6f74206f776e6572000000000000000000000000006000830152602082019050919050565b6000614643601b836157a6565b91507f536166654d6174683a206164646974696f6e206f766572666c6f7700000000006000830152602082019050919050565b6000614683601b836157a6565b91507f4576656e7420696420646f6573206e6f742065786973742079657400000000006000830152602082019050919050565b60006146c36017836157a6565b91507f4d61726b6574206973206e6f7420617661696c61626c650000000000000000006000830152602082019050919050565b6000614703601d836157a6565b91507f416d6f756e7420657863656564732073656e6465722062616c616e63650000006000830152602082019050919050565b60006147436024836157a6565b91507f4f776e65722063616e206e6f742062652072656d6f7665642066726f6d20616460008301527f6d696e73000000000000000000000000000000000000000000000000000000006020830152604082019050919050565b60006147a96035836157a6565b91507f53656c6563746564206f7574636f6d65206973206e6f742076616c696420666f60008301527f7220484f4d454157415944524157206d61726b657400000000000000000000006020830152604082019050919050565b600061480f6034836157a6565b91507f53656c6563746564206f7574636f6d65206973206e6f742076616c696420666f60008301527f7220504f494e54535052454144206d61726b65740000000000000000000000006020830152604082019050919050565b6000614875601c836157a6565b91507f4f666665722070726963652069732062656c6f77206d696e696d756d000000006000830152602082019050919050565b60006148b56039836157a6565b91507f53656c6563746564206f7574636f6d65206973206e6f742076616c696420666f60008301527f722046495253545445414d544f53434f5245206d61726b6574000000000000006020830152604082019050919050565b600061491b601d836157a6565b91507f4f6666657220616d6f756e742069732062656c6f77206d696e696d756d0000006000830152602082019050919050565b600061495b6017836157a6565b91507f4f6666657220697320616c726561647920636c6f7365640000000000000000006000830152602082019050919050565b600061499b6032836157a6565b91507f53656c6563746564206f7574636f6d65206973206e6f742076616c696420666f60008301527f72204d4f4e45594c494e45206d61726b657400000000000000000000000000006020830152604082019050919050565b6000614a016015836157a6565b91507f42657420696420646f6573206e6f7420657869737400000000000000000000006000830152602082019050919050565b6000614a416021836157a6565b91507f4576656e742069642073686f756c642062652067726561746572207468616e2060008301527f30000000000000000000000000000000000000000000000000000000000000006020830152604082019050919050565b6000614aa76021836157a6565b91507f536166654d6174683a206d756c7469706c69636174696f6e206f766572666c6f60008301527f77000000000000000000000000000000000000000000000000000000000000006020830152604082019050919050565b6000614b0d600f836157a6565b91507f426574206973206e6f74206f70656e00000000000000000000000000000000006000830152602082019050919050565b6000614b4d601f836157a6565b91507f4265742069642073686f756c642062652067726561746572207468616e2030006000830152602082019050919050565b6000614b8d6013836157a6565b91507f4576656e74206973207374696c6c206f70656e000000000000000000000000006000830152602082019050919050565b6000614bcd6016836157a6565b91507f50726963652069732062656c6f77206d696e696d756d000000000000000000006000830152602082019050919050565b6000614c0d6010836157a6565b91507f4f666665722069732065787069726564000000000000000000000000000000006000830152602082019050919050565b6000614c4d6023836157a6565b91507f45787069726174696f6e2074696d657374616d7020697320696e20746865207060008301527f61737400000000000000000000000000000000000000000000000000000000006020830152604082019050919050565b6000614cb36021836157a6565b91507f4f666665722069642073686f756c642062652067726561746572207468616e2060008301527f30000000000000000000000000000000000000000000000000000000000000006020830152604082019050919050565b6000614d196036836157a6565b91507f53656c6563746564206f7574636f6d65206973206e6f742076616c696420666f60008301527f7220424f54485445414d53434f5245206d61726b6574000000000000000000006020830152604082019050919050565b6000614d7f6019836157a6565b91507f4f66666572206f776e6572206973206e6f742073656e646572000000000000006000830152602082019050919050565b6000614dbf601b836157a6565b91507f4f6666657220696420646f6573206e6f742065786973742079657400000000006000830152602082019050919050565b6000614dff6017836157a6565b91507f416d6f756e742069732062656c6f77206d696e696d756d0000000000000000006000830152602082019050919050565b6000614e3f6016836157a6565b91507f53656e646572206973206e6f7420616e2061646d696e000000000000000000006000830152602082019050919050565b6000614e7f6032836157a6565b91507f53656c6563746564206f7574636f6d65206973206e6f742076616c696420666f60008301527f72204f564552554e444552206d61726b657400000000000000000000000000006020830152604082019050919050565b608082016000820151614eee6000850182614435565b506020820151614f016020850182614408565b506040820151614f146040850182614444565b506060820151614f2760608501826143ea565b50505050565b614f3681615876565b82525050565b6000602082019050614f516000830184614383565b92915050565b6000602082019050614f6c6000830184614365565b92915050565b6000602082019050614f876000830184614374565b92915050565b6000604082019050614fa26000830185614365565b614faf6020830184614383565b9392505050565b6000606082019050614fcb6000830186614365565b614fd86020830185614383565b614fe56040830184614f2d565b949350505050565b60006040820190506150026000830185614383565b61500f6020830184614383565b9392505050565b600060608201905061502b6000830186614383565b6150386020830185614383565b6150456040830184614f2d565b949350505050565b60006040820190506150626000830185614383565b61506f6020830184614f2d565b9392505050565b600060208201905061508b60008301846143f9565b92915050565b60006020820190506150a66000830184614426565b92915050565b600060208201905081810360008301526150c68184614471565b905092915050565b600060208201905081810360008301526150e7816144aa565b9050919050565b6000602082019050818103600083015261510781614510565b9050919050565b6000602082019050818103600083015261512781614550565b9050919050565b6000602082019050818103600083015261514781614590565b9050919050565b60006020820190508181036000830152615167816145f6565b9050919050565b6000602082019050818103600083015261518781614636565b9050919050565b600060208201905081810360008301526151a781614676565b9050919050565b600060208201905081810360008301526151c7816146b6565b9050919050565b600060208201905081810360008301526151e7816146f6565b9050919050565b6000602082019050818103600083015261520781614736565b9050919050565b600060208201905081810360008301526152278161479c565b9050919050565b6000602082019050818103600083015261524781614802565b9050919050565b6000602082019050818103600083015261526781614868565b9050919050565b60006020820190508181036000830152615287816148a8565b9050919050565b600060208201905081810360008301526152a78161490e565b9050919050565b600060208201905081810360008301526152c78161494e565b9050919050565b600060208201905081810360008301526152e78161498e565b9050919050565b60006020820190508181036000830152615307816149f4565b9050919050565b6000602082019050818103600083015261532781614a34565b9050919050565b6000602082019050818103600083015261534781614a9a565b9050919050565b6000602082019050818103600083015261536781614b00565b9050919050565b6000602082019050818103600083015261538781614b40565b9050919050565b600060208201905081810360008301526153a781614b80565b9050919050565b600060208201905081810360008301526153c781614bc0565b9050919050565b600060208201905081810360008301526153e781614c00565b9050919050565b6000602082019050818103600083015261540781614c40565b9050919050565b6000602082019050818103600083015261542781614ca6565b9050919050565b6000602082019050818103600083015261544781614d0c565b9050919050565b6000602082019050818103600083015261546781614d72565b9050919050565b6000602082019050818103600083015261548781614db2565b9050919050565b600060208201905081810360008301526154a781614df2565b9050919050565b600060208201905081810360008301526154c781614e32565b9050919050565b600060208201905081810360008301526154e781614e72565b9050919050565b60006080820190506155036000830184614ed8565b92915050565b600060208201905061551e6000830184614f2d565b92915050565b60006040820190506155396000830186614f2d565b818103602083015261554c818486614392565b9050949350505050565b600060608201905061556b6000830187614f2d565b6155786020830186614417565b818103604083015261558b818486614392565b905095945050505050565b60006060820190506155ab6000830186614f2d565b6155b86020830185614417565b6155c56040830184614462565b949350505050565b60006040820190506155e26000830185614f2d565b6155ef6020830184614f2d565b9392505050565b600060808201905061560b6000830187614f2d565b6156186020830186614f2d565b6156256040830185614383565b6156326060830184614f2d565b95945050505050565b600061010082019050615651600083018b614f2d565b61565e602083018a614f2d565b61566b6040830189614f2d565b6156786060830188614383565b6156856080830187614f2d565b61569260a0830186614f2d565b61569f60c0830185614453565b6156ac60e0830184614f2d565b9998505050505050505050565b600060a0820190506156ce6000830188614f2d565b6156db6020830187614f2d565b6156e86040830186614f2d565b6156f56060830185614f2d565b6157026080830184614f2d565b9695505050505050565b600061010082019050615722600083018b614f2d565b61572f602083018a614f2d565b61573c6040830189614f2d565b6157496060830188614f2d565b6157566080830187614f2d565b61576360a0830186614f2d565b61577060c0830185614453565b61577d60e0830184614462565b9998505050505050505050565b600081519050919050565b600082825260208201905092915050565b600082825260208201905092915050565b60006157c282615856565b9050919050565b60006157d482615856565b9050919050565b60008115159050919050565b60007fffffffffffffffffffff0000000000000000000000000000000000000000000082169050919050565b6000819050919050565b600081905061582b82615963565b919050565b600081905061583e82615970565b919050565b60008190506158518261597d565b919050565b600073ffffffffffffffffffffffffffffffffffffffff82169050919050565b6000819050919050565b600061588b826158ec565b9050919050565b600061589d826158a4565b9050919050565b60006158af82615856565b9050919050565b60006158c18261581d565b9050919050565b60006158d382615830565b9050919050565b60006158e582615843565b9050919050565b60006158f7826158fe565b9050919050565b600061590982615856565b9050919050565b82818337600083830152505050565b60005b8381101561593d578082015181840152602081019050615922565b8381111561594c576000848401525b50505050565b6000601f19601f8301169050919050565b6006811061596d57fe5b50565b6009811061597a57fe5b50565b6003811061598757fe5b50565b615993816157b7565b811461599e57600080fd5b50565b6159aa816157db565b81146159b557600080fd5b50565b6159c181615813565b81146159cc57600080fd5b50565b6159d881615876565b81146159e357600080fd5b5056fea265627a7a723058203c75eb824dd5da9ff8c159165b9b9587151c6588fc8561b2d59491fd8e2b6cf36c6578706572696d656e74616cf50037",
  "source": "pragma solidity >=0.4.21 <0.6.0;\npragma experimental ABIEncoderV2;\n\nimport \"openzeppelin-solidity/contracts/math/SafeMath.sol\";\nimport \"./MaticWETH.sol\";\n\n/// @title SocialBet contract\n/// @author Andy Mpondo Black\n/// @notice This contract is used for SocialBet decentralized sports betting platform\n/// @dev This contract interact with WETH ERC-20 token contract\ncontract SocialBet {\n\n    using SafeMath for uint;\n\n    /***************************************************************************\n     *                      Variables, Constants & Enums                       *\n     ***************************************************************************/\n\n    /// @notice Owner of SocialBet smart contract\n    address payable public owner;\n\n    /// @notice token contract for transfers\n    MaticWETH public Token;\n\n    /// @notice Administrators mapping\n    mapping(address => bool) public admins;\n\n    /// @notice Events mapping\n    mapping(uint => Event) public events;\n    /// @notice Offers mapping\n    mapping(uint => Offer) public offers;\n    /// @notice Bets mapping\n    mapping(uint => Bet) public bets;\n    /// @notice Positions mapping\n    mapping(uint => Position) public positions;\n\n    /// @notice Number of events, used to set id of created events\n    uint public m_nbEvents;\n    /// @notice Number of offers, used to set id of created offers\n    uint public m_nbOffers;\n    /// @notice Number of bets, used to set id of created bets\n    uint public m_nbBets;\n    /// @notice Number of positions, used to set id of created positions\n    uint public m_nbPositions;\n\n    /// @notice Minimum ammount to maintain an Offer open to sell\n    uint public m_minAmount = 10000000000000000;\n\n    enum State {OPEN, CLOSE, CANCELED}\n\n    enum Outcome {NULL, CANCELED, HOME, AWAY, DRAW, OVER, UNDER, YES, NO}\n\n    enum BetType {HOMEAWAYDRAW, MONEYLINE, OVERUNDER, POINTSPREAD, BOTHTEAMSCORE, FIRSTTEAMTOSCORE}\n\n    /***************************************************************************\n     *                                 Events                                  *\n     ***************************************************************************/\n\n    /**\n     * Event for new event creation\n     * @param id Id of the created event\n     * @param ipfsAddress Ipfs hash of the created event\n     * @param markets Markets of the created event\n     */\n     event LogNewEvent(uint id, bytes32 ipfsAddress, uint[] markets);\n\n    /**\n     * Event for new markets adding\n     * @param id Id of the event\n     * @param markets Markets added to the event\n     */\n     event LogNewMarkets(uint id, uint[] markets);\n\n    /**\n     * Event for finalized event\n     * @param id Id of the event\n     */\n     event LogResultEvent(uint id);\n\n    /**\n     * Event for canceled event\n     * @param id Id of the event\n     */\n     event LogCancelEvent(uint id);\n\n    /**\n     * Event for new offer creation\n     * @param id Id of the created offer\n     * @param eventId Id of the event\n     * @param marketIndex Index of the market\n     * @param owner Address of the owner\n     * @param amount Amount of the offer\n     * @param price Price of the offer\n     * @param outcome Outcome of the offer\n     * @param timestampExpiration Timestamp of expiration of the offer\n     */\n     event LogNewOffer(uint id, uint indexed eventId, uint indexed marketIndex, address indexed owner, uint amount, uint price, uint outcome, uint timestampExpiration);\n\n    /**\n     * Event for updated offer\n     * @param id Id of the updated offer\n     * @param amount Amount of the offer\n     * @param price Price of the offer\n     */\n     event LogUpdateOffer(uint indexed id, uint amount, uint price);\n\n    /**\n     * Event for new bet creation\n     * @param id Id of the created bet\n     * @param eventId Id of the event\n     * @param marketIndex Index of the market\n     * @param backPosition Id of the back position of the bet\n     * @param layPosition Id of the lay position of the bet\n     * @param amount Amount of the bet\n     * @param outcome Outcome of the bet\n     */\n     event LogNewBet(uint id, uint indexed eventId, uint indexed marketIndex, uint backPosition, uint layPosition, uint amount, uint outcome);\n\n    /**\n     * Event for closed bet\n     * @param id Id of the closed bet\n     */\n     event LogBetClosed(uint id);\n\n    /**\n     * Event for new position creation\n     * @param id Id of the created position\n     * @param betId Id of the bet\n     * @param owner Owner of the position\n     * @param amount Amount of the position\n     */\n     event LogNewPosition(uint id, uint indexed betId, address indexed owner, uint amount);\n\n    /***************************************************************************\n     *                               Structures                                *\n     ***************************************************************************/\n\n     struct Event {\n        uint _id;\n        bytes32 _ipfsAddress;\n        mapping(uint => Market) _markets;\n        State _state;\n    }\n\n    struct Market {\n        BetType _type;\n        bytes10 _data;\n        Outcome _outcome;\n        bool \t_active;\n    }\n\n    struct Offer {\n        uint _id;\n        uint _eventId;\n        uint _marketIndex;\n        address _owner;\n        uint _amount;\n        uint _price;\n        Outcome _outcome;\n        uint _timestampExpiration;\n    }\n\n    struct Bet {\n        uint _id;\n        uint _eventId;\n        uint _marketIndex;\n        uint _backPosition;\n        uint _layPosition;\n        uint _amount;\n        Outcome _outcome;\n        State _state;\n    }\n\n    struct Position {\n        uint _id;\n        uint _betId;\n        address _owner;\n        uint _amount;\n    }\n\n    /***************************************************************************\n     *                                Modifiers                                *\n     ***************************************************************************/\n\n    /// @notice Check that the caller is the owner of the smart contract\n    modifier isOwner() {\n        require(owner == msg.sender, 'Sender it not owner');\n        _;\n    }\n\n    /// @notice Check that the caller have admin rights\n    modifier isAdmin() {\n        require(admins[msg.sender], 'Sender is not an admin');\n        _;\n    }\n\n    /// @notice Check that the event exists and is still open\n    modifier eventAvailable(uint _eventId) {\n        require(_eventId > 0, 'Event id should be greater than 0');\n        require(_eventId <= m_nbEvents, 'Event id does not exist yet');\n        require(uint(events[_eventId]._state) == uint(State.OPEN), 'Event is not open');\n        _;\n    }\n\n    /// @notice Check that the market exists in the selected event\n    modifier marketAvailable(uint _eventId, uint _marketIndex) {\n        require(events[_eventId]._markets[_marketIndex]._active, 'Market is not available');\n        _;\n    }\n\n    /// @notice Check that the offer exists and is still open\n    modifier offerAvailable(uint _offerId) {\n        require(_offerId > 0, 'Offer id should be greater than 0');\n        require(_offerId <= m_nbOffers, 'Offer id does not exist yet');\n        require(offers[_offerId]._timestampExpiration > now, 'Offer is expired');\n        require(uint(events[offers[_offerId]._eventId]._state) == uint(State.OPEN), 'Event is not open');\n        require(offers[_offerId]._amount >= m_minAmount, 'Offer amount is below minimum');\n        require(offers[_offerId]._price >= m_minAmount, 'Offer price is below minimum');\n        require(Token.balanceOf(offers[_offerId]._owner) >= m_minAmount, 'Offer owner balance is below minimum');\n        require(Token.allowance(offers[_offerId]._owner, address(this)) >= m_minAmount, 'Offer owner allowance is below minimum');\n        _;\n    }\n\n    /// @notice Check that the selected outcome is valid for the type of the selected event\n    modifier outcomeValid(uint _eventId, uint _marketIndex, uint _outcome) {\n        if (BetType(_marketIndex) == BetType.HOMEAWAYDRAW) {\n            require(_outcome <= uint(Outcome.DRAW), 'Selected outcome is not valid for HOMEAWAYDRAW market');\n            require(_outcome >= uint(Outcome.HOME), 'Selected outcome is not valid for HOMEAWAYDRAW market');\n        }\n        if (BetType(_marketIndex) == BetType.MONEYLINE) {\n            require(_outcome <= uint(Outcome.AWAY), 'Selected outcome is not valid for MONEYLINE market');\n            require(_outcome >= uint(Outcome.HOME), 'Selected outcome is not valid for MONEYLINE market');\n        }\n        if (BetType(_marketIndex) == BetType.OVERUNDER) {\n            require(_outcome <= uint(Outcome.UNDER), 'Selected outcome is not valid for OVERUNDER market');\n            require(_outcome >= uint(Outcome.OVER), 'Selected outcome is not valid for OVERUNDER market');\n        }\n        if (BetType(_marketIndex) == BetType.POINTSPREAD) {\n            require(_outcome <= uint(Outcome.AWAY), 'Selected outcome is not valid for POINTSPREAD market');\n            require(_outcome >= uint(Outcome.HOME), 'Selected outcome is not valid for POINTSPREAD market');\n        }\n        if (BetType(_marketIndex) == BetType.BOTHTEAMSCORE) {\n            require(_outcome <= uint(Outcome.NO), 'Selected outcome is not valid for BOTHTEAMSCORE market');\n            require(_outcome >= uint(Outcome.YES), 'Selected outcome is not valid for BOTHTEAMSCORE market');\n        }\n        if (BetType(_marketIndex) == BetType.FIRSTTEAMTOSCORE) {\n            require(_outcome <= uint(Outcome.AWAY), 'Selected outcome is not valid for FIRSTTEAMTOSCORE market');\n            require(_outcome >= uint(Outcome.HOME), 'Selected outcome is not valid for FIRSTTEAMTOSCORE market');\n        }\n        _;\n    }\n\n    /***************************************************************************\n     *                               Constructor                               *\n     ***************************************************************************/\n\n    /** \n\t* @notice Constructor, take _tokenAddress\n    * @param _tokenAddress Address of the token used\n    */\n    constructor(address _tokenAddress) public {\n        owner = msg.sender;\n        Token = MaticWETH(_tokenAddress);\n        addAdmin(msg.sender);\n    }\n\n    /***************************************************************************\n     *                             Owner functions                             *\n     ***************************************************************************/\n\n    /**\n\t* @notice Set address as an admin\n\t* @param _addr The address to set as an admin\n\t*/\n    function addAdmin(address _addr) public isOwner {\n        admins[_addr] = true;\n    }\n\n    /**\n    * @notice Remove address from admins\n    * @param _addr The address to unset from admins\n    */\n    function removeAdmin(address _addr) external isOwner {\n        require(_addr != owner, 'Owner can not be removed from admins');\n        admins[_addr] = false;\n    }\n\n    /***************************************************************************\n     *                             Admin functions                             *\n     ***************************************************************************/\n\n    /**\n    * @notice Add new event to smart contract. The details of the event are found in the ipfs address\n    * @param _ipfsAddress Ipfs address containing informations about the Event\n    * @param _markets Markets available for the Event\n    * @param _data Additionnal data about the Markets\n    */\n    function addEvent(\n        bytes32 _ipfsAddress,\n        uint[] calldata _markets,\n        bytes10[] calldata _data\n        ) external isAdmin {\n        uint _id = _addEvent(_ipfsAddress, _markets, _data);\n\n        emit LogNewEvent(_id, _ipfsAddress, _markets);\n    }\n\n    /**\n    * @notice Add new markets to existing event\n    * @param _eventId Id of the Event\n    * @param _markets Markets available for the Event\n    * @param _data Additionnal data about the Markets\n    */\n    function addMarkets(\n        uint _eventId,\n        uint[] calldata _markets,\n        bytes10[] calldata _data\n        ) external isAdmin eventAvailable(_eventId) {\n        _addMarkets(_eventId, _markets, _data);\n\n        emit LogNewMarkets(_eventId, _markets);\n    }\n\n    /**\n    * @notice Set results to an event markets\n    * @param _eventId Id of the Event\n    * @param _markets Markets to set results to\n    * @param _outcomes Outcomes of the Markets\n    */\n    function setEventResult(uint _eventId, uint[] calldata _markets, uint[] calldata _outcomes)\n    external\n    isAdmin\n    eventAvailable(_eventId)\n    {\n        _setEventResult(_eventId, _markets, _outcomes);\n\n        emit LogResultEvent(_eventId);\n    }\n\n    /**\n    * @notice Cancel an event\n    * @param _eventId Id of the Event\n    */\n    function cancelEvent(uint _eventId) \n    external \n    isAdmin\n    eventAvailable(_eventId)\n    {\n        _cancelEvent(_eventId);\n\n        emit LogCancelEvent(_eventId);\n    }\n\n    /***************************************************************************\n     *                            External functions                           *\n     ***************************************************************************/\n\n    /**\n    * @notice Open a new offer\n    * @param _eventId Id of the Event\n    * @param _marketIndex Index of the Market\n    * @param _amount Amount the bookmaker is putting on the Offer\n    * @param _price Price the bookmaker is selling the Offer for\n    * @param _outcome Outcome of the market the bookmaker is opening the Offer on\n    * @param _timestampExpiration timestamp the Offer expires on\n    */\n    function openOffer(\n        uint _eventId,\n        uint _marketIndex,\n        uint _amount,\n        uint _price,\n        uint _outcome,\n        uint _timestampExpiration\n        )\n    external\n    eventAvailable(_eventId)\n    marketAvailable(_eventId, _marketIndex)\n    outcomeValid(_eventId, _marketIndex, _outcome)\n    {\n        require(_price >= m_minAmount, 'Price is below minimum');\n        require(_amount >= m_minAmount, 'Amount is below minimum');\n        require(_timestampExpiration >= now, 'Expiration timestamp is in the past');\n\n        m_nbOffers = m_nbOffers.add(1);\n\n        Offer memory newOffer = Offer(\n            m_nbOffers,\n            _eventId,\n            _marketIndex,\n            msg.sender,\n            _amount,\n            _price,\n            Outcome(_outcome),\n            _timestampExpiration\n            );\n\n        offers[newOffer._id] = newOffer;\n\n        emit LogNewOffer(\n            newOffer._id,\n            newOffer._eventId,\n            newOffer._marketIndex,\n            newOffer._owner,\n            newOffer._amount,\n            newOffer._price,\n            uint(newOffer._outcome),\n            newOffer._timestampExpiration\n            );\n    }\n\n    /**\n    * @notice Close an offer\n    * @param _offerId Id of the Offer\n    */\n    function closeOffer(uint _offerId) external {\n        require(_offerId > 0, 'Offer id should be greater than 0');\n        require(_offerId <= m_nbOffers, 'Offer id does not exist yet');\n        require(offers[_offerId]._owner == msg.sender, 'Offer owner is not sender');\n        require(offers[_offerId]._amount > 0, 'Offer is already closed');\n\n        _closeOffer(_offerId);\n    }\n\n    /**\n    * @notice Buy an offer\n    * @param _offerId Id of the Offer\n    * @param _amount Amount you're buying the Offer with\n    */\n    function buyOffer(uint _offerId, uint _amount)\n    public\n    offerAvailable(_offerId)\n    {\n        require(_amount >= m_minAmount, 'Amount is below minimum');\n        require(Token.balanceOf(msg.sender) >= _amount, 'Amount exceeds sender balance');\n        require(Token.allowance(msg.sender, address(this)) >= _amount, 'Amount exceeds sender allowance');\n\n        Offer memory _offer = offers[_offerId];\n\n        uint _amountBuyer = _amount;\n\n        if ( _offer._price < _amount ) {\n        \t_amountBuyer = _offer._price;\n        }\n\n        uint _amountOfferToBet = _offer._amount.mul(_amountBuyer).div(_offer._price);\n\n        uint _balanceOwner = Token.balanceOf(_offer._owner);\n        uint _allowanceOwner = Token.allowance(_offer._owner, address(this));\n\n        uint _amountAvailableOwner = _balanceOwner > _allowanceOwner ? _allowanceOwner : _balanceOwner;\n\n        if( _amountAvailableOwner < _amountOfferToBet ) {\n        \t_amountOfferToBet = _amountAvailableOwner;\n        \t_amountBuyer = _amountOfferToBet.mul(_offer._price).div(_offer._amount);\n        }\n        \n        uint _restAmountOffer = _offer._amount.sub(_amountOfferToBet);\n        uint _restPriceOffer = _restAmountOffer.mul(_offer._price).div(_offer._amount);\n\n        Token.transferFrom(msg.sender, address(this), _amountBuyer);\n        Token.transferFrom(_offer._owner, address(this), _amountOfferToBet);\n\n        m_nbBets = m_nbBets.add(1);\n\n        Bet memory _newBet;\n        _newBet._id = m_nbBets;\n        _newBet._eventId = _offer._eventId;\n        _newBet._marketIndex = _offer._marketIndex;\n        _newBet._outcome = _offer._outcome;\n        _newBet._state = State.OPEN;\n\n        Position memory backPosition = _createPosition(\n            _newBet._id,\n            msg.sender,\n            _amountBuyer\n            );\n        Position memory layPosition = _createPosition(\n            _newBet._id,\n            _offer._owner,\n            _amountOfferToBet\n            );\n\n        _newBet._backPosition = backPosition._id;\n        _newBet._layPosition = layPosition._id;\n        _newBet._amount = backPosition._amount + layPosition._amount;\n\n        bets[m_nbBets] = _newBet;\n\n        emit LogNewBet(\n            _newBet._id,\n            _newBet._eventId,\n            _newBet._marketIndex,\n            _newBet._backPosition,\n            _newBet._layPosition,\n            _newBet._amount,\n            uint(_newBet._outcome)\n            );\n\n        offers[_offer._id]._amount = _restAmountOffer;\n        offers[_offer._id]._price = _restPriceOffer;\n\n        if (_restAmountOffer < m_minAmount || _restPriceOffer < m_minAmount) {\n            _closeOffer(_offer._id);\n        }\n        else {\n            emit LogUpdateOffer(_offerId, _restAmountOffer, _restPriceOffer);\n        }\n    }\n\n    /**\n    * @notice Buy multiple offers\n    * @param _offerIds Offers to buy\n    * @param _amount Amount you're buying the Offers with\n    */\n    function buyOfferBulk(\n        uint[] calldata _offerIds,\n        uint _amount\n        ) external {\n        require(_amount >= m_minAmount, 'Amount is below minimum');\n        require(Token.balanceOf(msg.sender) >= _amount, 'Amount exceeds sender balance');\n        require(Token.allowance(msg.sender, address(this)) >= _amount, 'Amount exceeds sender allowance');\n\n        uint _length = _offerIds.length;\n        uint _restAmount = _amount;\n        uint _offerAmount;\n        uint _offerId;\n\n        for (uint i = 0; i < _length; i++) {\n            if (_restAmount < m_minAmount) {\n                break;\n            }\n\n            _offerId = _offerIds[i];\n\n            if (offers[_offerId]._price <= _restAmount) {\n                _offerAmount = offers[_offerId]._price;\n                } else {\n                    _offerAmount = _restAmount;\n                }\n\n                buyOffer(_offerId, _offerAmount);\n\n                _restAmount = _restAmount.sub(_offerAmount);\n            }\n        }\n\n    /**\n    * @notice Close a bet and send earnings to winner\n    * @param _betId Id of the Bet to close\n    */\n    function claimBetEarnings(uint _betId) external {\n        require(_betId > 0, 'Bet id should be greater than 0');\n        require(_betId <= m_nbBets, 'Bet id does not exist');\n        require(uint(bets[_betId]._state) == uint(State.OPEN), 'Bet is not open');\n        require(uint(events[bets[_betId]._eventId]._state) > uint(State.OPEN), 'Event is still open');\n\n        Bet memory _bet = bets[_betId];\n        Event storage _event = events[_bet._eventId];\n\n        if (uint(_event._state) == uint(State.CANCELED)) {\n            Token.transfer(positions[_bet._backPosition]._owner, positions[_bet._backPosition]._amount);\n            Token.transfer(positions[_bet._layPosition]._owner, positions[_bet._layPosition]._amount);\n        } \n        else {\n            if (_event._markets[_bet._marketIndex]._outcome == _bet._outcome) {\n                Token.transfer(positions[_bet._backPosition]._owner, _bet._amount);\n            } \n            else if (_event._markets[_bet._marketIndex]._outcome != _bet._outcome) {\n                Token.transfer(positions[_bet._layPosition]._owner, _bet._amount);\n            }\n        }\n\n        _bet._state = State.CLOSE;\n        bets[_bet._id] = _bet;\n\n        emit LogBetClosed(_bet._id);\n    }\n\n    /**\n    * @notice Returns a market\n    * @param _eventId Id of the Event\n    * @param _marketIndex Index of the Market\n    */\n    function getMarket(uint _eventId, uint _marketIndex) public view returns (Market memory) {\n        return events[_eventId]._markets[_marketIndex];\n    }\n\n    /***************************************************************************\n     *                             Private functions                           *\n     ***************************************************************************/\n\n    /**\n    * @notice Private function that create an Event and add it to the mapping\n    * @param _ipfsAddress Ipfs address containing informations about the Event\n    * @param _markets Markets available for the Event\n    * @param _data Additionnal data about the Markets\n    */\n    function _addEvent(\n        bytes32 _ipfsAddress,\n        uint[] memory _markets,\n        bytes10[] memory _data\n        ) private returns (uint _id) {\n        m_nbEvents = m_nbEvents.add(1);\n\n        Event memory newEvent;\n        newEvent._id = m_nbEvents;\n        newEvent._ipfsAddress = _ipfsAddress;\n        newEvent._state = State.OPEN;\n\n        events[newEvent._id] = newEvent;\n\n        _addMarkets(newEvent._id, _markets, _data);\n\n        _id = m_nbEvents;\n    }\n\n    /**\n    * @notice Private function that add new markets to existing event\n    * @param _eventId Id of the Event\n    * @param _markets Markets available for the Event\n    * @param _data Additionnal data about the Markets\n    */\n    function _addMarkets(\n        uint _eventId,\n        uint[] memory _markets,\n        bytes10[] memory _data\n        ) private {\n        for (uint i = 0; i < _markets.length; i++) {\n            events[_eventId]._markets[_markets[i]] = (Market(\n                BetType(_markets[i]),\n                _data[i],\n                Outcome.NULL,\n                true\n                ));\n        }\n    }\n\n    /**\n    * @notice Private function that set results to an event markets\n    * @param _eventId Id of the Event\n    * @param _markets Markets to set results to\n    * @param _outcomes Outcomes of the Markets\n    */\n    function _setEventResult(uint _eventId, uint[] memory _markets, uint[] memory _outcomes) private {\n        Event storage _event = events[_eventId];\n\n        if (uint(_event._state) == uint(State.OPEN)) {\n            for (uint i = 0; i < _markets.length; i++) {\n                _event._markets[_markets[i]]._outcome = Outcome(_outcomes[i]);\n            }\n            _event._state = State.CLOSE;\n        }\n    }\n\n    /**\n    * @notice Private function that cancel an event\n    * @param _eventId Id of the Event\n    */\n    function _cancelEvent(uint _eventId) private {\n        Event memory _event = events[_eventId];\n\n        _event._state = State.CANCELED;\n\n        events[_event._id] = _event;\n    }\n\n    /**\n    * @notice Private function that close an offer\n    * @param _offerId Id of the Offer\n    */\n    function _closeOffer(uint _offerId) private {\n        offers[_offerId]._amount = 0;\n        offers[_offerId]._price = 0;\n\n        emit LogUpdateOffer(_offerId, offers[_offerId]._amount, offers[_offerId]._price);\n    }\n\n    /**\n    * @notice Private function that create a Position and add it to the mapping \n    * @param _betId Id of the related Bet\n    * @param _owner Owner of the Position\n    * @param _amount Amount of the Position\n    */\n    function _createPosition(\n        uint _betId,\n        address _owner,\n        uint _amount\n        ) private returns (Position memory newPosition) {\n        m_nbPositions = m_nbPositions.add(1);\n\n        newPosition = Position(m_nbPositions, _betId, _owner, _amount);\n\n        positions[newPosition._id] = newPosition;\n\n        _logNewPosition(newPosition);\n    }\n\n    /**\n    * @notice Emits the logNewPosition event  \n    * @param _newPosition Position to log\n    */\n    function _logNewPosition(Position memory _newPosition) private {\n        emit LogNewPosition(\n            _newPosition._id,\n            _newPosition._betId,\n            _newPosition._owner,\n            _newPosition._amount\n            );\n    }\n}\n",
  "sourcePath": "/Users/andy/wisebet/bet-ethereum/contracts/SocialBet.sol",
  "compiler": {
    "name": "solc",
    "version": "0.5.8+commit.23d335f2.Emscripten.clang"
  },
  "schemaVersion": "3.2.3",
  "updatedAt": "2020-08-23T20:38:45.364Z",
  "networkType": "ethereum",
  "devdoc": {
    "author": "Andy Mpondo Black",
    "details": "This contract interact with WETH ERC-20 token contract",
    "methods": {
      "addAdmin(address)": {
        "params": {
          "_addr": "The address to set as an admin"
        }
      },
      "addEvent(bytes32,uint256[],bytes10[])": {
        "params": {
          "_data": "Additionnal data about the Markets",
          "_ipfsAddress": "Ipfs address containing informations about the Event",
          "_markets": "Markets available for the Event"
        }
      },
      "addMarkets(uint256,uint256[],bytes10[])": {
        "params": {
          "_data": "Additionnal data about the Markets",
          "_eventId": "Id of the Event",
          "_markets": "Markets available for the Event"
        }
      },
      "buyOffer(uint256,uint256)": {
        "params": {
          "_amount": "Amount you're buying the Offer with",
          "_offerId": "Id of the Offer"
        }
      },
      "buyOfferBulk(uint256[],uint256)": {
        "params": {
          "_amount": "Amount you're buying the Offers with",
          "_offerIds": "Offers to buy"
        }
      },
      "cancelEvent(uint256)": {
        "params": {
          "_eventId": "Id of the Event"
        }
      },
      "claimBetEarnings(uint256)": {
        "params": {
          "_betId": "Id of the Bet to close"
        }
      },
      "closeOffer(uint256)": {
        "params": {
          "_offerId": "Id of the Offer"
        }
      },
      "constructor": {
        "params": {
          "_tokenAddress": "Address of the token used"
        }
      },
      "getMarket(uint256,uint256)": {
        "params": {
          "_eventId": "Id of the Event",
          "_marketIndex": "Index of the Market"
        }
      },
      "openOffer(uint256,uint256,uint256,uint256,uint256,uint256)": {
        "params": {
          "_amount": "Amount the bookmaker is putting on the Offer",
          "_eventId": "Id of the Event",
          "_marketIndex": "Index of the Market",
          "_outcome": "Outcome of the market the bookmaker is opening the Offer on",
          "_price": "Price the bookmaker is selling the Offer for",
          "_timestampExpiration": "timestamp the Offer expires on"
        }
      },
      "removeAdmin(address)": {
        "params": {
          "_addr": "The address to unset from admins"
        }
      },
      "setEventResult(uint256,uint256[],uint256[])": {
        "params": {
          "_eventId": "Id of the Event",
          "_markets": "Markets to set results to",
          "_outcomes": "Outcomes of the Markets"
        }
      }
    },
    "title": "SocialBet contract"
  },
  "userdoc": {
    "methods": {
      "addAdmin(address)": {
        "notice": "Set address as an admin"
      },
      "addEvent(bytes32,uint256[],bytes10[])": {
        "notice": "Add new event to smart contract. The details of the event are found in the ipfs address"
      },
      "addMarkets(uint256,uint256[],bytes10[])": {
        "notice": "Add new markets to existing event"
      },
      "buyOffer(uint256,uint256)": {
        "notice": "Buy an offer"
      },
      "buyOfferBulk(uint256[],uint256)": {
        "notice": "Buy multiple offers"
      },
      "cancelEvent(uint256)": {
        "notice": "Cancel an event"
      },
      "claimBetEarnings(uint256)": {
        "notice": "Close a bet and send earnings to winner"
      },
      "closeOffer(uint256)": {
        "notice": "Close an offer"
      },
      "constructor": "Constructor, take _tokenAddress",
      "getMarket(uint256,uint256)": {
        "notice": "Returns a market"
      },
      "openOffer(uint256,uint256,uint256,uint256,uint256,uint256)": {
        "notice": "Open a new offer"
      },
      "removeAdmin(address)": {
        "notice": "Remove address from admins"
      },
      "setEventResult(uint256,uint256[],uint256[])": {
        "notice": "Set results to an event markets"
      }
    },
    "notice": "This contract is used for SocialBet decentralized sports betting platform"
  }
}